{
  "address": "0xb55fe14b91E7673eE74F01f2F920FB0A2A8404E2",
  "abi": [
    {
      "inputs": [
        {
          "internalType": "address",
          "name": "_timeLockAddress",
          "type": "address"
        },
        {
          "internalType": "contract IAsERC20",
          "name": "_USDF",
          "type": "address"
        },
        {
          "internalType": "contract IAsERC20",
          "name": "_asUSDF",
          "type": "address"
        },
        {
          "internalType": "contract IWithdrawVault",
          "name": "_withdrawVault",
          "type": "address"
        },
        {
          "internalType": "uint256",
          "name": "_vestingPeriod",
          "type": "uint256"
        }
      ],
      "stateMutability": "nonpayable",
      "type": "constructor"
    },
    {
      "inputs": [],
      "name": "AccessControlBadConfirmation",
      "type": "error"
    },
    {
      "inputs": [
        {
          "internalType": "address",
          "name": "account",
          "type": "address"
        },
        {
          "internalType": "bytes32",
          "name": "neededRole",
          "type": "bytes32"
        }
      ],
      "name": "AccessControlUnauthorizedAccount",
      "type": "error"
    },
    {
      "inputs": [
        {
          "internalType": "address",
          "name": "target",
          "type": "address"
        }
      ],
      "name": "AddressEmptyCode",
      "type": "error"
    },
    {
      "inputs": [
        {
          "internalType": "address",
          "name": "implementation",
          "type": "address"
        }
      ],
      "name": "ERC1967InvalidImplementation",
      "type": "error"
    },
    {
      "inputs": [],
      "name": "ERC1967NonPayable",
      "type": "error"
    },
    {
      "inputs": [],
      "name": "EnforcedPause",
      "type": "error"
    },
    {
      "inputs": [],
      "name": "ExpectedPause",
      "type": "error"
    },
    {
      "inputs": [],
      "name": "FailedCall",
      "type": "error"
    },
    {
      "inputs": [],
      "name": "InvalidInitialization",
      "type": "error"
    },
    {
      "inputs": [],
      "name": "NotInitializing",
      "type": "error"
    },
    {
      "inputs": [],
      "name": "ReentrancyGuardReentrantCall",
      "type": "error"
    },
    {
      "inputs": [
        {
          "internalType": "address",
          "name": "token",
          "type": "address"
        }
      ],
      "name": "SafeERC20FailedOperation",
      "type": "error"
    },
    {
      "inputs": [],
      "name": "UUPSUnauthorizedCallContext",
      "type": "error"
    },
    {
      "inputs": [
        {
          "internalType": "bytes32",
          "name": "slot",
          "type": "bytes32"
        }
      ],
      "name": "UUPSUnsupportedProxiableUUID",
      "type": "error"
    },
    {
      "anonymous": false,
      "inputs": [
        {
          "indexed": true,
          "internalType": "address",
          "name": "sender",
          "type": "address"
        },
        {
          "indexed": true,
          "internalType": "address",
          "name": "user",
          "type": "address"
        }
      ],
      "name": "AddEmergencyWithdrawWhitelist",
      "type": "event"
    },
    {
      "anonymous": false,
      "inputs": [
        {
          "indexed": true,
          "internalType": "contract IERC20",
          "name": "asUSDF",
          "type": "address"
        },
        {
          "indexed": true,
          "internalType": "contract IERC20",
          "name": "USDF",
          "type": "address"
        }
      ],
      "name": "AddToken",
      "type": "event"
    },
    {
      "anonymous": false,
      "inputs": [
        {
          "indexed": true,
          "internalType": "address",
          "name": "sender",
          "type": "address"
        },
        {
          "indexed": true,
          "internalType": "contract IERC20",
          "name": "withdrawToken",
          "type": "address"
        },
        {
          "indexed": true,
          "internalType": "contract IERC20",
          "name": "receiveToken",
          "type": "address"
        },
        {
          "indexed": false,
          "internalType": "uint256",
          "name": "withdrawAmount",
          "type": "uint256"
        },
        {
          "indexed": false,
          "internalType": "uint256",
          "name": "receiveAmount",
          "type": "uint256"
        },
        {
          "indexed": false,
          "internalType": "uint256",
          "name": "requestWithdrawNo",
          "type": "uint256"
        }
      ],
      "name": "ClaimWithdraw",
      "type": "event"
    },
    {
      "anonymous": false,
      "inputs": [
        {
          "indexed": true,
          "internalType": "contract IERC20",
          "name": "withdrawToken",
          "type": "address"
        },
        {
          "indexed": true,
          "internalType": "contract IERC20",
          "name": "receiveToken",
          "type": "address"
        },
        {
          "indexed": false,
          "internalType": "uint256",
          "name": "withdrawAmount",
          "type": "uint256"
        },
        {
          "indexed": false,
          "internalType": "uint256",
          "name": "receiveAmount",
          "type": "uint256"
        },
        {
          "indexed": false,
          "internalType": "uint256",
          "name": "requestWithdrawNo",
          "type": "uint256"
        }
      ],
      "name": "DistributeWithdraw",
      "type": "event"
    },
    {
      "anonymous": false,
      "inputs": [
        {
          "indexed": false,
          "internalType": "uint64",
          "name": "version",
          "type": "uint64"
        }
      ],
      "name": "Initialized",
      "type": "event"
    },
    {
      "anonymous": false,
      "inputs": [
        {
          "indexed": true,
          "internalType": "address",
          "name": "sender",
          "type": "address"
        },
        {
          "indexed": true,
          "internalType": "contract IERC20",
          "name": "USDFAddress",
          "type": "address"
        },
        {
          "indexed": true,
          "internalType": "contract IERC20",
          "name": "asUSDFAddress",
          "type": "address"
        },
        {
          "indexed": false,
          "internalType": "uint256",
          "name": "amountIn",
          "type": "uint256"
        },
        {
          "indexed": false,
          "internalType": "uint256",
          "name": "asUSDFAmount",
          "type": "uint256"
        },
        {
          "indexed": false,
          "internalType": "uint256",
          "name": "exchangePrice",
          "type": "uint256"
        }
      ],
      "name": "MintasUSDF",
      "type": "event"
    },
    {
      "anonymous": false,
      "inputs": [
        {
          "indexed": false,
          "internalType": "address",
          "name": "account",
          "type": "address"
        }
      ],
      "name": "Paused",
      "type": "event"
    },
    {
      "anonymous": false,
      "inputs": [
        {
          "indexed": true,
          "internalType": "address",
          "name": "sender",
          "type": "address"
        },
        {
          "indexed": true,
          "internalType": "address",
          "name": "user",
          "type": "address"
        }
      ],
      "name": "RemoveEmergencyWithdrawWhitelist",
      "type": "event"
    },
    {
      "anonymous": false,
      "inputs": [
        {
          "indexed": true,
          "internalType": "address",
          "name": "sender",
          "type": "address"
        },
        {
          "indexed": true,
          "internalType": "contract IERC20",
          "name": "token",
          "type": "address"
        },
        {
          "indexed": false,
          "internalType": "uint256",
          "name": "amount",
          "type": "uint256"
        },
        {
          "indexed": false,
          "internalType": "uint256",
          "name": "requestWithdrawNo",
          "type": "uint256"
        },
        {
          "indexed": false,
          "internalType": "bool",
          "name": "emergency",
          "type": "bool"
        }
      ],
      "name": "RequestWithdraw",
      "type": "event"
    },
    {
      "anonymous": false,
      "inputs": [
        {
          "indexed": false,
          "internalType": "uint256",
          "name": "amount",
          "type": "uint256"
        },
        {
          "indexed": false,
          "internalType": "uint256",
          "name": "startTime",
          "type": "uint256"
        },
        {
          "indexed": false,
          "internalType": "uint256",
          "name": "period",
          "type": "uint256"
        }
      ],
      "name": "RewardDispatched",
      "type": "event"
    },
    {
      "anonymous": false,
      "inputs": [
        {
          "indexed": true,
          "internalType": "bytes32",
          "name": "role",
          "type": "bytes32"
        },
        {
          "indexed": true,
          "internalType": "bytes32",
          "name": "previousAdminRole",
          "type": "bytes32"
        },
        {
          "indexed": true,
          "internalType": "bytes32",
          "name": "newAdminRole",
          "type": "bytes32"
        }
      ],
      "name": "RoleAdminChanged",
      "type": "event"
    },
    {
      "anonymous": false,
      "inputs": [
        {
          "indexed": true,
          "internalType": "bytes32",
          "name": "role",
          "type": "bytes32"
        },
        {
          "indexed": true,
          "internalType": "address",
          "name": "account",
          "type": "address"
        },
        {
          "indexed": true,
          "internalType": "address",
          "name": "sender",
          "type": "address"
        }
      ],
      "name": "RoleGranted",
      "type": "event"
    },
    {
      "anonymous": false,
      "inputs": [
        {
          "indexed": true,
          "internalType": "bytes32",
          "name": "role",
          "type": "bytes32"
        },
        {
          "indexed": true,
          "internalType": "address",
          "name": "account",
          "type": "address"
        },
        {
          "indexed": true,
          "internalType": "address",
          "name": "sender",
          "type": "address"
        }
      ],
      "name": "RoleRevoked",
      "type": "event"
    },
    {
      "anonymous": false,
      "inputs": [
        {
          "indexed": false,
          "internalType": "address",
          "name": "account",
          "type": "address"
        }
      ],
      "name": "Unpaused",
      "type": "event"
    },
    {
      "anonymous": false,
      "inputs": [
        {
          "indexed": false,
          "internalType": "bool",
          "name": "oldValue",
          "type": "bool"
        },
        {
          "indexed": false,
          "internalType": "bool",
          "name": "newValue",
          "type": "bool"
        }
      ],
      "name": "UpdateEmergencyWithdrawEnabled",
      "type": "event"
    },
    {
      "anonymous": false,
      "inputs": [
        {
          "indexed": false,
          "internalType": "uint256",
          "name": "oldValue",
          "type": "uint256"
        },
        {
          "indexed": false,
          "internalType": "uint256",
          "name": "newValue",
          "type": "uint256"
        }
      ],
      "name": "UpdateMaxRewardPercent",
      "type": "event"
    },
    {
      "anonymous": false,
      "inputs": [
        {
          "indexed": false,
          "internalType": "bool",
          "name": "oldUSDFDepositEnabled",
          "type": "bool"
        },
        {
          "indexed": false,
          "internalType": "bool",
          "name": "newUSDFDepositEnabled",
          "type": "bool"
        }
      ],
      "name": "UpdateUSDFDepositEnabled",
      "type": "event"
    },
    {
      "anonymous": false,
      "inputs": [
        {
          "indexed": false,
          "internalType": "bool",
          "name": "oldValue",
          "type": "bool"
        },
        {
          "indexed": false,
          "internalType": "bool",
          "name": "newValue",
          "type": "bool"
        }
      ],
      "name": "UpdateWithdrawEnabled",
      "type": "event"
    },
    {
      "anonymous": false,
      "inputs": [
        {
          "indexed": true,
          "internalType": "address",
          "name": "implementation",
          "type": "address"
        }
      ],
      "name": "Upgraded",
      "type": "event"
    },
    {
      "inputs": [],
      "name": "ADMIN_ROLE",
      "outputs": [
        {
          "internalType": "bytes32",
          "name": "",
          "type": "bytes32"
        }
      ],
      "stateMutability": "view",
      "type": "function"
    },
    {
      "inputs": [],
      "name": "BOT_ROLE",
      "outputs": [
        {
          "internalType": "bytes32",
          "name": "",
          "type": "bytes32"
        }
      ],
      "stateMutability": "view",
      "type": "function"
    },
    {
      "inputs": [],
      "name": "DEFAULT_ADMIN_ROLE",
      "outputs": [
        {
          "internalType": "bytes32",
          "name": "",
          "type": "bytes32"
        }
      ],
      "stateMutability": "view",
      "type": "function"
    },
    {
      "inputs": [],
      "name": "EXCHANGE_PRICE_DECIMALS",
      "outputs": [
        {
          "internalType": "uint256",
          "name": "",
          "type": "uint256"
        }
      ],
      "stateMutability": "view",
      "type": "function"
    },
    {
      "inputs": [],
      "name": "PAUSE_ROLE",
      "outputs": [
        {
          "internalType": "bytes32",
          "name": "",
          "type": "bytes32"
        }
      ],
      "stateMutability": "view",
      "type": "function"
    },
    {
      "inputs": [],
      "name": "REWARD_ROLE",
      "outputs": [
        {
          "internalType": "bytes32",
          "name": "",
          "type": "bytes32"
        }
      ],
      "stateMutability": "view",
      "type": "function"
    },
    {
      "inputs": [],
      "name": "TIMELOCK_ADDRESS",
      "outputs": [
        {
          "internalType": "address",
          "name": "",
          "type": "address"
        }
      ],
      "stateMutability": "view",
      "type": "function"
    },
    {
      "inputs": [],
      "name": "UPGRADE_INTERFACE_VERSION",
      "outputs": [
        {
          "internalType": "string",
          "name": "",
          "type": "string"
        }
      ],
      "stateMutability": "view",
      "type": "function"
    },
    {
      "inputs": [],
      "name": "USDF",
      "outputs": [
        {
          "internalType": "contract IAsERC20",
          "name": "",
          "type": "address"
        }
      ],
      "stateMutability": "view",
      "type": "function"
    },
    {
      "inputs": [],
      "name": "USDFDepositEnabled",
      "outputs": [
        {
          "internalType": "bool",
          "name": "",
          "type": "bool"
        }
      ],
      "stateMutability": "view",
      "type": "function"
    },
    {
      "inputs": [],
      "name": "VESTING_PERIOD",
      "outputs": [
        {
          "internalType": "uint256",
          "name": "",
          "type": "uint256"
        }
      ],
      "stateMutability": "view",
      "type": "function"
    },
    {
      "inputs": [],
      "name": "WITHDRAW_VAULT",
      "outputs": [
        {
          "internalType": "contract IWithdrawVault",
          "name": "",
          "type": "address"
        }
      ],
      "stateMutability": "view",
      "type": "function"
    },
    {
      "inputs": [
        {
          "internalType": "address[]",
          "name": "users",
          "type": "address[]"
        }
      ],
      "name": "addEmergencyWithdrawWhitelist",
      "outputs": [],
      "stateMutability": "nonpayable",
      "type": "function"
    },
    {
      "inputs": [],
      "name": "asUSDF",
      "outputs": [
        {
          "internalType": "contract IAsERC20",
          "name": "",
          "type": "address"
        }
      ],
      "stateMutability": "view",
      "type": "function"
    },
    {
      "inputs": [
        {
          "internalType": "uint256[]",
          "name": "requestWithdrawNos",
          "type": "uint256[]"
        }
      ],
      "name": "claimWithdraw",
      "outputs": [],
      "stateMutability": "nonpayable",
      "type": "function"
    },
    {
      "inputs": [
        {
          "internalType": "uint256",
          "name": "amountIn",
          "type": "uint256"
        }
      ],
      "name": "deposit",
      "outputs": [],
      "stateMutability": "nonpayable",
      "type": "function"
    },
    {
      "inputs": [
        {
          "internalType": "uint256",
          "name": "amount",
          "type": "uint256"
        }
      ],
      "name": "dispatchReward",
      "outputs": [],
      "stateMutability": "nonpayable",
      "type": "function"
    },
    {
      "inputs": [
        {
          "components": [
            {
              "internalType": "contract IERC20",
              "name": "withdrawToken",
              "type": "address"
            },
            {
              "internalType": "uint256",
              "name": "requestWithdrawNo",
              "type": "uint256"
            },
            {
              "internalType": "address",
              "name": "receipt",
              "type": "address"
            }
          ],
          "internalType": "struct IWithdrawable.DistributeWithdrawInfo[]",
          "name": "distributeWithdrawInfoList",
          "type": "tuple[]"
        }
      ],
      "name": "distributeWithdraw",
      "outputs": [],
      "stateMutability": "nonpayable",
      "type": "function"
    },
    {
      "inputs": [],
      "name": "emergencyWithdrawEnabled",
      "outputs": [
        {
          "internalType": "bool",
          "name": "",
          "type": "bool"
        }
      ],
      "stateMutability": "view",
      "type": "function"
    },
    {
      "inputs": [
        {
          "internalType": "address",
          "name": "user",
          "type": "address"
        }
      ],
      "name": "emergencyWithdrawWhitelist",
      "outputs": [
        {
          "internalType": "bool",
          "name": "",
          "type": "bool"
        }
      ],
      "stateMutability": "view",
      "type": "function"
    },
    {
      "inputs": [],
      "name": "exchangePrice",
      "outputs": [
        {
          "internalType": "uint256",
          "name": "",
          "type": "uint256"
        }
      ],
      "stateMutability": "view",
      "type": "function"
    },
    {
      "inputs": [
        {
          "internalType": "bytes32",
          "name": "role",
          "type": "bytes32"
        }
      ],
      "name": "getRoleAdmin",
      "outputs": [
        {
          "internalType": "bytes32",
          "name": "",
          "type": "bytes32"
        }
      ],
      "stateMutability": "view",
      "type": "function"
    },
    {
      "inputs": [
        {
          "internalType": "bytes32",
          "name": "role",
          "type": "bytes32"
        },
        {
          "internalType": "uint256",
          "name": "index",
          "type": "uint256"
        }
      ],
      "name": "getRoleMember",
      "outputs": [
        {
          "internalType": "address",
          "name": "",
          "type": "address"
        }
      ],
      "stateMutability": "view",
      "type": "function"
    },
    {
      "inputs": [
        {
          "internalType": "bytes32",
          "name": "role",
          "type": "bytes32"
        }
      ],
      "name": "getRoleMemberCount",
      "outputs": [
        {
          "internalType": "uint256",
          "name": "",
          "type": "uint256"
        }
      ],
      "stateMutability": "view",
      "type": "function"
    },
    {
      "inputs": [
        {
          "internalType": "bytes32",
          "name": "role",
          "type": "bytes32"
        }
      ],
      "name": "getRoleMembers",
      "outputs": [
        {
          "internalType": "address[]",
          "name": "",
          "type": "address[]"
        }
      ],
      "stateMutability": "view",
      "type": "function"
    },
    {
      "inputs": [],
      "name": "getUnvestedAmount",
      "outputs": [
        {
          "internalType": "uint256",
          "name": "",
          "type": "uint256"
        }
      ],
      "stateMutability": "view",
      "type": "function"
    },
    {
      "inputs": [
        {
          "internalType": "bytes32",
          "name": "role",
          "type": "bytes32"
        },
        {
          "internalType": "address",
          "name": "account",
          "type": "address"
        }
      ],
      "name": "grantRole",
      "outputs": [],
      "stateMutability": "nonpayable",
      "type": "function"
    },
    {
      "inputs": [
        {
          "internalType": "bytes32",
          "name": "role",
          "type": "bytes32"
        },
        {
          "internalType": "address",
          "name": "account",
          "type": "address"
        }
      ],
      "name": "hasRole",
      "outputs": [
        {
          "internalType": "bool",
          "name": "",
          "type": "bool"
        }
      ],
      "stateMutability": "view",
      "type": "function"
    },
    {
      "inputs": [
        {
          "internalType": "address",
          "name": "admin",
          "type": "address"
        }
      ],
      "name": "initialize",
      "outputs": [],
      "stateMutability": "nonpayable",
      "type": "function"
    },
    {
      "inputs": [],
      "name": "lastDispatchTime",
      "outputs": [
        {
          "internalType": "uint256",
          "name": "",
          "type": "uint256"
        }
      ],
      "stateMutability": "view",
      "type": "function"
    },
    {
      "inputs": [],
      "name": "lastReward",
      "outputs": [
        {
          "internalType": "uint256",
          "name": "",
          "type": "uint256"
        }
      ],
      "stateMutability": "view",
      "type": "function"
    },
    {
      "inputs": [],
      "name": "maxRewardPercent",
      "outputs": [
        {
          "internalType": "uint256",
          "name": "",
          "type": "uint256"
        }
      ],
      "stateMutability": "view",
      "type": "function"
    },
    {
      "inputs": [],
      "name": "pause",
      "outputs": [],
      "stateMutability": "nonpayable",
      "type": "function"
    },
    {
      "inputs": [],
      "name": "paused",
      "outputs": [
        {
          "internalType": "bool",
          "name": "",
          "type": "bool"
        }
      ],
      "stateMutability": "view",
      "type": "function"
    },
    {
      "inputs": [],
      "name": "proxiableUUID",
      "outputs": [
        {
          "internalType": "bytes32",
          "name": "",
          "type": "bytes32"
        }
      ],
      "stateMutability": "view",
      "type": "function"
    },
    {
      "inputs": [
        {
          "internalType": "address[]",
          "name": "users",
          "type": "address[]"
        }
      ],
      "name": "removeEmergencyWithdrawWhitelist",
      "outputs": [],
      "stateMutability": "nonpayable",
      "type": "function"
    },
    {
      "inputs": [
        {
          "internalType": "bytes32",
          "name": "role",
          "type": "bytes32"
        },
        {
          "internalType": "address",
          "name": "callerConfirmation",
          "type": "address"
        }
      ],
      "name": "renounceRole",
      "outputs": [],
      "stateMutability": "nonpayable",
      "type": "function"
    },
    {
      "inputs": [
        {
          "internalType": "uint256",
          "name": "amount",
          "type": "uint256"
        }
      ],
      "name": "requestEmergencyWithdraw",
      "outputs": [],
      "stateMutability": "nonpayable",
      "type": "function"
    },
    {
      "inputs": [
        {
          "internalType": "uint256",
          "name": "amount",
          "type": "uint256"
        }
      ],
      "name": "requestWithdraw",
      "outputs": [],
      "stateMutability": "nonpayable",
      "type": "function"
    },
    {
      "inputs": [],
      "name": "requestWithdrawMaxNo",
      "outputs": [
        {
          "internalType": "uint256",
          "name": "",
          "type": "uint256"
        }
      ],
      "stateMutability": "view",
      "type": "function"
    },
    {
      "inputs": [
        {
          "internalType": "uint256",
          "name": "requestWithdrawNo",
          "type": "uint256"
        }
      ],
      "name": "requestWithdraws",
      "outputs": [
        {
          "components": [
            {
              "internalType": "contract IERC20",
              "name": "withdrawToken",
              "type": "address"
            },
            {
              "internalType": "uint256",
              "name": "withdrawAmount",
              "type": "uint256"
            },
            {
              "internalType": "uint256",
              "name": "receiveAmount",
              "type": "uint256"
            },
            {
              "internalType": "uint256",
              "name": "withdrawTime",
              "type": "uint256"
            },
            {
              "internalType": "uint256",
              "name": "exchangePrice",
              "type": "uint256"
            },
            {
              "internalType": "bool",
              "name": "claimable",
              "type": "bool"
            },
            {
              "internalType": "address",
              "name": "receipt",
              "type": "address"
            },
            {
              "internalType": "bool",
              "name": "emergency",
              "type": "bool"
            }
          ],
          "internalType": "struct IWithdrawable.RequestWithdrawInfo",
          "name": "",
          "type": "tuple"
        }
      ],
      "stateMutability": "view",
      "type": "function"
    },
    {
      "inputs": [
        {
          "internalType": "bytes32",
          "name": "role",
          "type": "bytes32"
        },
        {
          "internalType": "address",
          "name": "account",
          "type": "address"
        }
      ],
      "name": "revokeRole",
      "outputs": [],
      "stateMutability": "nonpayable",
      "type": "function"
    },
    {
      "inputs": [
        {
          "internalType": "bytes4",
          "name": "interfaceId",
          "type": "bytes4"
        }
      ],
      "name": "supportsInterface",
      "outputs": [
        {
          "internalType": "bool",
          "name": "",
          "type": "bool"
        }
      ],
      "stateMutability": "view",
      "type": "function"
    },
    {
      "inputs": [],
      "name": "unpause",
      "outputs": [],
      "stateMutability": "nonpayable",
      "type": "function"
    },
    {
      "inputs": [
        {
          "internalType": "bool",
          "name": "enabled",
          "type": "bool"
        }
      ],
      "name": "updateDepositEnabled",
      "outputs": [],
      "stateMutability": "nonpayable",
      "type": "function"
    },
    {
      "inputs": [
        {
          "internalType": "bool",
          "name": "enabled",
          "type": "bool"
        }
      ],
      "name": "updateEmergencyWithdrawEnabled",
      "outputs": [],
      "stateMutability": "nonpayable",
      "type": "function"
    },
    {
      "inputs": [
        {
          "internalType": "uint256",
          "name": "newValue",
          "type": "uint256"
        }
      ],
      "name": "updateMaxRewardPercent",
      "outputs": [],
      "stateMutability": "nonpayable",
      "type": "function"
    },
    {
      "inputs": [
        {
          "internalType": "bool",
          "name": "enabled",
          "type": "bool"
        }
      ],
      "name": "updateWithdrawEnabled",
      "outputs": [],
      "stateMutability": "nonpayable",
      "type": "function"
    },
    {
      "inputs": [
        {
          "internalType": "address",
          "name": "newImplementation",
          "type": "address"
        },
        {
          "internalType": "bytes",
          "name": "data",
          "type": "bytes"
        }
      ],
      "name": "upgradeToAndCall",
      "outputs": [],
      "stateMutability": "payable",
      "type": "function"
    },
    {
      "inputs": [],
      "name": "withdrawEnabled",
      "outputs": [
        {
          "internalType": "bool",
          "name": "",
          "type": "bool"
        }
      ],
      "stateMutability": "view",
      "type": "function"
    }
  ],
  "transactionHash": "0x3975e07811534c18f4608bcabfe930fdc81f717f5ba49359402152b643a6c386",
  "args": [
    "0xB2c2C14B0f2d45E8f5A8FFC67dB3279769dC6e56",
    "0x28b289AAE276347cb9D32B3e444DBe352166Bc04",
    "0x34d54800D0EB4F656fb6b4A298ADff371323C19d",
    "0xaE1F62f04b5b08D52f8856EE40FAa64321A5c75a",
    300
  ],
  "numDeployments": 1,
  "solcInputHash": "6ab5e98fed71da873ab09594b687967b",
  "bytecode": "0x6101803461035757601f61420238819003918201601f19168301916001600160401b03918284118585101761035c578160a09286926040968752833981010312610357578251926001600160a01b0392838516928386036103575761006660208401610372565b94610072838501610372565b93606081015190828216820361035757608001519582881691306080528260a0528660c05260e0521561030257156102b25783161561025f576101009586526101209485526101409283526101609384527ff0c57e16840df040f15088dc2f81fe391c3923bec73e23a9662efc9c229c6a009081549060ff82851c1661024e57808083160361020a575b5050505192613e7b948561038786396080518581816119240152611a1b015260a051858181610477015281816105200152612700015260c05185818161054b0152818161162201528181611ef701528181611f3301528181612100015261272b015260e05185818161041a015281816104b101528181610bbd0152818161159a0152611e450152518481816108cf01528181611a4e01526122a201525183818161093e01528181610c3201528181610ec8015281816115bd01528181611e6f0152818161311801526132fd01525182818161096101528181610ceb015281816117d20152818161215101528181612b110152613359015251818181612f47015281816131c601526134260152f35b6001600160401b0319909116811790915581519081527fc7f505b2f371ae2175ee4913f4499e1f2633a7b5936321eed1cdaeb6115181d290602090a13880806100fc565b835163f92ee8a960e01b8152600490fd5b815162461bcd60e51b815260206004820152602660248201527f617355534446416464726573732063616e6e6f742062652061207a65726f206160448201526564647265737360d01b6064820152608490fd5b825162461bcd60e51b8152602060048201526024808201527f55534446416464726573732063616e6e6f742062652061207a65726f206164646044820152637265737360e01b6064820152608490fd5b835162461bcd60e51b815260206004820152602860248201527f74696d654c6f636b416464726573732063616e6e6f742062652061207a65726f604482015267206164647265737360c01b6064820152608490fd5b600080fd5b634e487b7160e01b600052604160045260246000fd5b51906001600160a01b03821682036103575756fe608080604052600436101561001357600080fd5b600090813560e01c9081630197d97214612f305750806301ffc9a714612e5b5780630d06f30514612d685780631415400714612bcf578063195ac6db14612b355780631d30e26614612af15780631e6de5d8146129fa5780632287e96a146129b8578063248a9ca31461297e5780632f2ff15d146128e55780633395b75a146128c757806336568abe14612867578063389ed2671461282c5780633a9b0a74146123ca5780633e481ded146123685780633f4ba83a146122c6578063431c1830146122825780634660a19d14611df65780634a0613e314611dd85780634c8439be14611cad5780634f1ef2861461199e57806352d1902d146119095780635747e69f146118c45780635c975abb14611882578063745400c91461154757806375b238fc1461150c5780637bb28d8a146114185780638456cb59146113155780639010d07c146112b157806391d148541461125757806396bc5913146112355780639e65741e1461121a578063a217fddf146111fe578063a320deb61461110d578063a3246ad314611045578063a7d326fb14611022578063ad3cb1cc14610f64578063b150377414610f29578063b22ccd7614610eec578063b249b35d14610ea8578063b6b55f2514610be1578063baaa3ed314610b9d578063c4d66de8146107c1578063c9b17149146107a3578063ca15c8731461075a578063d547741f1461070b578063dedd1a62146106a6578063e7c2a60814610683578063e8884f2b146106485763eb9259ef1461024757600080fd5b346106455760203660031901126106455760043567ffffffffffffffff81116105b157610278903690600401612f6a565b61028061346b565b61028861361e565b6102ba600160ff7f2ff1b357837e9d69e3491be7daa2c5781ef3281ac1f296e048fa14e0918117585416151514613673565b825b8181106102eb578360017f9b779b17422d0df92223018b32b4d1fa46e071723d6817e2486d003becc55f005580f35b6102f6818385613081565b35908185527f2ff1b357837e9d69e3491be7daa2c5781ef3281ac1f296e048fa14e09181175b60205260408520916040519261033184612f9b565b6001600160a01b038154168452600181015460208501526005600282015491826040870152600381015460608701526004810154608087015201549060ff82161515908160a087015260ff60c08701936001600160a01b038160081c16855260a81c16151560e08701521515908161063d575b50156105f9576001600160a01b0333915116036105b5578086527f2ff1b357837e9d69e3491be7daa2c5781ef3281ac1f296e048fa14e09181175b602052856005604082208281556000600182015560006002820155600060038201556000600482015501558560408401516001600160a01b037f0000000000000000000000000000000000000000000000000000000000000000163b156105b157604051907fbeabacc80000000000000000000000000000000000000000000000000000000082523360048301526001600160a01b037f000000000000000000000000000000000000000000000000000000000000000016602483015260448201528181606481836001600160a01b037f0000000000000000000000000000000000000000000000000000000000000000165af180156105a65761058e575b505082604060206001950151910151907fb143cbc1b45edd3fe39b60a0bb8aafb1e1d42da89e96e1aff4449ebdc37e48f2604051806105856001600160a01b037f000000000000000000000000000000000000000000000000000000000000000016966001600160a01b037f000000000000000000000000000000000000000000000000000000000000000016963396846040919493926060820195825260208201520152565b0390a4016102bc565b61059790612fb8565b6105a25785386104de565b8580fd5b6040513d84823e3d90fd5b5080fd5b606460405162461bcd60e51b815260206004820152600e60248201527f696c6c6567616c2073656e6465720000000000000000000000000000000000006044820152fd5b606460405162461bcd60e51b815260206004820152600d60248201527f6e6f7420617661696c61626c65000000000000000000000000000000000000006044820152fd5b9050386103a4565b80fd5b503461064557806003193601126106455760206040517fc002a6b5f9f56101ba6339b1b95d171fadf6e41e005b91c80d686aef7516e7598152f35b5034610645578060031936011261064557602061069e613418565b604051908152f35b503461064557602036600319011261064557602060ff6106ff6106c7613004565b6001600160a01b03166000527f2ff1b357837e9d69e3491be7daa2c5781ef3281ac1f296e048fa14e09181175a602052604060002090565b54166040519015158152f35b50346106455760403660031901126106455761075660043561072b612fee565b90808452600080516020613e268339815191526020526107516001604086200154613521565b6135c5565b5080f35b503461064557602036600319011261064557604060209160043581527fc1f6fe24621ce81ec5827caf0253cadb74709b061630e6b55e8237170593200083522054604051908152f35b50346106455780600319360112610645576020600254604051908152f35b5034610645576020806003193601126105b1576107dc613004565b907ff0c57e16840df040f15088dc2f81fe391c3923bec73e23a9662efc9c229c6a0091825460ff8160401c16159167ffffffffffffffff821680159081610b95575b6001149081610b8b575b159081610b82575b50610b5857600191838367ffffffffffffffff198316178755610b39575b50610857613bbf565b61085f613bbf565b60ff19907fcd5ed15c6e187e77e9aee88184c21f4f2182ab5827cb3b7e07fbedcd63f03300828154169055610892613bbf565b61089a613bbf565b6108a2613bbf565b6108aa613bbf565b827f9b779b17422d0df92223018b32b4d1fa46e071723d6817e2486d003becc55f00557f00000000000000000000000000000000000000000000000000000000000000006108f78161387d565b610af5575b506109068161387d565b610ab2575b6109148161391d565b610a4f575b610922816139df565b6109eb575b508554161784556001600160a01b039060405191807f000000000000000000000000000000000000000000000000000000000000000016907f0000000000000000000000000000000000000000000000000000000000000000167fdbf34b45b47a653cf4940cccbec765f72d4d63de3237306905bfc0ee288323628780a36109ad578380f35b7fc7f505b2f371ae2175ee4913f4499e1f2633a7b5936321eed1cdaeb6115181d29268ff000000000000000019815416905560018152a13880808380f35b7f139c2898040ef16910dc9f44dc697df79363da767d8bc92f2e310312b816e46d87527fc1f6fe24621ce81ec5827caf0253cadb74709b061630e6b55e82371705932000855260408720610a48916001600160a01b031690613c18565b5038610927565b7fa49807205ce4d355092ef5a8a18f56e8913cf4a201fbe287825b095693c2177587527fc1f6fe24621ce81ec5827caf0253cadb74709b061630e6b55e823717059320008552610aac604088206001600160a01b03831690613c18565b50610919565b8680527fc1f6fe24621ce81ec5827caf0253cadb74709b061630e6b55e823717059320008552610aef604088206001600160a01b03831690613c18565b5061090b565b8780527fc1f6fe24621ce81ec5827caf0253cadb74709b061630e6b55e82371705932000865260408820610b32916001600160a01b031690613c18565b50386108fc565b68ffffffffffffffffff1916680100000000000000011785553861084e565b60046040517ff92ee8a9000000000000000000000000000000000000000000000000000000008152fd5b90501538610830565b303b159150610828565b84915061081e565b503461064557806003193601126106455760206040516001600160a01b037f0000000000000000000000000000000000000000000000000000000000000000168152f35b5034610645576020806003193601126105b15760043590610c0061346b565b610c0861361e565b60ff83541615610e6457610c1d821515613718565b610c256132d7565b916001600160a01b0390817f00000000000000000000000000000000000000000000000000000000000000001692604051906370a0823160e01b928383523060048401528183602481895afa928315610e59578893610e28575b50610c8c90303388613554565b6040519283523060048401528083602481885afa908115610e1d578791610de8575b50610cb992506132ca565b90670de0b6b3a7640000808302908382041483151715610dd45784610cdd916130e2565b90610ce9821515613718565b7f00000000000000000000000000000000000000000000000000000000000000001693843b156105a2576040517f40c10f190000000000000000000000000000000000000000000000000000000081523360048201526024810183905286908181604481838b5af180156105a657610dc0575b50506040805193845260208401929092529082015233907fc161cafde4f1ca20584d73742a7353f00b052c7c0ab7626baec68fbf35ac11be90606090a460017f9b779b17422d0df92223018b32b4d1fa46e071723d6817e2486d003becc55f005580f35b610dc990612fb8565b6105a2578538610d5c565b602486634e487b7160e01b81526011600452fd5b905082813d8311610e16575b610dfe8183612fcc565b81010312610e1157610cb9915138610cae565b600080fd5b503d610df4565b6040513d89823e3d90fd5b9092508181813d8311610e52575b610e408183612fcc565b81010312610e11575191610c8c610c7f565b503d610e36565b6040513d8a823e3d90fd5b6064906040519062461bcd60e51b82526004820152601160248201527f4465706f736974206973207061757365640000000000000000000000000000006044820152fd5b503461064557806003193601126106455760206040516001600160a01b037f0000000000000000000000000000000000000000000000000000000000000000168152f35b503461064557806003193601126106455760207f2ff1b357837e9d69e3491be7daa2c5781ef3281ac1f296e048fa14e09181175954604051908152f35b503461064557806003193601126106455760206040517f6d5c9827c1f410bbb61d3b2a0a34b6b30492d9a1fd38588edca7ec4562ab9c9b8152f35b50346106455780600319360112610645576040516040810181811067ffffffffffffffff82111761100c57604052600581526020917f352e302e30000000000000000000000000000000000000000000000000000000602083015260405192839160208352835191826020850152815b838110610ff557505060408094508284010152601f80199101168101030190f35b808601820151878201604001528694508101610fd4565b634e487b7160e01b600052604160045260246000fd5b50346106455780600319360112610645576020604051670de0b6b3a76400008152f35b5034610645576020806003193601126105b15760043582527fc1f6fe24621ce81ec5827caf0253cadb74709b061630e6b55e8237170593200081526040822060405192838383549182815201908193835284832090835b8181106110f957505050846110b2910385612fcc565b60405193838594850191818652518092526040850193925b8281106110d957505050500390f35b83516001600160a01b0316855286955093810193928101926001016110ca565b82548452928601926001928301920161109c565b5034610645576020366003190112610645576004358015158091036105b1576111346134c5565b815460ff81169082821515146111945760ff9290921660ff1983168117845560408051921515835292841617151560208201527f11596116fe04bc87946f37a435f742833f39cd10dc1ccc40c9eae5a5da46d8ef91819081015b0390a180f35b608460405162461bcd60e51b815260206004820152603c60248201527f6e6577555344464465706f736974456e61626c65642063616e206e6f7420626560448201527f20657175616c206f6c64555344464465706f736974456e61626c6564000000006064820152fd5b5034610645578060031936011261064557602090604051908152f35b5034610645578060031936011261064557602061069e6132d7565b503461064557806003193601126106455760ff60209154166040519015158152f35b5034610645576040366003190112610645576001600160a01b03604061127b612fee565b926004358152600080516020613e26833981519152602052209116600052602052602060ff604060002054166040519015158152f35b5034610645576040366003190112610645576001600160a01b0361130560209260043581527fc1f6fe24621ce81ec5827caf0253cadb74709b061630e6b55e82371705932000845260406024359120613ba7565b9190546040519260031b1c168152f35b50346106455780600319360112610645573360009081527f85aa68ae9688c2bba3dc27a57a38bf2786c03751927fe89ecfd8b396d55ff13360205260409020547f139c2898040ef16910dc9f44dc697df79363da767d8bc92f2e310312b816e46d9060ff16156113e1575061138861361e565b7fcd5ed15c6e187e77e9aee88184c21f4f2182ab5827cb3b7e07fbedcd63f03300600160ff198254161790557f62e78cea01bee320cd4e420270b5ea74000d11b0c9f74754ebdbfc544b05a2586020604051338152a180f35b604490604051907fe2517d3f0000000000000000000000000000000000000000000000000000000082523360048301526024820152fd5b50346106455760203660031901126106455760043580151590818103611508577f935169502e37bf7086b6a43f94f9b855ee8320b72962953cd0de3aff900f6d75917fa49807205ce4d355092ef5a8a18f56e8913cf4a201fbe287825b095693c217758452600080516020613e2683398151915260205260408420336000526020526114ab60ff60406000205416613036565b7f2ff1b357837e9d69e3491be7daa2c5781ef3281ac1f296e048fa14e091811758805460ff808216936114e281861515141561327f565b60ff1990921691161790556040805191151582529115156020820152908190810161118e565b8280fd5b503461064557806003193601126106455760206040517fa49807205ce4d355092ef5a8a18f56e8913cf4a201fbe287825b095693c217758152f35b50346106455760203660031901126106455760043561156461346b565b61156c61361e565b6115746132d7565b90670de0b6b3a764000061158883836130cf565b04916001600160a01b03906115e284837f000000000000000000000000000000000000000000000000000000000000000016847f0000000000000000000000000000000000000000000000000000000000000000166136be565b611614600160ff7f2ff1b357837e9d69e3491be7daa2c5781ef3281ac1f296e048fa14e0918117585416151514613673565b61161f831515613718565b817f0000000000000000000000000000000000000000000000000000000000000000169061164f84303385613554565b60405161165b81612f9b565b828152602081019085825260408101968752606081014281526080820193845260a08201926000845260c083019133835260e0840193600085527f2ff1b357837e9d69e3491be7daa2c5781ef3281ac1f296e048fa14e091811759968754926001840180941161186c578d9c61174c95856005968c556000527f2ff1b357837e9d69e3491be7daa2c5781ef3281ac1f296e048fa14e09181175b6020528c604060002095511673ffffffffffffffffffffffffffffffffffffffff198654161785555160018501555160028401555160038301555160048201550193511515849060ff801983541691151516179055565b519075ffffffffffffffffffffffffffffffffffffffffff001974ffffffffffffffffffffffffffffffffffffffff0060ff60a81b85549351151560a81b169360081b1691161717905554604051908482526020820152600060408201527f3d049c685010061396ccb788b984289782a932f0fcf3321a0dccde30f43f3cd160603392a37f000000000000000000000000000000000000000000000000000000000000000016803b1561186857604051632770a7eb60e21b8152306004820152602481019290925282908290604490829084905af180156105a657611854575b5060017f9b779b17422d0df92223018b32b4d1fa46e071723d6817e2486d003becc55f005580f35b61185d90612fb8565b61064557803861182c565b5050fd5b634e487b7160e01b600052601160045260246000fd5b5034610645578060031936011261064557602060ff7fcd5ed15c6e187e77e9aee88184c21f4f2182ab5827cb3b7e07fbedcd63f0330054166040519015158152f35b5034610645578060031936011261064557602060ff7f2ff1b357837e9d69e3491be7daa2c5781ef3281ac1f296e048fa14e0918117585460081c166040519015158152f35b50346106455780600319360112610645576001600160a01b037f00000000000000000000000000000000000000000000000000000000000000001630036119745760206040517f360894a13ba1a3210667c828492db98dca3e2076cc3735a920a3ca505d382bbc8152f35b60046040517fe07c8dba000000000000000000000000000000000000000000000000000000008152fd5b506040366003190112610645576119b3613004565b602491823567ffffffffffffffff81116105b157366023820112156105b15780600401356119e08161301a565b936119ee6040519586612fcc565b81855260209182860193368883830101116105a257818692898693018737870101526001600160a01b03807f000000000000000000000000000000000000000000000000000000000000000016803014908115611c7f575b5061197457807f0000000000000000000000000000000000000000000000000000000000000000163303611c3c578116946040517f52d1902d00000000000000000000000000000000000000000000000000000000815283816004818a5afa869181611c09575b50611ac957878760405190634c9c8ce360e01b82526004820152fd5b8690887f360894a13ba1a3210667c828492db98dca3e2076cc3735a920a3ca505d382bbc91828103611bdb5750843b15611bc55750805473ffffffffffffffffffffffffffffffffffffffff1916821790556040518692917fbc7cd75a20ee27fd9adebab32041f755214dbc6bffa90cc0225b39da2e5c2d3b8480a2815115611b8e57506107569482915190845af4903d15611b85573d611b698161301a565b90611b776040519283612fcc565b81528581943d92013e613d92565b60609250613d92565b94505050505034611b9d575080f35b807fb398979f0000000000000000000000000000000000000000000000000000000060049252fd5b8260405190634c9c8ce360e01b82526004820152fd5b604051907faa1d49a40000000000000000000000000000000000000000000000000000000082526004820152fd5b9091508481813d8311611c35575b611c218183612fcc565b81010312611c3157519038611aad565b8680fd5b503d611c17565b606483600e896040519262461bcd60e51b845260048401528201527f6f6e6c792074696d65206c6f636b0000000000000000000000000000000000006044820152fd5b9050817f360894a13ba1a3210667c828492db98dca3e2076cc3735a920a3ca505d382bbc5416141538611a46565b5034610645576020366003190112610645576040816101009260e08351611cd381612f9b565b82815282602082015282858201528260608201528260808201528260a08201528260c0820152015260043581527f2ff1b357837e9d69e3491be7daa2c5781ef3281ac1f296e048fa14e09181175b6020522060405190611d3282612f9b565b6001600160a01b0380825416928381526001830154602082019081526002840154936040830194855260038101546060840190815260056004830154926080860193845201549560a085019360ff88161515855260ff60e060c0880197898b60081c168952019860a81c161515885260405198895251602089015251604088015251606087015251608086015251151560a0850152511660c083015251151560e0820152f35b50346106455780600319360112610645576020600154604051908152f35b503461064557602036600319011261064557611e1061346b565b611e1861361e565b611e206132d7565b670de0b6b3a7640000611e35826004356130cf565b0490611e94826001600160a01b037f0000000000000000000000000000000000000000000000000000000000000000166001600160a01b037f0000000000000000000000000000000000000000000000000000000000000000166136be565b60ff7f2ff1b357837e9d69e3491be7daa2c5781ef3281ac1f296e048fa14e09181175854611ec86001838316151514613673565b611ed56004351515613718565b60081c16801561223c575b156121f857611f1c60043530336001600160a01b037f000000000000000000000000000000000000000000000000000000000000000016613554565b60405191611f2983612f9b565b6001600160a01b037f00000000000000000000000000000000000000000000000000000000000000001683526004356020840152604083015242606083015260808201528160a08201523360c0820152600160e08201527f2ff1b357837e9d69e3491be7daa2c5781ef3281ac1f296e048fa14e091811759546001810181116121e4578060018092017f2ff1b357837e9d69e3491be7daa2c5781ef3281ac1f296e048fa14e091811759550182527f2ff1b357837e9d69e3491be7daa2c5781ef3281ac1f296e048fa14e09181175b6020526005604083206001600160a01b0383511673ffffffffffffffffffffffffffffffffffffffff1982541617815560208301516001820155604083015160028201556060830151600382015560808301516004820155019061206e60a08201511515839060ff801983541691151516179055565b60c08101519075ffffffffffffffffffffffffffffffffffffffffff001974ffffffffffffffffffffffffffffffffffffffff0060ff60a81b60e08654940151151560a81b169360081b169116171790557f2ff1b357837e9d69e3491be7daa2c5781ef3281ac1f296e048fa14e091811759546040519060043582526020820152600160408201526001600160a01b037f000000000000000000000000000000000000000000000000000000000000000016907f3d049c685010061396ccb788b984289782a932f0fcf3321a0dccde30f43f3cd160603392a36001600160a01b037f000000000000000000000000000000000000000000000000000000000000000016803b156105b157604051632770a7eb60e21b8152306004808301919091523560248201529082908290604490829084905af180156105a6576121d5575060017f9b779b17422d0df92223018b32b4d1fa46e071723d6817e2486d003becc55f005580f35b6121de90612fb8565b3861182c565b602483634e487b7160e01b81526011600452fd5b606460405162461bcd60e51b815260206004820152601e60248201527f6e6f7420737570706f727420656d657267656e637920776974686472617700006044820152fd5b5060ff61227b336001600160a01b03166000527f2ff1b357837e9d69e3491be7daa2c5781ef3281ac1f296e048fa14e09181175a602052604060002090565b5416611ee0565b503461064557806003193601126106455760206040516001600160a01b037f0000000000000000000000000000000000000000000000000000000000000000168152f35b50346106455780600319360112610645576122df6134c5565b7fcd5ed15c6e187e77e9aee88184c21f4f2182ab5827cb3b7e07fbedcd63f03300805460ff81161561233e5760ff191690557f5db9ee0a495bf2e6ff9c91a7834c1ba4fdd244a5e8aa4e537bd38aeae4b073aa6020604051338152a180f35b60046040517f8dfc202b000000000000000000000000000000000000000000000000000000008152fd5b5034610645576020366003190112610645577fb94ac7ee94c43a58f9ac0bd9d20de2e3dfda21d73874075aa7f2137cff4cd75e60406004356123a86134c5565b600354906123b88183141561327f565b8060035582519182526020820152a180f35b50346106455760203660031901126106455767ffffffffffffffff80600435116105b1573660236004350112156105b157600435600401351161064557366024606060043560040135026004350101116106455761242661346b565b61242e61361e565b7f6d5c9827c1f410bbb61d3b2a0a34b6b30492d9a1fd38588edca7ec4562ab9c9b808252600080516020613e268339815191526020526040822033835260205260ff604083205416156113e157506124ae600160ff7f2ff1b357837e9d69e3491be7daa2c5781ef3281ac1f296e048fa14e0918117585416151514613673565b805b6004356004013581106124e5575060017f9b779b17422d0df92223018b32b4d1fa46e071723d6817e2486d003becc55f005580f35b60446060820260043501013582527f2ff1b357837e9d69e3491be7daa2c5781ef3281ac1f296e048fa14e09181175b60205260408220906040519161252983612f9b565b60056001600160a01b03825416918285526001810154602086015260028101546040860152600381015460608601526004810154608086015201549060ff8216151560a08501526001600160a01b038260081c1660c085015260ff8260a81c16151560e08501526024606084026004350101356001600160a01b03811681036105a2576001600160a01b0316149081612801575b50156127bd5760a08201516127795781600160a08194015260446060830260043501013584527f2ff1b357837e9d69e3491be7daa2c5781ef3281ac1f296e048fa14e09181175b602052604084206001600160a01b0382511673ffffffffffffffffffffffffffffffffffffffff19825416178155602082015191828583015560056040820151928360028201556060830151600382015560808301516004820155019061267d60a08201511515839060ff801983541691151516179055565b60c08101519075ffffffffffffffffffffffffffffffffffffffffff001974ffffffffffffffffffffffffffffffffffffffff0060ff60a81b60e08654940151151560a81b169360081b169116171790557f051fd1ff7b2b4fc684c771fea49f105616b277782f1b76f0dfb7aeba85322699604051806127706001600160a01b037f000000000000000000000000000000000000000000000000000000000000000016956001600160a01b037f00000000000000000000000000000000000000000000000000000000000000001695604460608a0260043501013591846040919493926060820195825260208201520152565b0390a3016124b0565b606460405162461bcd60e51b815260206004820152601260248201527f616c7265616479206469737472696275746500000000000000000000000000006044820152fd5b606460405162461bcd60e51b815260206004820152601160248201527f756e6d61746368656420726571756573740000000000000000000000000000006044820152fd5b90506001600160a01b038061281f60646060860260043501016130a7565b169160081c1614386125bd565b503461064557806003193601126106455760206040517f139c2898040ef16910dc9f44dc697df79363da767d8bc92f2e310312b816e46d8152f35b503461064557604036600319011261064557612881612fee565b336001600160a01b0382160361289d57610756906004356135c5565b60046040517f6697b232000000000000000000000000000000000000000000000000000000008152fd5b50346106455780600319360112610645576020600354604051908152f35b503461064557604036600319011261064557600435612902612fee565b818352600080516020613e268339815191526020526129276001604085200154613521565b6129318183613a9b565b612939578280f35b6129779183527fc1f6fe24621ce81ec5827caf0253cadb74709b061630e6b55e823717059320006020526001600160a01b0360408420911690613c18565b5038808280f35b503461064557602036600319011261064557600160406020926004358152600080516020613e268339815191528452200154604051908152f35b5034610645578060031936011261064557602060ff7f2ff1b357837e9d69e3491be7daa2c5781ef3281ac1f296e048fa14e09181175854166040519015158152f35b50346106455760203660031901126106455760043580151590818103611508577fbb4879b588c051d62e1c2d8df192de7452776a5e87bf175cb6e0e79309314e8a917fa49807205ce4d355092ef5a8a18f56e8913cf4a201fbe287825b095693c217758452600080516020613e2683398151915260205260408420338552602052612a8b60ff604086205416613036565b7f2ff1b357837e9d69e3491be7daa2c5781ef3281ac1f296e048fa14e091811758805461ff0060ff8260081c1693612ac781861515141561327f565b60081b1661ff0019919091161790556040805191151582529115156020820152908190810161118e565b503461064557806003193601126106455760206040516001600160a01b037f0000000000000000000000000000000000000000000000000000000000000000168152f35b503461064557602036600319011261064557612b4f61346b565b7fc002a6b5f9f56101ba6339b1b95d171fadf6e41e005b91c80d686aef7516e759808252600080516020613e268339815191526020526040822033835260205260ff604083205416156113e15750612ba8600435613102565b60017f9b779b17422d0df92223018b32b4d1fa46e071723d6817e2486d003becc55f005580f35b5034610645576020806003193601126105b15767ffffffffffffffff90600435828111612d645736602382011215612d64578060040135928311612d50578260051b60405193612c2184830186612fcc565b8452602483850191830101913683116105a257602401905b828210612d31575050507fa49807205ce4d355092ef5a8a18f56e8913cf4a201fbe287825b095693c217758352600080516020613e268339815191528152604083209033845252612c9060ff604084205416613036565b815b8151811015612d2d576001906001600160a01b03612cee81612cb484876130bb565b51166001600160a01b03166000527f2ff1b357837e9d69e3491be7daa2c5781ef3281ac1f296e048fa14e09181175a602052604060002090565b805460ff19169055612d0082856130bb565b5116337f5b1784984bd66cc966c7a762a50272b4c9a6636352d697cbd8cd78cbe5130dad8680a301612c92565b8280f35b81356001600160a01b0381168103611c31578152908301908301612c39565b602484634e487b7160e01b81526041600452fd5b8380fd5b50346106455760203660031901126106455760043567ffffffffffffffff81116105b157612d9a903690600401612f6a565b7fa49807205ce4d355092ef5a8a18f56e8913cf4a201fbe287825b095693c217758352600080516020613e2683398151915260205260408320338452602052612de960ff604085205416613036565b825b818110612df6578380f35b80612e0f6106c7612e0a6001948688613081565b6130a7565b805460ff1916831790556001600160a01b03612e2f612e0a838688613081565b16337fe912795a13342c21b46ca582ea76273fb5d5e221ebe09b49094f8a380e26042c8780a301612deb565b5034610645576020366003190112610645576004357fffffffff0000000000000000000000000000000000000000000000000000000081168091036105b157807f5a05180f0000000000000000000000000000000000000000000000000000000060209214908115612ed3575b506040519015158152f35b7f7965db0b00000000000000000000000000000000000000000000000000000000811491508115612f06575b5082612ec8565b7f01ffc9a70000000000000000000000000000000000000000000000000000000091501482612eff565b9050346105b157816003193601126105b1576020907f00000000000000000000000000000000000000000000000000000000000000008152f35b9181601f84011215610e115782359167ffffffffffffffff8311610e11576020808501948460051b010111610e1157565b610100810190811067ffffffffffffffff82111761100c57604052565b67ffffffffffffffff811161100c57604052565b90601f8019910116810190811067ffffffffffffffff82111761100c57604052565b602435906001600160a01b0382168203610e1157565b600435906001600160a01b0382168203610e1157565b67ffffffffffffffff811161100c57601f01601f191660200190565b1561303d57565b606460405162461bcd60e51b815260206004820152600a60248201527f6f6e6c792061646d696e000000000000000000000000000000000000000000006044820152fd5b91908110156130915760051b0190565b634e487b7160e01b600052603260045260246000fd5b356001600160a01b0381168103610e115790565b80518210156130915760209160051b010190565b8181029291811591840414171561186c57565b81156130ec570490565b634e487b7160e01b600052601260045260246000fd5b61310a613418565b61327c576001600160a01b037f0000000000000000000000000000000000000000000000000000000000000000166040516318160ddd60e01b8152602081600481855afa9081156132705760009161323c575b50613174670de0b6b3a764000091600354906130cf565b0482116131f857816131b27f788448e32ff4408de40ea93cdb828754d4033100f53ea9b8a04fb45f5cdfca03936131f3934260015530903390613554565b6002819055604080519182524260208301527f0000000000000000000000000000000000000000000000000000000000000000908201529081906060820190565b0390a1565b606460405162461bcd60e51b815260206004820152600860248201527f746f6f206d7563680000000000000000000000000000000000000000000000006044820152fd5b90506020813d602011613268575b8161325760209383612fcc565b81010312610e11575161317461315d565b3d915061324a565b6040513d6000823e3d90fd5b50565b1561328657565b606460405162461bcd60e51b815260206004820152600b60248201527f616c7265616479207365740000000000000000000000000000000000000000006044820152fd5b9190820391821161186c57565b6001600160a01b036040516370a0823160e01b81523060048201526020908181602481867f0000000000000000000000000000000000000000000000000000000000000000165afa9081156132705782906000926133e9575b5061334560049261333f613418565b906132ca565b93604051928380926318160ddd60e01b82527f0000000000000000000000000000000000000000000000000000000000000000165afa918215613270576000926133bb575b5050801580156133b3575b6133a5576133a291613763565b90565b5050670de0b6b3a764000090565b508115613395565b90809250813d83116133e2575b6133d28183612fcc565b81010312610e115751388061338a565b503d6133c8565b809250813d8311613411575b6133ff8183612fcc565b81010312610e11575181613345613330565b503d6133f5565b613424600154426132ca565b7f0000000000000000000000000000000000000000000000000000000000000000808210156134645761345f6133a2926002549083036130cf565b6130e2565b5050600090565b7f9b779b17422d0df92223018b32b4d1fa46e071723d6817e2486d003becc55f00600281541461349b5760029055565b60046040517f3ee5aeb5000000000000000000000000000000000000000000000000000000008152fd5b3360009081527fb16e88c42fd4e48df2dd6a2eabd6bc9aec654ec170056b470819f8892cc6431c60205260409020547fa49807205ce4d355092ef5a8a18f56e8913cf4a201fbe287825b095693c217759060ff16156113e15750565b80600052600080516020613e2683398151915260205260406000203360005260205260ff60406000205416156113e15750565b9290604051927f23b872dd0000000000000000000000000000000000000000000000000000000060208501526001600160a01b03809216602485015216604483015260648201526064815260a081019181831067ffffffffffffffff84111761100c576135c392604052613809565b565b6135cf8282613b23565b91826135da57505090565b61361a916000527fc1f6fe24621ce81ec5827caf0253cadb74709b061630e6b55e823717059320006020526001600160a01b036040600020911690613ca2565b5090565b60ff7fcd5ed15c6e187e77e9aee88184c21f4f2182ab5827cb3b7e07fbedcd63f03300541661364957565b60046040517fd93c0665000000000000000000000000000000000000000000000000000000008152fd5b1561367a57565b606460405162461bcd60e51b815260206004820152600f60248201527f77697468647261772070617573656400000000000000000000000000000000006044820152fd5b6040517fa9059cbb0000000000000000000000000000000000000000000000000000000060208201526001600160a01b039290921660248301526044808301939093529181526135c391613713606483612fcc565b613809565b1561371f57565b606460405162461bcd60e51b815260206004820152600e60248201527f696e76616c696420616d6f756e740000000000000000000000000000000000006044820152fd5b90670de0b6b3a76400008083029190600019818509938380861095039480860395146137fc57848311156137e3579082910981600003821680920460028082600302188083028203028083028203028083028203028083028203028083028203028092029003029360018380600003040190848311900302920304170290565b82634e487b71600052156003026011186020526024601cfd5b5050906133a292506130e2565b906000602091828151910182855af115613270576000513d61387457506001600160a01b0381163b155b61383a5750565b6024906001600160a01b03604051917f5274afe7000000000000000000000000000000000000000000000000000000008352166004820152fd5b60011415613833565b6001600160a01b031660008181527fb7db2dd08fcb62d0c9e08c51941cae53c267786a0b75803fb7960902fc8ef97d6020526040812054909190600080516020613e268339815191529060ff16613918578280526020526040822081835260205260408220600160ff1982541617905533917f2f8788117e7eff1d82e926ec794901d17c78024a50270940304540a733656f0d8180a4600190565b505090565b6001600160a01b031660008181527fb16e88c42fd4e48df2dd6a2eabd6bc9aec654ec170056b470819f8892cc6431c60205260408120549091907fa49807205ce4d355092ef5a8a18f56e8913cf4a201fbe287825b095693c2177590600080516020613e268339815191529060ff166139d9578184526020526040832082845260205260408320600160ff198254161790557f2f8788117e7eff1d82e926ec794901d17c78024a50270940304540a733656f0d339380a4600190565b50505090565b6001600160a01b031660008181527f85aa68ae9688c2bba3dc27a57a38bf2786c03751927fe89ecfd8b396d55ff13360205260408120549091907f139c2898040ef16910dc9f44dc697df79363da767d8bc92f2e310312b816e46d90600080516020613e268339815191529060ff166139d9578184526020526040832082845260205260408320600160ff198254161790557f2f8788117e7eff1d82e926ec794901d17c78024a50270940304540a733656f0d339380a4600190565b90600091808352600080516020613e26833981519152806020526001600160a01b036040852093169283855260205260ff604085205416156000146139d9578184526020526040832082845260205260408320600160ff198254161790557f2f8788117e7eff1d82e926ec794901d17c78024a50270940304540a733656f0d339380a4600190565b90600091808352600080516020613e26833981519152806020526001600160a01b036040852093169283855260205260ff6040852054166000146139d957818452602052604083208284526020526040832060ff1981541690557ff6391f5c32d9c69d2a47ea670b442974b53935d1edc7fd64eb21e047a839171b339380a4600190565b80548210156130915760005260206000200190600090565b60ff7ff0c57e16840df040f15088dc2f81fe391c3923bec73e23a9662efc9c229c6a005460401c1615613bee57565b60046040517fd7e6bcf8000000000000000000000000000000000000000000000000000000008152fd5b91906001830160009082825280602052604082205415600014613c9c5784549468010000000000000000861015613c885783613c78613c61886001604098999a01855584613ba7565b819391549060031b91821b91600019901b19161790565b9055549382526020522055600190565b602483634e487b7160e01b81526041600452fd5b50925050565b90600182019060009281845282602052604084205490811515600014613d8b5760001991808301818111613d7757825490848201918211613d6357818103613d2e575b50505080548015613d1a57820191613cfd8383613ba7565b909182549160031b1b191690555582526020526040812055600190565b602486634e487b7160e01b81526031600452fd5b613d4e613d3e613c619386613ba7565b90549060031b1c92839286613ba7565b90558652846020526040862055388080613ce5565b602488634e487b7160e01b81526011600452fd5b602487634e487b7160e01b81526011600452fd5b5050505090565b90613dd15750805115613da757805190602001fd5b60046040517fd6bda275000000000000000000000000000000000000000000000000000000008152fd5b81511580613e1c575b613de2575090565b6024906001600160a01b03604051917f9996b315000000000000000000000000000000000000000000000000000000008352166004820152fd5b50803b15613dda56fe02dd7bc7dec4dceedda775e58dd541e08a116c6c53815c0bd028192f7b626800a2646970667358221220f7a39b45b3f2404f134572d6cbf55e2b2bc9ed50074c61bac95e6b25a1d5f2b664736f6c63430008190033",
  "devdoc": {
    "errors": {
      "AccessControlBadConfirmation()": [
        {
          "details": "The caller of a function is not the expected one. NOTE: Don't confuse with {AccessControlUnauthorizedAccount}."
        }
      ],
      "AccessControlUnauthorizedAccount(address,bytes32)": [
        {
          "details": "The `account` is missing a role."
        }
      ],
      "AddressEmptyCode(address)": [
        {
          "details": "There's no code at `target` (it is not a contract)."
        }
      ],
      "ERC1967InvalidImplementation(address)": [
        {
          "details": "The `implementation` of the proxy is invalid."
        }
      ],
      "ERC1967NonPayable()": [
        {
          "details": "An upgrade function sees `msg.value > 0` that may be lost."
        }
      ],
      "EnforcedPause()": [
        {
          "details": "The operation failed because the contract is paused."
        }
      ],
      "ExpectedPause()": [
        {
          "details": "The operation failed because the contract is not paused."
        }
      ],
      "FailedCall()": [
        {
          "details": "A call to an address target failed. The target may have reverted."
        }
      ],
      "InvalidInitialization()": [
        {
          "details": "The contract is already initialized."
        }
      ],
      "NotInitializing()": [
        {
          "details": "The contract is not initializing."
        }
      ],
      "ReentrancyGuardReentrantCall()": [
        {
          "details": "Unauthorized reentrant call."
        }
      ],
      "SafeERC20FailedOperation(address)": [
        {
          "details": "An operation with an ERC-20 token failed."
        }
      ],
      "UUPSUnauthorizedCallContext()": [
        {
          "details": "The call is from an unauthorized context."
        }
      ],
      "UUPSUnsupportedProxiableUUID(bytes32)": [
        {
          "details": "The storage `slot` is unsupported as a UUID."
        }
      ]
    },
    "events": {
      "Initialized(uint64)": {
        "details": "Triggered when the contract has been initialized or reinitialized."
      },
      "Paused(address)": {
        "details": "Emitted when the pause is triggered by `account`."
      },
      "RoleAdminChanged(bytes32,bytes32,bytes32)": {
        "details": "Emitted when `newAdminRole` is set as ``role``'s admin role, replacing `previousAdminRole` `DEFAULT_ADMIN_ROLE` is the starting admin for all roles, despite {RoleAdminChanged} not being emitted signaling this."
      },
      "RoleGranted(bytes32,address,address)": {
        "details": "Emitted when `account` is granted `role`. `sender` is the account that originated the contract call. This account bears the admin role (for the granted role). Expected in cases where the role was granted using the internal {AccessControl-_grantRole}."
      },
      "RoleRevoked(bytes32,address,address)": {
        "details": "Emitted when `account` is revoked `role`. `sender` is the account that originated the contract call:   - if using `revokeRole`, it is the admin role bearer   - if using `renounceRole`, it is the role bearer (i.e. `account`)"
      },
      "Unpaused(address)": {
        "details": "Emitted when the pause is lifted by `account`."
      },
      "Upgraded(address)": {
        "details": "Emitted when the implementation is upgraded."
      }
    },
    "kind": "dev",
    "methods": {
      "getRoleAdmin(bytes32)": {
        "details": "Returns the admin role that controls `role`. See {grantRole} and {revokeRole}. To change a role's admin, use {_setRoleAdmin}."
      },
      "getRoleMember(bytes32,uint256)": {
        "details": "Returns one of the accounts that have `role`. `index` must be a value between 0 and {getRoleMemberCount}, non-inclusive. Role bearers are not sorted in any particular way, and their ordering may change at any point. WARNING: When using {getRoleMember} and {getRoleMemberCount}, make sure you perform all queries on the same block. See the following https://forum.openzeppelin.com/t/iterating-over-elements-on-enumerableset-in-openzeppelin-contracts/2296[forum post] for more information."
      },
      "getRoleMemberCount(bytes32)": {
        "details": "Returns the number of accounts that have `role`. Can be used together with {getRoleMember} to enumerate all bearers of a role."
      },
      "getRoleMembers(bytes32)": {
        "details": "Return all accounts that have `role` WARNING: This operation will copy the entire storage to memory, which can be quite expensive. This is designed to mostly be used by view accessors that are queried without any gas fees. Developers should keep in mind that this function has an unbounded cost, and using it as part of a state-changing function may render the function uncallable if the set grows to a point where copying to memory consumes too much gas to fit in a block."
      },
      "grantRole(bytes32,address)": {
        "details": "Grants `role` to `account`. If `account` had not been already granted `role`, emits a {RoleGranted} event. Requirements: - the caller must have ``role``'s admin role. May emit a {RoleGranted} event."
      },
      "hasRole(bytes32,address)": {
        "details": "Returns `true` if `account` has been granted `role`."
      },
      "paused()": {
        "details": "Returns true if the contract is paused, and false otherwise."
      },
      "proxiableUUID()": {
        "details": "Implementation of the ERC-1822 {proxiableUUID} function. This returns the storage slot used by the implementation. It is used to validate the implementation's compatibility when performing an upgrade. IMPORTANT: A proxy pointing at a proxiable contract should not be considered proxiable itself, because this risks bricking a proxy that upgrades to it, by delegating to itself until out of gas. Thus it is critical that this function revert if invoked through a proxy. This is guaranteed by the `notDelegated` modifier."
      },
      "renounceRole(bytes32,address)": {
        "details": "Revokes `role` from the calling account. Roles are often managed via {grantRole} and {revokeRole}: this function's purpose is to provide a mechanism for accounts to lose their privileges if they are compromised (such as when a trusted device is misplaced). If the calling account had been revoked `role`, emits a {RoleRevoked} event. Requirements: - the caller must be `callerConfirmation`. May emit a {RoleRevoked} event."
      },
      "revokeRole(bytes32,address)": {
        "details": "Revokes `role` from `account`. If `account` had been granted `role`, emits a {RoleRevoked} event. Requirements: - the caller must have ``role``'s admin role. May emit a {RoleRevoked} event."
      },
      "supportsInterface(bytes4)": {
        "details": "See {IERC165-supportsInterface}."
      },
      "upgradeToAndCall(address,bytes)": {
        "custom:oz-upgrades-unsafe-allow-reachable": "delegatecall",
        "details": "Upgrade the implementation of the proxy to `newImplementation`, and subsequently execute the function call encoded in `data`. Calls {_authorizeUpgrade}. Emits an {Upgraded} event."
      }
    },
    "version": 1
  },
  "userdoc": {
    "kind": "user",
    "methods": {},
    "version": 1
  },
  "storageLayout": {
    "storage": [
      {
        "astId": 7505,
        "contract": "contracts/asUSDFEarn.sol:asUSDFEarn",
        "label": "USDFDepositEnabled",
        "offset": 0,
        "slot": "0",
        "type": "t_bool"
      },
      {
        "astId": 7507,
        "contract": "contracts/asUSDFEarn.sol:asUSDFEarn",
        "label": "lastDispatchTime",
        "offset": 0,
        "slot": "1",
        "type": "t_uint256"
      },
      {
        "astId": 7509,
        "contract": "contracts/asUSDFEarn.sol:asUSDFEarn",
        "label": "lastReward",
        "offset": 0,
        "slot": "2",
        "type": "t_uint256"
      },
      {
        "astId": 7511,
        "contract": "contracts/asUSDFEarn.sol:asUSDFEarn",
        "label": "maxRewardPercent",
        "offset": 0,
        "slot": "3",
        "type": "t_uint256"
      }
    ],
    "types": {
      "t_bool": {
        "encoding": "inplace",
        "label": "bool",
        "numberOfBytes": "1"
      },
      "t_uint256": {
        "encoding": "inplace",
        "label": "uint256",
        "numberOfBytes": "32"
      }
    }
  }
}