{
  "address": "0x1B456D1cfE3d31D211E0fAF4F26bFc08c1Eb9BEd",
  "abi": [
    {
      "inputs": [
        {
          "internalType": "address",
          "name": "_timeLock",
          "type": "address"
        },
        {
          "internalType": "contract IUSDFEarn",
          "name": "_USDFEarn",
          "type": "address"
        },
        {
          "internalType": "contract IAsUSDFEarn",
          "name": "_AsUSDFEarn",
          "type": "address"
        }
      ],
      "stateMutability": "nonpayable",
      "type": "constructor"
    },
    {
      "inputs": [],
      "name": "AccessControlBadConfirmation",
      "type": "error"
    },
    {
      "inputs": [
        {
          "internalType": "address",
          "name": "account",
          "type": "address"
        },
        {
          "internalType": "bytes32",
          "name": "neededRole",
          "type": "bytes32"
        }
      ],
      "name": "AccessControlUnauthorizedAccount",
      "type": "error"
    },
    {
      "inputs": [
        {
          "internalType": "address",
          "name": "target",
          "type": "address"
        }
      ],
      "name": "AddressEmptyCode",
      "type": "error"
    },
    {
      "inputs": [
        {
          "internalType": "address",
          "name": "implementation",
          "type": "address"
        }
      ],
      "name": "ERC1967InvalidImplementation",
      "type": "error"
    },
    {
      "inputs": [],
      "name": "ERC1967NonPayable",
      "type": "error"
    },
    {
      "inputs": [],
      "name": "EnforcedPause",
      "type": "error"
    },
    {
      "inputs": [],
      "name": "ExpectedPause",
      "type": "error"
    },
    {
      "inputs": [],
      "name": "FailedCall",
      "type": "error"
    },
    {
      "inputs": [],
      "name": "InvalidInitialization",
      "type": "error"
    },
    {
      "inputs": [],
      "name": "NotInitializing",
      "type": "error"
    },
    {
      "inputs": [],
      "name": "UUPSUnauthorizedCallContext",
      "type": "error"
    },
    {
      "inputs": [
        {
          "internalType": "bytes32",
          "name": "slot",
          "type": "bytes32"
        }
      ],
      "name": "UUPSUnsupportedProxiableUUID",
      "type": "error"
    },
    {
      "anonymous": false,
      "inputs": [
        {
          "indexed": false,
          "internalType": "uint64",
          "name": "version",
          "type": "uint64"
        }
      ],
      "name": "Initialized",
      "type": "event"
    },
    {
      "anonymous": false,
      "inputs": [
        {
          "indexed": false,
          "internalType": "address",
          "name": "account",
          "type": "address"
        }
      ],
      "name": "Paused",
      "type": "event"
    },
    {
      "anonymous": false,
      "inputs": [
        {
          "indexed": true,
          "internalType": "bytes32",
          "name": "role",
          "type": "bytes32"
        },
        {
          "indexed": true,
          "internalType": "bytes32",
          "name": "previousAdminRole",
          "type": "bytes32"
        },
        {
          "indexed": true,
          "internalType": "bytes32",
          "name": "newAdminRole",
          "type": "bytes32"
        }
      ],
      "name": "RoleAdminChanged",
      "type": "event"
    },
    {
      "anonymous": false,
      "inputs": [
        {
          "indexed": true,
          "internalType": "bytes32",
          "name": "role",
          "type": "bytes32"
        },
        {
          "indexed": true,
          "internalType": "address",
          "name": "account",
          "type": "address"
        },
        {
          "indexed": true,
          "internalType": "address",
          "name": "sender",
          "type": "address"
        }
      ],
      "name": "RoleGranted",
      "type": "event"
    },
    {
      "anonymous": false,
      "inputs": [
        {
          "indexed": true,
          "internalType": "bytes32",
          "name": "role",
          "type": "bytes32"
        },
        {
          "indexed": true,
          "internalType": "address",
          "name": "account",
          "type": "address"
        },
        {
          "indexed": true,
          "internalType": "address",
          "name": "sender",
          "type": "address"
        }
      ],
      "name": "RoleRevoked",
      "type": "event"
    },
    {
      "anonymous": false,
      "inputs": [
        {
          "indexed": false,
          "internalType": "address",
          "name": "account",
          "type": "address"
        }
      ],
      "name": "Unpaused",
      "type": "event"
    },
    {
      "anonymous": false,
      "inputs": [
        {
          "indexed": true,
          "internalType": "address",
          "name": "implementation",
          "type": "address"
        }
      ],
      "name": "Upgraded",
      "type": "event"
    },
    {
      "inputs": [],
      "name": "ADMIN_ROLE",
      "outputs": [
        {
          "internalType": "bytes32",
          "name": "",
          "type": "bytes32"
        }
      ],
      "stateMutability": "view",
      "type": "function"
    },
    {
      "inputs": [],
      "name": "AsUSDFEarn",
      "outputs": [
        {
          "internalType": "contract IAsUSDFEarn",
          "name": "",
          "type": "address"
        }
      ],
      "stateMutability": "view",
      "type": "function"
    },
    {
      "inputs": [],
      "name": "BOT_ROLE",
      "outputs": [
        {
          "internalType": "bytes32",
          "name": "",
          "type": "bytes32"
        }
      ],
      "stateMutability": "view",
      "type": "function"
    },
    {
      "inputs": [],
      "name": "DEFAULT_ADMIN_ROLE",
      "outputs": [
        {
          "internalType": "bytes32",
          "name": "",
          "type": "bytes32"
        }
      ],
      "stateMutability": "view",
      "type": "function"
    },
    {
      "inputs": [],
      "name": "PAUSE_ROLE",
      "outputs": [
        {
          "internalType": "bytes32",
          "name": "",
          "type": "bytes32"
        }
      ],
      "stateMutability": "view",
      "type": "function"
    },
    {
      "inputs": [],
      "name": "TIMELOCK_ADDRESS",
      "outputs": [
        {
          "internalType": "address",
          "name": "",
          "type": "address"
        }
      ],
      "stateMutability": "view",
      "type": "function"
    },
    {
      "inputs": [],
      "name": "UPGRADE_INTERFACE_VERSION",
      "outputs": [
        {
          "internalType": "string",
          "name": "",
          "type": "string"
        }
      ],
      "stateMutability": "view",
      "type": "function"
    },
    {
      "inputs": [],
      "name": "USDFEarn",
      "outputs": [
        {
          "internalType": "contract IUSDFEarn",
          "name": "",
          "type": "address"
        }
      ],
      "stateMutability": "view",
      "type": "function"
    },
    {
      "inputs": [
        {
          "internalType": "uint256",
          "name": "amount",
          "type": "uint256"
        }
      ],
      "name": "dispatchReward",
      "outputs": [],
      "stateMutability": "nonpayable",
      "type": "function"
    },
    {
      "inputs": [
        {
          "internalType": "bytes32",
          "name": "role",
          "type": "bytes32"
        }
      ],
      "name": "getRoleAdmin",
      "outputs": [
        {
          "internalType": "bytes32",
          "name": "",
          "type": "bytes32"
        }
      ],
      "stateMutability": "view",
      "type": "function"
    },
    {
      "inputs": [
        {
          "internalType": "bytes32",
          "name": "role",
          "type": "bytes32"
        },
        {
          "internalType": "uint256",
          "name": "index",
          "type": "uint256"
        }
      ],
      "name": "getRoleMember",
      "outputs": [
        {
          "internalType": "address",
          "name": "",
          "type": "address"
        }
      ],
      "stateMutability": "view",
      "type": "function"
    },
    {
      "inputs": [
        {
          "internalType": "bytes32",
          "name": "role",
          "type": "bytes32"
        }
      ],
      "name": "getRoleMemberCount",
      "outputs": [
        {
          "internalType": "uint256",
          "name": "",
          "type": "uint256"
        }
      ],
      "stateMutability": "view",
      "type": "function"
    },
    {
      "inputs": [
        {
          "internalType": "bytes32",
          "name": "role",
          "type": "bytes32"
        }
      ],
      "name": "getRoleMembers",
      "outputs": [
        {
          "internalType": "address[]",
          "name": "",
          "type": "address[]"
        }
      ],
      "stateMutability": "view",
      "type": "function"
    },
    {
      "inputs": [
        {
          "internalType": "bytes32",
          "name": "role",
          "type": "bytes32"
        },
        {
          "internalType": "address",
          "name": "account",
          "type": "address"
        }
      ],
      "name": "grantRole",
      "outputs": [],
      "stateMutability": "nonpayable",
      "type": "function"
    },
    {
      "inputs": [
        {
          "internalType": "bytes32",
          "name": "role",
          "type": "bytes32"
        },
        {
          "internalType": "address",
          "name": "account",
          "type": "address"
        }
      ],
      "name": "hasRole",
      "outputs": [
        {
          "internalType": "bool",
          "name": "",
          "type": "bool"
        }
      ],
      "stateMutability": "view",
      "type": "function"
    },
    {
      "inputs": [
        {
          "internalType": "address",
          "name": "_admin",
          "type": "address"
        },
        {
          "internalType": "address",
          "name": "_deployer",
          "type": "address"
        },
        {
          "internalType": "address",
          "name": "_bot",
          "type": "address"
        }
      ],
      "name": "initialize",
      "outputs": [],
      "stateMutability": "nonpayable",
      "type": "function"
    },
    {
      "inputs": [
        {
          "internalType": "uint256",
          "name": "amount",
          "type": "uint256"
        }
      ],
      "name": "mintReward",
      "outputs": [],
      "stateMutability": "nonpayable",
      "type": "function"
    },
    {
      "inputs": [],
      "name": "pause",
      "outputs": [],
      "stateMutability": "nonpayable",
      "type": "function"
    },
    {
      "inputs": [],
      "name": "paused",
      "outputs": [
        {
          "internalType": "bool",
          "name": "",
          "type": "bool"
        }
      ],
      "stateMutability": "view",
      "type": "function"
    },
    {
      "inputs": [],
      "name": "proxiableUUID",
      "outputs": [
        {
          "internalType": "bytes32",
          "name": "",
          "type": "bytes32"
        }
      ],
      "stateMutability": "view",
      "type": "function"
    },
    {
      "inputs": [
        {
          "internalType": "bytes32",
          "name": "role",
          "type": "bytes32"
        },
        {
          "internalType": "address",
          "name": "callerConfirmation",
          "type": "address"
        }
      ],
      "name": "renounceRole",
      "outputs": [],
      "stateMutability": "nonpayable",
      "type": "function"
    },
    {
      "inputs": [
        {
          "internalType": "bytes32",
          "name": "role",
          "type": "bytes32"
        },
        {
          "internalType": "address",
          "name": "account",
          "type": "address"
        }
      ],
      "name": "revokeRole",
      "outputs": [],
      "stateMutability": "nonpayable",
      "type": "function"
    },
    {
      "inputs": [
        {
          "internalType": "bytes4",
          "name": "interfaceId",
          "type": "bytes4"
        }
      ],
      "name": "supportsInterface",
      "outputs": [
        {
          "internalType": "bool",
          "name": "",
          "type": "bool"
        }
      ],
      "stateMutability": "view",
      "type": "function"
    },
    {
      "inputs": [],
      "name": "unpause",
      "outputs": [],
      "stateMutability": "nonpayable",
      "type": "function"
    },
    {
      "inputs": [
        {
          "internalType": "address",
          "name": "newImplementation",
          "type": "address"
        },
        {
          "internalType": "bytes",
          "name": "data",
          "type": "bytes"
        }
      ],
      "name": "upgradeToAndCall",
      "outputs": [],
      "stateMutability": "payable",
      "type": "function"
    }
  ],
  "transactionHash": "0x8842eb5ec6fab5840fa432bc0863597e802c5dee91d72e66eb784174ee64f9fa",
  "args": [
    "0xB2c2C14B0f2d45E8f5A8FFC67dB3279769dC6e56",
    "0xc7B7E962f0aee16F9D4B41cb8A3666d5bebdd55C",
    "0xe2aD132D5D73Dd716Df5f4D62CcbF7D527e871BB"
  ],
  "numDeployments": 1,
  "solcInputHash": "5ee528aa7b09a5bfa9672160b3c2ced1",
  "bytecode": "0x6101606040908082523461036c576060816120c380380380916100228285610371565b83398101031261036c578051916001600160a01b0390818416840361036c576020808401518381169485820361036c57830151908482169687830361036c573060805260a05260c05260e052815163c54e44eb60e01b81529460049382878681895afa96871561036157600097610320575b50610100968752835163b249b35d60e01b8082529184828881875afa918215610315576000926102f6575b508551838152858189818c5afa9081156102eb579082916000916102ce575b501691160361029a5782908585518098819382525afa94851561026a57600095610275575b5090808492610120968752845195868092630e98713360e11b82525afa93841561026a5760009461023b575b506101409384527ff0c57e16840df040f15088dc2f81fe391c3923bec73e23a9662efc9c229c6a0080549260ff84861c1661022d57506001600160401b03906002600160401b0319848316016101eb575b505050505191611cf993846103ca8539608051848181610bb10152610c88015260a0518481816102c301528181610cbb0152610fb3015260c0518481816107fe0152610f6f015260e051848181610b2d015261127d015251836108330152518261125a015251815050f35b6001600160401b0319909316811790925582519182527fc7f505b2f371ae2175ee4913f4499e1f2633a7b5936321eed1cdaeb6115181d291a138808080610180565b845163f92ee8a960e01b8152fd5b8161025c9295503d8611610263575b6102548183610371565b8101906103aa565b923861012f565b503d61024a565b83513d6000823e3d90fd5b82919550916102918593823d8411610263576102548183610371565b95919250610103565b835162461bcd60e51b8152808601849052600e60248201526d0cac2e4dc40dcdee840dac2e8c6d60931b6044820152606490fd5b6102e59150873d8911610263576102548183610371565b386100de565b87513d6000823e3d90fd5b61030e919250853d8711610263576102548183610371565b90386100bf565b86513d6000823e3d90fd5b8381819993993d831161035a575b6103388183610371565b81010312610356575190878216820361035357509538610094565b80fd5b5080fd5b503d61032e565b84513d6000823e3d90fd5b600080fd5b601f909101601f19168101906001600160401b0382119082101761039457604052565b634e487b7160e01b600052604160045260246000fd5b9081602091031261036c57516001600160a01b038116810361036c579056fe608060408181526004908136101561001657600080fd5b600092833560e01c90816301ffc9a7146113a557508063195ac6db1461122e578063248a9ca3146111f65780632f2ff15d1461115d57806336568abe146110fd578063389ed267146110c25780633f4ba83a14610fd7578063431c183014610f935780634d3affb614610f4f5780634f1ef28614610c0d57806352d1902d14610b945780635c975abb14610b515780636cdc740914610b0d57806375b238fc14610ad25780638456cb59146109ca5780639010d07c1461096957806391c0aabf146107c857806391d1485414610774578063a217fddf14610759578063a3246ad314610690578063ad3cb1cc146105d7578063b150377414610598578063c0c53b8b146101cc578063ca15c873146101855763d547741f1461013757600080fd5b3461018157806003193601126101815761017d91356101786001610159611477565b93838752600080516020611ca48339815191526020528620015461159d565b6115d0565b5080f35b8280fd5b5090346101815760203660031901126101815760209282913581527fc1f6fe24621ce81ec5827caf0253cadb74709b061630e6b55e82371705932000845220549051908152f35b509034610181576060366003190112610181576101e761148d565b906101f0611477565b91604435906001600160a01b0380831691828403610593577ff0c57e16840df040f15088dc2f81fe391c3923bec73e23a9662efc9c229c6a0095865460ff818a1c16159667ffffffffffffffff82168015908161058b575b6001149081610581575b159081610578575b50610551575067ffffffffffffffff198116600117885586610532575b50610280611a3d565b610288611a3d565b7fcd5ed15c6e187e77e9aee88184c21f4f2182ab5827cb3b7e07fbedcd63f03300805460ff191690556102b9611a3d565b6102c1611a3d565b7f00000000000000000000000000000000000000000000000000000000000000006102eb81611629565b6104f5575b506102fa81611629565b6104b8575b50610309816116c9565b61045c575b6103178161178b565b6103fe575b50508061036f575b505061032e578280f35b805468ff00000000000000001916905551600181527fc7f505b2f371ae2175ee4913f4499e1f2633a7b5936321eed1cdaeb6115181d290602090a138808280f35b6103bd7f6d5c9827c1f410bbb61d3b2a0a34b6b30492d9a1fd38588edca7ec4562ab9c9b92838852600080516020611ca48339815191526020526103b86001888a20015461159d565b611847565b15610324576103f6916000527fc1f6fe24621ce81ec5827caf0253cadb74709b061630e6b55e8237170593200060205284600020611a96565b503880610324565b610454917f139c2898040ef16910dc9f44dc697df79363da767d8bc92f2e310312b816e46d89527fc1f6fe24621ce81ec5827caf0253cadb74709b061630e6b55e82371705932000602052878920911690611a96565b50388061031c565b7fa49807205ce4d355092ef5a8a18f56e8913cf4a201fbe287825b095693c2177588527fc1f6fe24621ce81ec5827caf0253cadb74709b061630e6b55e823717059320006020526104b287892083831690611a96565b5061030e565b8880527fc1f6fe24621ce81ec5827caf0253cadb74709b061630e6b55e823717059320006020528789206104ee91841690611a96565b50386102ff565b8980527fc1f6fe24621ce81ec5827caf0253cadb74709b061630e6b55e82371705932000602052888a2061052b91851690611a96565b50386102f0565b68ffffffffffffffffff19166801000000000000000117875538610277565b89517ff92ee8a9000000000000000000000000000000000000000000000000000000008152fd5b9050153861025a565b303b159150610252565b899150610248565b600080fd5b8382346105d357816003193601126105d357602090517f6d5c9827c1f410bbb61d3b2a0a34b6b30492d9a1fd38588edca7ec4562ab9c9b8152f35b5080fd5b5090346101815782600319360112610181578151908282019082821067ffffffffffffffff83111761067b57508252600581526020907f352e302e300000000000000000000000000000000000000000000000000000006020820152825193849260208452825192836020860152825b84811061066557505050828201840152601f01601f19168101030190f35b8181018301518882018801528795508201610647565b604190634e487b7160e01b6000525260246000fd5b50913461075657602091826003193601126105d3579291923581527fc1f6fe24621ce81ec5827caf0253cadb74709b061630e6b55e823717059320008352818120908251808584549182815201908194845286842090845b81811061074257505050816106fe9103826114cd565b83519485948186019282875251809352850193925b82811061072257505050500390f35b83516001600160a01b031685528695509381019392810192600101610713565b8254845292880192600192830192016106e8565b80fd5b8382346105d357816003193601126105d35751908152602090f35b5090346101815781600319360112610181576001600160a01b038260209461079a611477565b93358152600080516020611ca48339815191528652209116600052825260ff81600020541690519015158152f35b50903461018157602091826003193601126109345781356107e7611523565b815163095ea7b360e01b8082526001600160a01b037f000000000000000000000000000000000000000000000000000000000000000081168684018181526020810186905290969389927f00000000000000000000000000000000000000000000000000000000000000001691899082908190604001038186865af1801561095f57610942575b50863b156105d3578551947fb6b55f25000000000000000000000000000000000000000000000000000000008652848601528185602481838b5af180156109385790889493929161091a575b6044939495508651978895869485528401528160248401525af190811561091157506108e4578280f35b8161090392903d1061090a575b6108fb81836114cd565b81019061150b565b5038808280f35b503d6108f1565b513d85823e3d90fd5b92935061092781956114a3565b61093457838793926108ba565b8380fd5b86513d84823e3d90fd5b61095890893d8b1161090a576108fb81836114cd565b503861086e565b87513d85823e3d90fd5b5090346101815781600319360112610181576109bb6020936001600160a01b03923581527fc1f6fe24621ce81ec5827caf0253cadb74709b061630e6b55e823717059320008552836024359120611a0f565b92905490519260031b1c168152f35b5090346101815782600319360112610181577f139c2898040ef16910dc9f44dc697df79363da767d8bc92f2e310312b816e46d80600052600080516020611ca4833981519152602052826000203360005260205260ff83600020541615610ab757507fcd5ed15c6e187e77e9aee88184c21f4f2182ab5827cb3b7e07fbedcd63f033009081549060ff8216610a90575060ff19166001179055513381527f62e78cea01bee320cd4e420270b5ea74000d11b0c9f74754ebdbfc544b05a25890602090a180f35b83517fd93c0665000000000000000000000000000000000000000000000000000000008152fd5b604492519163e2517d3f60e01b835233908301526024820152fd5b8382346105d357816003193601126105d357602090517fa49807205ce4d355092ef5a8a18f56e8913cf4a201fbe287825b095693c217758152f35b8382346105d357816003193601126105d357602090516001600160a01b037f0000000000000000000000000000000000000000000000000000000000000000168152f35b8382346105d357816003193601126105d35760209060ff7fcd5ed15c6e187e77e9aee88184c21f4f2182ab5827cb3b7e07fbedcd63f03300541690519015158152f35b508234610756578060031936011261075657506001600160a01b037f0000000000000000000000000000000000000000000000000000000000000000163003610c0057602090517f360894a13ba1a3210667c828492db98dca3e2076cc3735a920a3ca505d382bbc8152f35b5163703e46dd60e11b8152fd5b508060031936011261018157610c2161148d565b90602493843567ffffffffffffffff81116105d357366023820112156105d35780850135610c4e816114ef565b94610c5b855196876114cd565b81865260209182870193368a8383010111610f4b578186928b8693018737880101526001600160a01b03807f000000000000000000000000000000000000000000000000000000000000000016803014908115610f1d575b50610f0e57807f0000000000000000000000000000000000000000000000000000000000000000163303610eb35781169585517f52d1902d00000000000000000000000000000000000000000000000000000000815283818a818b5afa869181610e80575b50610d34575050505050505191634c9c8ce360e01b8352820152fd5b9088888894938c7f360894a13ba1a3210667c828492db98dca3e2076cc3735a920a3ca505d382bbc91828103610e535750853b15610e3f575080547fffffffffffffffffffffffff000000000000000000000000000000000000000016821790558451889392917fbc7cd75a20ee27fd9adebab32041f755214dbc6bffa90cc0225b39da2e5c2d3b8580a2825115610e0857505061017d9582915190845af4913d15610dfe573d610df0610de7826114ef565b925192836114cd565b81528581943d92013e611c10565b5060609250611c10565b955095505050505034610e1a57505080f35b7fb398979f000000000000000000000000000000000000000000000000000000008152fd5b8383885191634c9c8ce360e01b8352820152fd5b84908851917faa1d49a4000000000000000000000000000000000000000000000000000000008352820152fd5b9091508481813d8311610eac575b610e9881836114cd565b81010312610ea857519038610d18565b8680fd5b503d610e8e565b606488600e8b868a51937f08c379a00000000000000000000000000000000000000000000000000000000085528401528201527f6f6e6c792074696d65206c6f636b0000000000000000000000000000000000006044820152fd5b87865163703e46dd60e11b8152fd5b9050817f360894a13ba1a3210667c828492db98dca3e2076cc3735a920a3ca505d382bbc5416141538610cb3565b8580fd5b8382346105d357816003193601126105d357602090516001600160a01b037f0000000000000000000000000000000000000000000000000000000000000000168152f35b8382346105d357816003193601126105d357602090516001600160a01b037f0000000000000000000000000000000000000000000000000000000000000000168152f35b5090346101815782600319360112610181577fa49807205ce4d355092ef5a8a18f56e8913cf4a201fbe287825b095693c2177580600052600080516020611ca4833981519152602052826000203360005260205260ff83600020541615610ab757507fcd5ed15c6e187e77e9aee88184c21f4f2182ab5827cb3b7e07fbedcd63f033009081549060ff82161561109b575060ff19169055513381527f5db9ee0a495bf2e6ff9c91a7834c1ba4fdd244a5e8aa4e537bd38aeae4b073aa90602090a180f35b83517f8dfc202b000000000000000000000000000000000000000000000000000000008152fd5b8382346105d357816003193601126105d357602090517f139c2898040ef16910dc9f44dc697df79363da767d8bc92f2e310312b816e46d8152f35b508290346105d357806003193601126105d357611118611477565b90336001600160a01b03831603611135575061017d9192356115d0565b8390517f6697b232000000000000000000000000000000000000000000000000000000008152fd5b50903461018157816003193601126101815735611178611477565b90808452600080516020611ca483398151915260205261119d6001848620015461159d565b6111a78282611903565b6111af578380f35b6111ee926001600160a01b03916000527fc1f6fe24621ce81ec5827caf0253cadb74709b061630e6b55e82371705932000602052600020911690611a96565b503880808380f35b5090346101815760203660031901126101815781602093600192358152600080516020611ca483398151915285522001549051908152f35b50903461018157602091826003193601126109345781359161124e611523565b6001600160a01b0392837f000000000000000000000000000000000000000000000000000000000000000016937f0000000000000000000000000000000000000000000000000000000000000000169383519163095ea7b360e01b928381528781806112d3858b8a8401602090939291936001600160a01b0360408201951681520152565b03818c875af1801561139b5761137e575b50853b1561137a578451907f195ac6db000000000000000000000000000000000000000000000000000000008252848201528781602481838a5af1801561137057611356575b50859291876044928651978895869485528401528160248401525af190811561091157506108e4578280f35b91604491976113668895946114a3565b979150919261132a565b85513d8a823e3d90fd5b8780fd5b61139490883d8a1161090a576108fb81836114cd565b50386112e4565b86513d8b823e3d90fd5b8490843461018157602036600319011261018157357fffffffff00000000000000000000000000000000000000000000000000000000811680910361018157602092507f5a05180f00000000000000000000000000000000000000000000000000000000811490811561141a575b5015158152f35b7f7965db0b0000000000000000000000000000000000000000000000000000000081149150811561144d575b5083611413565b7f01ffc9a70000000000000000000000000000000000000000000000000000000091501483611446565b602435906001600160a01b038216820361059357565b600435906001600160a01b038216820361059357565b67ffffffffffffffff81116114b757604052565b634e487b7160e01b600052604160045260246000fd5b90601f8019910116810190811067ffffffffffffffff8211176114b757604052565b67ffffffffffffffff81116114b757601f01601f191660200190565b90816020910312610593575180151581036105935790565b3360009081527f36130197f7aaaea25e2f7618ed3461508f72f582ad6fcbc07c16456fa5ee4bf760205260409020547f6d5c9827c1f410bbb61d3b2a0a34b6b30492d9a1fd38588edca7ec4562ab9c9b9060ff161561157f5750565b6044906040519063e2517d3f60e01b82523360048301526024820152fd5b80600052600080516020611ca483398151915260205260406000203360005260205260ff604060002054161561157f5750565b6115da828261198b565b91826115e557505090565b611625916000527fc1f6fe24621ce81ec5827caf0253cadb74709b061630e6b55e823717059320006020526001600160a01b036040600020911690611b20565b5090565b6001600160a01b031660008181527fb7db2dd08fcb62d0c9e08c51941cae53c267786a0b75803fb7960902fc8ef97d6020526040812054909190600080516020611ca48339815191529060ff166116c4578280526020526040822081835260205260408220600160ff1982541617905533917f2f8788117e7eff1d82e926ec794901d17c78024a50270940304540a733656f0d8180a4600190565b505090565b6001600160a01b031660008181527fb16e88c42fd4e48df2dd6a2eabd6bc9aec654ec170056b470819f8892cc6431c60205260408120549091907fa49807205ce4d355092ef5a8a18f56e8913cf4a201fbe287825b095693c2177590600080516020611ca48339815191529060ff16611785578184526020526040832082845260205260408320600160ff198254161790557f2f8788117e7eff1d82e926ec794901d17c78024a50270940304540a733656f0d339380a4600190565b50505090565b6001600160a01b031660008181527f85aa68ae9688c2bba3dc27a57a38bf2786c03751927fe89ecfd8b396d55ff13360205260408120549091907f139c2898040ef16910dc9f44dc697df79363da767d8bc92f2e310312b816e46d90600080516020611ca48339815191529060ff16611785578184526020526040832082845260205260408320600160ff198254161790557f2f8788117e7eff1d82e926ec794901d17c78024a50270940304540a733656f0d339380a4600190565b6001600160a01b031660008181527f36130197f7aaaea25e2f7618ed3461508f72f582ad6fcbc07c16456fa5ee4bf760205260408120549091907f6d5c9827c1f410bbb61d3b2a0a34b6b30492d9a1fd38588edca7ec4562ab9c9b90600080516020611ca48339815191529060ff16611785578184526020526040832082845260205260408320600160ff198254161790557f2f8788117e7eff1d82e926ec794901d17c78024a50270940304540a733656f0d339380a4600190565b90600091808352600080516020611ca4833981519152806020526001600160a01b036040852093169283855260205260ff60408520541615600014611785578184526020526040832082845260205260408320600160ff198254161790557f2f8788117e7eff1d82e926ec794901d17c78024a50270940304540a733656f0d339380a4600190565b90600091808352600080516020611ca4833981519152806020526001600160a01b036040852093169283855260205260ff60408520541660001461178557818452602052604083208284526020526040832060ff1981541690557ff6391f5c32d9c69d2a47ea670b442974b53935d1edc7fd64eb21e047a839171b339380a4600190565b8054821015611a275760005260206000200190600090565b634e487b7160e01b600052603260045260246000fd5b60ff7ff0c57e16840df040f15088dc2f81fe391c3923bec73e23a9662efc9c229c6a005460401c1615611a6c57565b60046040517fd7e6bcf8000000000000000000000000000000000000000000000000000000008152fd5b91906001830160009082825280602052604082205415600014611b1a5784549468010000000000000000861015611b065783611af6611adf886001604098999a01855584611a0f565b819391549060031b91821b91600019901b19161790565b9055549382526020522055600190565b602483634e487b7160e01b81526041600452fd5b50925050565b90600182019060009281845282602052604084205490811515600014611c095760001991808301818111611bf557825490848201918211611be157818103611bac575b50505080548015611b9857820191611b7b8383611a0f565b909182549160031b1b191690555582526020526040812055600190565b602486634e487b7160e01b81526031600452fd5b611bcc611bbc611adf9386611a0f565b90549060031b1c92839286611a0f565b90558652846020526040862055388080611b63565b602488634e487b7160e01b81526011600452fd5b602487634e487b7160e01b81526011600452fd5b5050505090565b90611c4f5750805115611c2557805190602001fd5b60046040517fd6bda275000000000000000000000000000000000000000000000000000000008152fd5b81511580611c9a575b611c60575090565b6024906001600160a01b03604051917f9996b315000000000000000000000000000000000000000000000000000000008352166004820152fd5b50803b15611c5856fe02dd7bc7dec4dceedda775e58dd541e08a116c6c53815c0bd028192f7b626800a2646970667358221220fd941ad47bba81c4a39945245528e80abb4895ea194957fdb2a20f1233fab1bb64736f6c63430008190033",
  "devdoc": {
    "errors": {
      "AccessControlBadConfirmation()": [
        {
          "details": "The caller of a function is not the expected one. NOTE: Don't confuse with {AccessControlUnauthorizedAccount}."
        }
      ],
      "AccessControlUnauthorizedAccount(address,bytes32)": [
        {
          "details": "The `account` is missing a role."
        }
      ],
      "AddressEmptyCode(address)": [
        {
          "details": "There's no code at `target` (it is not a contract)."
        }
      ],
      "ERC1967InvalidImplementation(address)": [
        {
          "details": "The `implementation` of the proxy is invalid."
        }
      ],
      "ERC1967NonPayable()": [
        {
          "details": "An upgrade function sees `msg.value > 0` that may be lost."
        }
      ],
      "EnforcedPause()": [
        {
          "details": "The operation failed because the contract is paused."
        }
      ],
      "ExpectedPause()": [
        {
          "details": "The operation failed because the contract is not paused."
        }
      ],
      "FailedCall()": [
        {
          "details": "A call to an address target failed. The target may have reverted."
        }
      ],
      "InvalidInitialization()": [
        {
          "details": "The contract is already initialized."
        }
      ],
      "NotInitializing()": [
        {
          "details": "The contract is not initializing."
        }
      ],
      "UUPSUnauthorizedCallContext()": [
        {
          "details": "The call is from an unauthorized context."
        }
      ],
      "UUPSUnsupportedProxiableUUID(bytes32)": [
        {
          "details": "The storage `slot` is unsupported as a UUID."
        }
      ]
    },
    "events": {
      "Initialized(uint64)": {
        "details": "Triggered when the contract has been initialized or reinitialized."
      },
      "Paused(address)": {
        "details": "Emitted when the pause is triggered by `account`."
      },
      "RoleAdminChanged(bytes32,bytes32,bytes32)": {
        "details": "Emitted when `newAdminRole` is set as ``role``'s admin role, replacing `previousAdminRole` `DEFAULT_ADMIN_ROLE` is the starting admin for all roles, despite {RoleAdminChanged} not being emitted signaling this."
      },
      "RoleGranted(bytes32,address,address)": {
        "details": "Emitted when `account` is granted `role`. `sender` is the account that originated the contract call. This account bears the admin role (for the granted role). Expected in cases where the role was granted using the internal {AccessControl-_grantRole}."
      },
      "RoleRevoked(bytes32,address,address)": {
        "details": "Emitted when `account` is revoked `role`. `sender` is the account that originated the contract call:   - if using `revokeRole`, it is the admin role bearer   - if using `renounceRole`, it is the role bearer (i.e. `account`)"
      },
      "Unpaused(address)": {
        "details": "Emitted when the pause is lifted by `account`."
      },
      "Upgraded(address)": {
        "details": "Emitted when the implementation is upgraded."
      }
    },
    "kind": "dev",
    "methods": {
      "getRoleAdmin(bytes32)": {
        "details": "Returns the admin role that controls `role`. See {grantRole} and {revokeRole}. To change a role's admin, use {_setRoleAdmin}."
      },
      "getRoleMember(bytes32,uint256)": {
        "details": "Returns one of the accounts that have `role`. `index` must be a value between 0 and {getRoleMemberCount}, non-inclusive. Role bearers are not sorted in any particular way, and their ordering may change at any point. WARNING: When using {getRoleMember} and {getRoleMemberCount}, make sure you perform all queries on the same block. See the following https://forum.openzeppelin.com/t/iterating-over-elements-on-enumerableset-in-openzeppelin-contracts/2296[forum post] for more information."
      },
      "getRoleMemberCount(bytes32)": {
        "details": "Returns the number of accounts that have `role`. Can be used together with {getRoleMember} to enumerate all bearers of a role."
      },
      "getRoleMembers(bytes32)": {
        "details": "Return all accounts that have `role` WARNING: This operation will copy the entire storage to memory, which can be quite expensive. This is designed to mostly be used by view accessors that are queried without any gas fees. Developers should keep in mind that this function has an unbounded cost, and using it as part of a state-changing function may render the function uncallable if the set grows to a point where copying to memory consumes too much gas to fit in a block."
      },
      "grantRole(bytes32,address)": {
        "details": "Grants `role` to `account`. If `account` had not been already granted `role`, emits a {RoleGranted} event. Requirements: - the caller must have ``role``'s admin role. May emit a {RoleGranted} event."
      },
      "hasRole(bytes32,address)": {
        "details": "Returns `true` if `account` has been granted `role`."
      },
      "paused()": {
        "details": "Returns true if the contract is paused, and false otherwise."
      },
      "proxiableUUID()": {
        "details": "Implementation of the ERC-1822 {proxiableUUID} function. This returns the storage slot used by the implementation. It is used to validate the implementation's compatibility when performing an upgrade. IMPORTANT: A proxy pointing at a proxiable contract should not be considered proxiable itself, because this risks bricking a proxy that upgrades to it, by delegating to itself until out of gas. Thus it is critical that this function revert if invoked through a proxy. This is guaranteed by the `notDelegated` modifier."
      },
      "renounceRole(bytes32,address)": {
        "details": "Revokes `role` from the calling account. Roles are often managed via {grantRole} and {revokeRole}: this function's purpose is to provide a mechanism for accounts to lose their privileges if they are compromised (such as when a trusted device is misplaced). If the calling account had been revoked `role`, emits a {RoleRevoked} event. Requirements: - the caller must be `callerConfirmation`. May emit a {RoleRevoked} event."
      },
      "revokeRole(bytes32,address)": {
        "details": "Revokes `role` from `account`. If `account` had been granted `role`, emits a {RoleRevoked} event. Requirements: - the caller must have ``role``'s admin role. May emit a {RoleRevoked} event."
      },
      "supportsInterface(bytes4)": {
        "details": "See {IERC165-supportsInterface}."
      },
      "upgradeToAndCall(address,bytes)": {
        "custom:oz-upgrades-unsafe-allow-reachable": "delegatecall",
        "details": "Upgrade the implementation of the proxy to `newImplementation`, and subsequently execute the function call encoded in `data`. Calls {_authorizeUpgrade}. Emits an {Upgraded} event."
      }
    },
    "version": 1
  },
  "userdoc": {
    "kind": "user",
    "methods": {},
    "version": 1
  },
  "storageLayout": {
    "storage": [],
    "types": null
  }
}