{
  "address": "0x99409e28f03622E08eFd5fE6A31a3a9757aDEF94",
  "abi": [
    {
      "inputs": [
        {
          "internalType": "address",
          "name": "_timeLockAddress",
          "type": "address"
        },
        {
          "internalType": "contract IERC20",
          "name": "_USDT",
          "type": "address"
        },
        {
          "internalType": "contract IAsERC20",
          "name": "_USDF",
          "type": "address"
        },
        {
          "internalType": "contract IWithdrawVault",
          "name": "_withdrawVault",
          "type": "address"
        },
        {
          "internalType": "contract IAsUSDFEarn",
          "name": "_AsUSDFEarn",
          "type": "address"
        }
      ],
      "stateMutability": "nonpayable",
      "type": "constructor"
    },
    {
      "inputs": [],
      "name": "AccessControlBadConfirmation",
      "type": "error"
    },
    {
      "inputs": [
        {
          "internalType": "address",
          "name": "account",
          "type": "address"
        },
        {
          "internalType": "bytes32",
          "name": "neededRole",
          "type": "bytes32"
        }
      ],
      "name": "AccessControlUnauthorizedAccount",
      "type": "error"
    },
    {
      "inputs": [
        {
          "internalType": "address",
          "name": "target",
          "type": "address"
        }
      ],
      "name": "AddressEmptyCode",
      "type": "error"
    },
    {
      "inputs": [
        {
          "internalType": "address",
          "name": "implementation",
          "type": "address"
        }
      ],
      "name": "ERC1967InvalidImplementation",
      "type": "error"
    },
    {
      "inputs": [],
      "name": "ERC1967NonPayable",
      "type": "error"
    },
    {
      "inputs": [],
      "name": "EnforcedPause",
      "type": "error"
    },
    {
      "inputs": [],
      "name": "ExpectedPause",
      "type": "error"
    },
    {
      "inputs": [],
      "name": "FailedCall",
      "type": "error"
    },
    {
      "inputs": [],
      "name": "InvalidInitialization",
      "type": "error"
    },
    {
      "inputs": [],
      "name": "NotInitializing",
      "type": "error"
    },
    {
      "inputs": [],
      "name": "ReentrancyGuardReentrantCall",
      "type": "error"
    },
    {
      "inputs": [
        {
          "internalType": "address",
          "name": "token",
          "type": "address"
        }
      ],
      "name": "SafeERC20FailedOperation",
      "type": "error"
    },
    {
      "inputs": [],
      "name": "UUPSUnauthorizedCallContext",
      "type": "error"
    },
    {
      "inputs": [
        {
          "internalType": "bytes32",
          "name": "slot",
          "type": "bytes32"
        }
      ],
      "name": "UUPSUnsupportedProxiableUUID",
      "type": "error"
    },
    {
      "anonymous": false,
      "inputs": [
        {
          "indexed": true,
          "internalType": "address",
          "name": "sender",
          "type": "address"
        },
        {
          "indexed": true,
          "internalType": "address",
          "name": "user",
          "type": "address"
        }
      ],
      "name": "AddEmergencyWithdrawWhitelist",
      "type": "event"
    },
    {
      "anonymous": false,
      "inputs": [
        {
          "indexed": true,
          "internalType": "address",
          "name": "sender",
          "type": "address"
        },
        {
          "indexed": true,
          "internalType": "contract IERC20",
          "name": "withdrawToken",
          "type": "address"
        },
        {
          "indexed": true,
          "internalType": "contract IERC20",
          "name": "receiveToken",
          "type": "address"
        },
        {
          "indexed": false,
          "internalType": "uint256",
          "name": "withdrawAmount",
          "type": "uint256"
        },
        {
          "indexed": false,
          "internalType": "uint256",
          "name": "receiveAmount",
          "type": "uint256"
        },
        {
          "indexed": false,
          "internalType": "uint256",
          "name": "requestWithdrawNo",
          "type": "uint256"
        }
      ],
      "name": "ClaimWithdraw",
      "type": "event"
    },
    {
      "anonymous": false,
      "inputs": [
        {
          "indexed": true,
          "internalType": "contract IERC20",
          "name": "withdrawToken",
          "type": "address"
        },
        {
          "indexed": true,
          "internalType": "contract IERC20",
          "name": "receiveToken",
          "type": "address"
        },
        {
          "indexed": false,
          "internalType": "uint256",
          "name": "withdrawAmount",
          "type": "uint256"
        },
        {
          "indexed": false,
          "internalType": "uint256",
          "name": "receiveAmount",
          "type": "uint256"
        },
        {
          "indexed": false,
          "internalType": "uint256",
          "name": "requestWithdrawNo",
          "type": "uint256"
        }
      ],
      "name": "DistributeWithdraw",
      "type": "event"
    },
    {
      "anonymous": false,
      "inputs": [
        {
          "indexed": false,
          "internalType": "uint64",
          "name": "version",
          "type": "uint64"
        }
      ],
      "name": "Initialized",
      "type": "event"
    },
    {
      "anonymous": false,
      "inputs": [
        {
          "indexed": true,
          "internalType": "address",
          "name": "sender",
          "type": "address"
        },
        {
          "indexed": true,
          "internalType": "contract IERC20",
          "name": "USDT",
          "type": "address"
        },
        {
          "indexed": true,
          "internalType": "contract IERC20",
          "name": "USDF",
          "type": "address"
        },
        {
          "indexed": false,
          "internalType": "uint256",
          "name": "amountIn",
          "type": "uint256"
        },
        {
          "indexed": false,
          "internalType": "uint256",
          "name": "USDFAmount",
          "type": "uint256"
        }
      ],
      "name": "MintUSDF",
      "type": "event"
    },
    {
      "anonymous": false,
      "inputs": [
        {
          "indexed": false,
          "internalType": "address",
          "name": "account",
          "type": "address"
        }
      ],
      "name": "Paused",
      "type": "event"
    },
    {
      "anonymous": false,
      "inputs": [
        {
          "indexed": true,
          "internalType": "address",
          "name": "sender",
          "type": "address"
        },
        {
          "indexed": true,
          "internalType": "address",
          "name": "user",
          "type": "address"
        }
      ],
      "name": "RemoveEmergencyWithdrawWhitelist",
      "type": "event"
    },
    {
      "anonymous": false,
      "inputs": [
        {
          "indexed": true,
          "internalType": "address",
          "name": "sender",
          "type": "address"
        },
        {
          "indexed": true,
          "internalType": "contract IERC20",
          "name": "token",
          "type": "address"
        },
        {
          "indexed": false,
          "internalType": "uint256",
          "name": "amount",
          "type": "uint256"
        },
        {
          "indexed": false,
          "internalType": "uint256",
          "name": "requestWithdrawNo",
          "type": "uint256"
        },
        {
          "indexed": false,
          "internalType": "bool",
          "name": "emergency",
          "type": "bool"
        }
      ],
      "name": "RequestWithdraw",
      "type": "event"
    },
    {
      "anonymous": false,
      "inputs": [
        {
          "indexed": true,
          "internalType": "bytes32",
          "name": "role",
          "type": "bytes32"
        },
        {
          "indexed": true,
          "internalType": "bytes32",
          "name": "previousAdminRole",
          "type": "bytes32"
        },
        {
          "indexed": true,
          "internalType": "bytes32",
          "name": "newAdminRole",
          "type": "bytes32"
        }
      ],
      "name": "RoleAdminChanged",
      "type": "event"
    },
    {
      "anonymous": false,
      "inputs": [
        {
          "indexed": true,
          "internalType": "bytes32",
          "name": "role",
          "type": "bytes32"
        },
        {
          "indexed": true,
          "internalType": "address",
          "name": "account",
          "type": "address"
        },
        {
          "indexed": true,
          "internalType": "address",
          "name": "sender",
          "type": "address"
        }
      ],
      "name": "RoleGranted",
      "type": "event"
    },
    {
      "anonymous": false,
      "inputs": [
        {
          "indexed": true,
          "internalType": "bytes32",
          "name": "role",
          "type": "bytes32"
        },
        {
          "indexed": true,
          "internalType": "address",
          "name": "account",
          "type": "address"
        },
        {
          "indexed": true,
          "internalType": "address",
          "name": "sender",
          "type": "address"
        }
      ],
      "name": "RoleRevoked",
      "type": "event"
    },
    {
      "anonymous": false,
      "inputs": [
        {
          "indexed": true,
          "internalType": "contract IERC20",
          "name": "token",
          "type": "address"
        },
        {
          "indexed": false,
          "internalType": "uint256",
          "name": "USDTAmount",
          "type": "uint256"
        },
        {
          "indexed": false,
          "internalType": "address",
          "name": "ceffuAddress",
          "type": "address"
        }
      ],
      "name": "TransferToCeffu",
      "type": "event"
    },
    {
      "anonymous": false,
      "inputs": [
        {
          "indexed": false,
          "internalType": "address",
          "name": "account",
          "type": "address"
        }
      ],
      "name": "Unpaused",
      "type": "event"
    },
    {
      "anonymous": false,
      "inputs": [
        {
          "indexed": false,
          "internalType": "uint256",
          "name": "oldCommissionRate",
          "type": "uint256"
        },
        {
          "indexed": false,
          "internalType": "uint256",
          "name": "newCommissionRate",
          "type": "uint256"
        }
      ],
      "name": "UpdateBurnCommissionRate",
      "type": "event"
    },
    {
      "anonymous": false,
      "inputs": [
        {
          "indexed": false,
          "internalType": "address",
          "name": "oldCeffuAddress",
          "type": "address"
        },
        {
          "indexed": false,
          "internalType": "address",
          "name": "newCeffuAddress",
          "type": "address"
        }
      ],
      "name": "UpdateCeffuAddress",
      "type": "event"
    },
    {
      "anonymous": false,
      "inputs": [
        {
          "indexed": false,
          "internalType": "uint256",
          "name": "oldCommissionRate",
          "type": "uint256"
        },
        {
          "indexed": false,
          "internalType": "uint256",
          "name": "newCommissionRate",
          "type": "uint256"
        }
      ],
      "name": "UpdateCommissionRate",
      "type": "event"
    },
    {
      "anonymous": false,
      "inputs": [
        {
          "indexed": false,
          "internalType": "bool",
          "name": "oldValue",
          "type": "bool"
        },
        {
          "indexed": false,
          "internalType": "bool",
          "name": "newValue",
          "type": "bool"
        }
      ],
      "name": "UpdateEmergencyWithdrawEnabled",
      "type": "event"
    },
    {
      "anonymous": false,
      "inputs": [
        {
          "indexed": false,
          "internalType": "bool",
          "name": "oldTransferToCeffuEnabled",
          "type": "bool"
        },
        {
          "indexed": false,
          "internalType": "bool",
          "name": "newTransferToCeffuEnabled",
          "type": "bool"
        }
      ],
      "name": "UpdateTransferToCeffuEnabled",
      "type": "event"
    },
    {
      "anonymous": false,
      "inputs": [
        {
          "indexed": false,
          "internalType": "uint256",
          "name": "oldUSDFMaxSupply",
          "type": "uint256"
        },
        {
          "indexed": false,
          "internalType": "uint256",
          "name": "newUSDFMaxSupply",
          "type": "uint256"
        }
      ],
      "name": "UpdateUSDFMaxSupply",
      "type": "event"
    },
    {
      "anonymous": false,
      "inputs": [
        {
          "indexed": false,
          "internalType": "bool",
          "name": "oldUSDTDepositEnabled",
          "type": "bool"
        },
        {
          "indexed": false,
          "internalType": "bool",
          "name": "newUSDTDepositEnabled",
          "type": "bool"
        }
      ],
      "name": "UpdateUSDTDepositEnabled",
      "type": "event"
    },
    {
      "anonymous": false,
      "inputs": [
        {
          "indexed": false,
          "internalType": "bool",
          "name": "oldValue",
          "type": "bool"
        },
        {
          "indexed": false,
          "internalType": "bool",
          "name": "newValue",
          "type": "bool"
        }
      ],
      "name": "UpdateWithdrawEnabled",
      "type": "event"
    },
    {
      "anonymous": false,
      "inputs": [
        {
          "indexed": true,
          "internalType": "address",
          "name": "implementation",
          "type": "address"
        }
      ],
      "name": "Upgraded",
      "type": "event"
    },
    {
      "inputs": [],
      "name": "ADMIN_ROLE",
      "outputs": [
        {
          "internalType": "bytes32",
          "name": "",
          "type": "bytes32"
        }
      ],
      "stateMutability": "view",
      "type": "function"
    },
    {
      "inputs": [],
      "name": "AsUSDF",
      "outputs": [
        {
          "internalType": "contract IAsERC20",
          "name": "",
          "type": "address"
        }
      ],
      "stateMutability": "view",
      "type": "function"
    },
    {
      "inputs": [],
      "name": "AsUSDFEarn",
      "outputs": [
        {
          "internalType": "contract IAsUSDFEarn",
          "name": "",
          "type": "address"
        }
      ],
      "stateMutability": "view",
      "type": "function"
    },
    {
      "inputs": [],
      "name": "BOT_ROLE",
      "outputs": [
        {
          "internalType": "bytes32",
          "name": "",
          "type": "bytes32"
        }
      ],
      "stateMutability": "view",
      "type": "function"
    },
    {
      "inputs": [],
      "name": "DEFAULT_ADMIN_ROLE",
      "outputs": [
        {
          "internalType": "bytes32",
          "name": "",
          "type": "bytes32"
        }
      ],
      "stateMutability": "view",
      "type": "function"
    },
    {
      "inputs": [],
      "name": "PAUSE_ROLE",
      "outputs": [
        {
          "internalType": "bytes32",
          "name": "",
          "type": "bytes32"
        }
      ],
      "stateMutability": "view",
      "type": "function"
    },
    {
      "inputs": [],
      "name": "TIMELOCK_ADDRESS",
      "outputs": [
        {
          "internalType": "address",
          "name": "",
          "type": "address"
        }
      ],
      "stateMutability": "view",
      "type": "function"
    },
    {
      "inputs": [],
      "name": "UPGRADE_INTERFACE_VERSION",
      "outputs": [
        {
          "internalType": "string",
          "name": "",
          "type": "string"
        }
      ],
      "stateMutability": "view",
      "type": "function"
    },
    {
      "inputs": [],
      "name": "USDF",
      "outputs": [
        {
          "internalType": "contract IAsERC20",
          "name": "",
          "type": "address"
        }
      ],
      "stateMutability": "view",
      "type": "function"
    },
    {
      "inputs": [],
      "name": "USDFMaxSupply",
      "outputs": [
        {
          "internalType": "uint256",
          "name": "",
          "type": "uint256"
        }
      ],
      "stateMutability": "view",
      "type": "function"
    },
    {
      "inputs": [],
      "name": "USDT",
      "outputs": [
        {
          "internalType": "contract IERC20",
          "name": "",
          "type": "address"
        }
      ],
      "stateMutability": "view",
      "type": "function"
    },
    {
      "inputs": [],
      "name": "USDTDepositEnabled",
      "outputs": [
        {
          "internalType": "bool",
          "name": "",
          "type": "bool"
        }
      ],
      "stateMutability": "view",
      "type": "function"
    },
    {
      "inputs": [],
      "name": "WITHDRAW_VAULT",
      "outputs": [
        {
          "internalType": "contract IWithdrawVault",
          "name": "",
          "type": "address"
        }
      ],
      "stateMutability": "view",
      "type": "function"
    },
    {
      "inputs": [
        {
          "internalType": "address[]",
          "name": "users",
          "type": "address[]"
        }
      ],
      "name": "addEmergencyWithdrawWhitelist",
      "outputs": [],
      "stateMutability": "nonpayable",
      "type": "function"
    },
    {
      "inputs": [],
      "name": "burnCommissionRate",
      "outputs": [
        {
          "internalType": "uint256",
          "name": "",
          "type": "uint256"
        }
      ],
      "stateMutability": "view",
      "type": "function"
    },
    {
      "inputs": [],
      "name": "ceffuAddress",
      "outputs": [
        {
          "internalType": "address",
          "name": "",
          "type": "address"
        }
      ],
      "stateMutability": "view",
      "type": "function"
    },
    {
      "inputs": [
        {
          "internalType": "uint256[]",
          "name": "requestWithdrawNos",
          "type": "uint256[]"
        }
      ],
      "name": "claimWithdraw",
      "outputs": [],
      "stateMutability": "nonpayable",
      "type": "function"
    },
    {
      "inputs": [],
      "name": "commissionRate",
      "outputs": [
        {
          "internalType": "uint256",
          "name": "",
          "type": "uint256"
        }
      ],
      "stateMutability": "view",
      "type": "function"
    },
    {
      "inputs": [
        {
          "internalType": "uint256",
          "name": "amountIn",
          "type": "uint256"
        }
      ],
      "name": "deposit",
      "outputs": [],
      "stateMutability": "nonpayable",
      "type": "function"
    },
    {
      "inputs": [
        {
          "components": [
            {
              "internalType": "contract IERC20",
              "name": "withdrawToken",
              "type": "address"
            },
            {
              "internalType": "uint256",
              "name": "requestWithdrawNo",
              "type": "uint256"
            },
            {
              "internalType": "address",
              "name": "receipt",
              "type": "address"
            }
          ],
          "internalType": "struct IWithdrawable.DistributeWithdrawInfo[]",
          "name": "distributeWithdrawInfoList",
          "type": "tuple[]"
        }
      ],
      "name": "distributeWithdraw",
      "outputs": [],
      "stateMutability": "nonpayable",
      "type": "function"
    },
    {
      "inputs": [],
      "name": "emergencyWithdrawEnabled",
      "outputs": [
        {
          "internalType": "bool",
          "name": "",
          "type": "bool"
        }
      ],
      "stateMutability": "view",
      "type": "function"
    },
    {
      "inputs": [
        {
          "internalType": "address",
          "name": "user",
          "type": "address"
        }
      ],
      "name": "emergencyWithdrawWhitelist",
      "outputs": [
        {
          "internalType": "bool",
          "name": "",
          "type": "bool"
        }
      ],
      "stateMutability": "view",
      "type": "function"
    },
    {
      "inputs": [
        {
          "internalType": "bytes32",
          "name": "role",
          "type": "bytes32"
        }
      ],
      "name": "getRoleAdmin",
      "outputs": [
        {
          "internalType": "bytes32",
          "name": "",
          "type": "bytes32"
        }
      ],
      "stateMutability": "view",
      "type": "function"
    },
    {
      "inputs": [
        {
          "internalType": "bytes32",
          "name": "role",
          "type": "bytes32"
        },
        {
          "internalType": "uint256",
          "name": "index",
          "type": "uint256"
        }
      ],
      "name": "getRoleMember",
      "outputs": [
        {
          "internalType": "address",
          "name": "",
          "type": "address"
        }
      ],
      "stateMutability": "view",
      "type": "function"
    },
    {
      "inputs": [
        {
          "internalType": "bytes32",
          "name": "role",
          "type": "bytes32"
        }
      ],
      "name": "getRoleMemberCount",
      "outputs": [
        {
          "internalType": "uint256",
          "name": "",
          "type": "uint256"
        }
      ],
      "stateMutability": "view",
      "type": "function"
    },
    {
      "inputs": [
        {
          "internalType": "bytes32",
          "name": "role",
          "type": "bytes32"
        }
      ],
      "name": "getRoleMembers",
      "outputs": [
        {
          "internalType": "address[]",
          "name": "",
          "type": "address[]"
        }
      ],
      "stateMutability": "view",
      "type": "function"
    },
    {
      "inputs": [
        {
          "internalType": "bytes32",
          "name": "role",
          "type": "bytes32"
        },
        {
          "internalType": "address",
          "name": "account",
          "type": "address"
        }
      ],
      "name": "grantRole",
      "outputs": [],
      "stateMutability": "nonpayable",
      "type": "function"
    },
    {
      "inputs": [
        {
          "internalType": "bytes32",
          "name": "role",
          "type": "bytes32"
        },
        {
          "internalType": "address",
          "name": "account",
          "type": "address"
        }
      ],
      "name": "hasRole",
      "outputs": [
        {
          "internalType": "bool",
          "name": "",
          "type": "bool"
        }
      ],
      "stateMutability": "view",
      "type": "function"
    },
    {
      "inputs": [
        {
          "internalType": "address",
          "name": "_admin",
          "type": "address"
        }
      ],
      "name": "initialize",
      "outputs": [],
      "stateMutability": "nonpayable",
      "type": "function"
    },
    {
      "inputs": [
        {
          "internalType": "uint256",
          "name": "amountIn",
          "type": "uint256"
        }
      ],
      "name": "mintAsUSDF",
      "outputs": [],
      "stateMutability": "nonpayable",
      "type": "function"
    },
    {
      "inputs": [],
      "name": "pause",
      "outputs": [],
      "stateMutability": "nonpayable",
      "type": "function"
    },
    {
      "inputs": [],
      "name": "paused",
      "outputs": [
        {
          "internalType": "bool",
          "name": "",
          "type": "bool"
        }
      ],
      "stateMutability": "view",
      "type": "function"
    },
    {
      "inputs": [],
      "name": "proxiableUUID",
      "outputs": [
        {
          "internalType": "bytes32",
          "name": "",
          "type": "bytes32"
        }
      ],
      "stateMutability": "view",
      "type": "function"
    },
    {
      "inputs": [
        {
          "internalType": "address[]",
          "name": "users",
          "type": "address[]"
        }
      ],
      "name": "removeEmergencyWithdrawWhitelist",
      "outputs": [],
      "stateMutability": "nonpayable",
      "type": "function"
    },
    {
      "inputs": [
        {
          "internalType": "bytes32",
          "name": "role",
          "type": "bytes32"
        },
        {
          "internalType": "address",
          "name": "callerConfirmation",
          "type": "address"
        }
      ],
      "name": "renounceRole",
      "outputs": [],
      "stateMutability": "nonpayable",
      "type": "function"
    },
    {
      "inputs": [
        {
          "internalType": "uint256",
          "name": "amount",
          "type": "uint256"
        }
      ],
      "name": "requestEmergencyWithdraw",
      "outputs": [],
      "stateMutability": "nonpayable",
      "type": "function"
    },
    {
      "inputs": [
        {
          "internalType": "uint256",
          "name": "amount",
          "type": "uint256"
        }
      ],
      "name": "requestWithdraw",
      "outputs": [],
      "stateMutability": "nonpayable",
      "type": "function"
    },
    {
      "inputs": [],
      "name": "requestWithdrawMaxNo",
      "outputs": [
        {
          "internalType": "uint256",
          "name": "",
          "type": "uint256"
        }
      ],
      "stateMutability": "view",
      "type": "function"
    },
    {
      "inputs": [
        {
          "internalType": "uint256",
          "name": "requestWithdrawNo",
          "type": "uint256"
        }
      ],
      "name": "requestWithdraws",
      "outputs": [
        {
          "components": [
            {
              "internalType": "contract IERC20",
              "name": "withdrawToken",
              "type": "address"
            },
            {
              "internalType": "uint256",
              "name": "withdrawAmount",
              "type": "uint256"
            },
            {
              "internalType": "uint256",
              "name": "receiveAmount",
              "type": "uint256"
            },
            {
              "internalType": "uint256",
              "name": "withdrawTime",
              "type": "uint256"
            },
            {
              "internalType": "uint256",
              "name": "exchangePrice",
              "type": "uint256"
            },
            {
              "internalType": "bool",
              "name": "claimable",
              "type": "bool"
            },
            {
              "internalType": "address",
              "name": "receipt",
              "type": "address"
            },
            {
              "internalType": "bool",
              "name": "emergency",
              "type": "bool"
            }
          ],
          "internalType": "struct IWithdrawable.RequestWithdrawInfo",
          "name": "",
          "type": "tuple"
        }
      ],
      "stateMutability": "view",
      "type": "function"
    },
    {
      "inputs": [
        {
          "internalType": "bytes32",
          "name": "role",
          "type": "bytes32"
        },
        {
          "internalType": "address",
          "name": "account",
          "type": "address"
        }
      ],
      "name": "revokeRole",
      "outputs": [],
      "stateMutability": "nonpayable",
      "type": "function"
    },
    {
      "inputs": [
        {
          "internalType": "bytes4",
          "name": "interfaceId",
          "type": "bytes4"
        }
      ],
      "name": "supportsInterface",
      "outputs": [
        {
          "internalType": "bool",
          "name": "",
          "type": "bool"
        }
      ],
      "stateMutability": "view",
      "type": "function"
    },
    {
      "inputs": [],
      "name": "transferToCeffu",
      "outputs": [],
      "stateMutability": "nonpayable",
      "type": "function"
    },
    {
      "inputs": [],
      "name": "transferToCeffuEnabled",
      "outputs": [
        {
          "internalType": "bool",
          "name": "",
          "type": "bool"
        }
      ],
      "stateMutability": "view",
      "type": "function"
    },
    {
      "inputs": [],
      "name": "unpause",
      "outputs": [],
      "stateMutability": "nonpayable",
      "type": "function"
    },
    {
      "inputs": [
        {
          "internalType": "uint256",
          "name": "_commissionRate",
          "type": "uint256"
        }
      ],
      "name": "updateBurnCommissionRate",
      "outputs": [],
      "stateMutability": "nonpayable",
      "type": "function"
    },
    {
      "inputs": [
        {
          "internalType": "address",
          "name": "_ceffuAddress",
          "type": "address"
        }
      ],
      "name": "updateCeffuAddress",
      "outputs": [],
      "stateMutability": "nonpayable",
      "type": "function"
    },
    {
      "inputs": [
        {
          "internalType": "uint256",
          "name": "_commissionRate",
          "type": "uint256"
        }
      ],
      "name": "updateCommissionRate",
      "outputs": [],
      "stateMutability": "nonpayable",
      "type": "function"
    },
    {
      "inputs": [
        {
          "internalType": "bool",
          "name": "enabled",
          "type": "bool"
        }
      ],
      "name": "updateEmergencyWithdrawEnabled",
      "outputs": [],
      "stateMutability": "nonpayable",
      "type": "function"
    },
    {
      "inputs": [
        {
          "internalType": "bool",
          "name": "enabled",
          "type": "bool"
        }
      ],
      "name": "updateTransferToCeffuEnabled",
      "outputs": [],
      "stateMutability": "nonpayable",
      "type": "function"
    },
    {
      "inputs": [
        {
          "internalType": "uint256",
          "name": "_USDFMaxSupply",
          "type": "uint256"
        }
      ],
      "name": "updateUSDFMaxSupply",
      "outputs": [],
      "stateMutability": "nonpayable",
      "type": "function"
    },
    {
      "inputs": [
        {
          "internalType": "bool",
          "name": "enabled",
          "type": "bool"
        }
      ],
      "name": "updateUSDTDepositEnabled",
      "outputs": [],
      "stateMutability": "nonpayable",
      "type": "function"
    },
    {
      "inputs": [
        {
          "internalType": "bool",
          "name": "enabled",
          "type": "bool"
        }
      ],
      "name": "updateWithdrawEnabled",
      "outputs": [],
      "stateMutability": "nonpayable",
      "type": "function"
    },
    {
      "inputs": [
        {
          "internalType": "address",
          "name": "newImplementation",
          "type": "address"
        },
        {
          "internalType": "bytes",
          "name": "data",
          "type": "bytes"
        }
      ],
      "name": "upgradeToAndCall",
      "outputs": [],
      "stateMutability": "payable",
      "type": "function"
    },
    {
      "inputs": [],
      "name": "withdrawEnabled",
      "outputs": [
        {
          "internalType": "bool",
          "name": "",
          "type": "bool"
        }
      ],
      "stateMutability": "view",
      "type": "function"
    }
  ],
  "transactionHash": "0xc18b83e0cc24c32202135ac4622e020de74273a4c26da8c9256c2f5fbc963dad",
  "args": [
    "0xB2c2C14B0f2d45E8f5A8FFC67dB3279769dC6e56",
    "0xB9EF9C975EBB606498d14B105a1619E89255c972",
    "0x28b289AAE276347cb9D32B3e444DBe352166Bc04",
    "0xaE1F62f04b5b08D52f8856EE40FAa64321A5c75a",
    "0xe2aD132D5D73Dd716Df5f4D62CcbF7D527e871BB"
  ],
  "numDeployments": 1,
  "solcInputHash": "50b211bf201ca96f9aec4aeeeec68c2b",
  "bytecode": "0x6101a0604090808252346102985760a08161475d803803809161002282856103a3565b833981010312610298578051916001600160a01b03808416918285036102985760208085015194838616938487036102985761005f8483016103dc565b9460608301519282841684036102985760800151968288169384890361029857306080528960a0528760c05260e0521561034e57156102fe578416156102af5790806004949392610100988952610120978852610140948552610180968752835195868092630e98713360e11b82525afa9384156102a457600094610268575b506101609384527ff0c57e16840df040f15088dc2f81fe391c3923bec73e23a9662efc9c229c6a009081549160ff83851c16610257576001600160401b03906002600160401b031984831601610215575b50505050519361436c95866103f1873960805186818161189d0152611994015260a05186818161049c01528181610546015261287f015260c0518681816105710152818161159a015281816120b7015281816120f3015281816122d4015281816127a60152818161280901526128aa015260e05186818161043f015281816104d70152610dda0152518581816109df015281816119c701526123eb0152518481816108b001528181610ca701526138af015251838181610e7201528181611de1015261395a0152518281816110db0152611e200152518181816117b90152611db00152f35b6001600160401b0319909316811790925582519182527fc7f505b2f371ae2175ee4913f4499e1f2633a7b5936321eed1cdaeb6115181d291a138808080610130565b835163f92ee8a960e01b8152600490fd5b9080945081813d831161029d575b61028081836103a3565b8101031261029857610291906103dc565b92386100df565b600080fd5b503d610276565b82513d6000823e3d90fd5b50608491519062461bcd60e51b825260048201526024808201527f55534446416464726573732063616e6e6f742062652061207a65726f206164646044820152637265737360e01b6064820152fd5b835162461bcd60e51b8152600481018490526024808201527f55534454416464726573732063616e6e6f742062652061207a65726f206164646044820152637265737360e01b6064820152608490fd5b845162461bcd60e51b815260048101859052602860248201527f74696d654c6f636b416464726573732063616e6e6f742062652061207a65726f604482015267206164647265737360c01b6064820152608490fd5b601f909101601f19168101906001600160401b038211908210176103c657604052565b634e487b7160e01b600052604160045260246000fd5b51906001600160a01b03821682036102985756fe6080604052600436101561001257600080fd5b60003560e01c8062fa3d501461326457806301ffc9a714613190578063031919831461306f57806306c53fb51461304c5780630d06f30514612f6e5780631415400714612dec578063159201e214612dce5780631bc1f57a14612ce05780631e6de5d814612bfd5780632287e96a14612bbb578063248a9ca314612b7f5780632c06c73114612b555780632e3e74a314612ae75780632f2ff15d14612a5457806336568abe146129f5578063389ed267146129ba5780633a9b0a74146124d65780633cb2388f146124b05780633f4ba83a1461240f578063431c1830146123cb5780634660a19d14611ffd57806348c32e3c14611d515780634c8439be14611c225780634f1ef2861461191757806352d1902d146118825780635747e69f1461183d5780635c975abb146117fb5780635ea1d6f8146117dd5780636cdc740914611799578063745400c9146114f95780637455617f146113d657806375b238fc1461139b5780637bb28d8a146112c05780638456cb59146111bf5780639010d07c1461115a57806391d14854146110ff578063933db16e146110bb578063a217fddf1461109f578063a3246ad314610fd1578063ad3cb1cc14610f0e578063b150377414610ed3578063b22ccd7614610e96578063b249b35d14610e52578063b6b55f2514610dfe578063baaa3ed314610dba578063bab3a70714610c36578063c4d66de8146108d4578063c54e44eb14610890578063c944496f1461077f578063ca15c87314610734578063d547741f146106e6578063dc3e279f146106c8578063dedd1a62146106645763eb9259ef1461026d57600080fd5b346105cf5760203660031901126105cf5760043567ffffffffffffffff81116105cf5761029e9036906004016132fe565b6102a6613751565b6102ae6137ab565b6102e0600160ff7f2ff1b357837e9d69e3491be7daa2c5781ef3281ac1f296e048fa14e0918117585416151514613800565b60005b8181106103105760017f9b779b17422d0df92223018b32b4d1fa46e071723d6817e2486d003becc55f0055005b61031b81838561353c565b3590816000527f2ff1b357837e9d69e3491be7daa2c5781ef3281ac1f296e048fa14e09181175b602052604060002091604051926103588461332f565b6001600160a01b038154168452600181015460208501526005600282015491826040870152600381015460608701526004810154608087015201549060ff82161515908160a087015260ff60c08701936001600160a01b038160081c16855260a81c16151560e08701521515908161065c575b5015610618576001600160a01b0333915116036105d457806000527f2ff1b357837e9d69e3491be7daa2c5781ef3281ac1f296e048fa14e09181175b602052600060056040822082815582600182015582600282015582600382015582600482015501556040830151926001600160a01b037f0000000000000000000000000000000000000000000000000000000000000000163b156105cf57604051937fbeabacc80000000000000000000000000000000000000000000000000000000085523360048601526001600160a01b037f00000000000000000000000000000000000000000000000000000000000000001660248601526044850152600084606481836001600160a01b037f0000000000000000000000000000000000000000000000000000000000000000165af19384156105c3576001946105b4575b5060406020820151910151907fb143cbc1b45edd3fe39b60a0bb8aafb1e1d42da89e96e1aff4449ebdc37e48f2604051806105ab6001600160a01b037f000000000000000000000000000000000000000000000000000000000000000016966001600160a01b037f000000000000000000000000000000000000000000000000000000000000000016963396846040919493926060820195825260208201520152565b0390a4016102e3565b6105bd9061334c565b38610508565b6040513d6000823e3d90fd5b600080fd5b606460405162461bcd60e51b815260206004820152600e60248201527f696c6c6567616c2073656e6465720000000000000000000000000000000000006044820152fd5b606460405162461bcd60e51b815260206004820152600d60248201527f6e6f7420617661696c61626c65000000000000000000000000000000000000006044820152fd5b9050386103cb565b346105cf5760203660031901126105cf57602060ff6106bc6106846132d2565b6001600160a01b03166000527f2ff1b357837e9d69e3491be7daa2c5781ef3281ac1f296e048fa14e09181175a602052604060002090565b54166040519015158152f35b346105cf5760003660031901126105cf576020600354604051908152f35b346105cf5760403660031901126105cf576107326004356107056132e8565b908060005260008051602061431783398151915260205261072d6001604060002001546136c5565b6136f8565b005b346105cf5760203660031901126105cf576004356000527fc1f6fe24621ce81ec5827caf0253cadb74709b061630e6b55e823717059320006020526020604060002054604051908152f35b346105cf5760203660031901126105cf5760043561079b61360d565b801561084c57600154908082146107e2577f6230b1999cd6d4ac7d3cff7b8bc0557c8e52bbdc0e1f096beae8c6a1660b2ee3918160409260015582519182526020820152a1005b608460405162461bcd60e51b815260206004820152603260248201527f6e6577555344464d6178537570706c792063616e206e6f74206265206571756160448201527f6c206f6c64555344464d6178537570706c7900000000000000000000000000006064820152fd5b606460405162461bcd60e51b815260206004820152601e60248201527f555344464d6178537570706c792063616e6e6f742062652061207a65726f00006044820152fd5b346105cf5760003660031901126105cf5760206040516001600160a01b037f0000000000000000000000000000000000000000000000000000000000000000168152f35b346105cf576020806003193601126105cf576108ee6132d2565b907ff0c57e16840df040f15088dc2f81fe391c3923bec73e23a9662efc9c229c6a009182549060ff8260401c16159167ffffffffffffffff811680159081610c2e575b6001149081610c24575b159081610c1b575b50610bf15767ffffffffffffffff198116600117855582610bd2575b506109686140b0565b6109706140b0565b7fcd5ed15c6e187e77e9aee88184c21f4f2182ab5827cb3b7e07fbedcd63f03300805460ff191690556109a16140b0565b6109a96140b0565b6109b16140b0565b6109b96140b0565b60017f9b779b17422d0df92223018b32b4d1fa46e071723d6817e2486d003becc55f00557f0000000000000000000000000000000000000000000000000000000000000000610a0781613c8f565b610b8b575b50610a1681613c8f565b610b46575b610a2481613d2f565b610ae1575b610a3281613df1565b610a7a575b50610a3e57005b7fc7f505b2f371ae2175ee4913f4499e1f2633a7b5936321eed1cdaeb6115181d29168ff000000000000000019815416905560405160018152a1005b610ada907f139c2898040ef16910dc9f44dc697df79363da767d8bc92f2e310312b816e46d6000527fc1f6fe24621ce81ec5827caf0253cadb74709b061630e6b55e8237170593200084526001600160a01b036040600020911690614109565b5083610a37565b7fa49807205ce4d355092ef5a8a18f56e8913cf4a201fbe287825b095693c217756000527fc1f6fe24621ce81ec5827caf0253cadb74709b061630e6b55e823717059320008352610b4060406000206001600160a01b03831690614109565b50610a29565b600080527fc1f6fe24621ce81ec5827caf0253cadb74709b061630e6b55e823717059320008352610b8560406000206001600160a01b03831690614109565b50610a1b565b610bcb90600080527fc1f6fe24621ce81ec5827caf0253cadb74709b061630e6b55e8237170593200085526001600160a01b036040600020911690614109565b5084610a0c565b68ffffffffffffffffff1916680100000000000000011784558461095f565b60046040517ff92ee8a9000000000000000000000000000000000000000000000000000000008152fd5b90501586610943565b303b15915061093b565b849150610931565b346105cf5760003660031901126105cf57610c4f613751565b610c57613669565b60025460ff8160a81c16610c8c575b60017f9b779b17422d0df92223018b32b4d1fa46e071723d6817e2486d003becc55f0055005b6001600160a01b03809160081c16610ca5811515613480565b7f000000000000000000000000000000000000000000000000000000000000000082811692604051926370a0823160e01b84523060048501526020928385602481895afa9485156105c357600095610d8b575b508415610d475791610d3085604095937fd560b537bb03a2e10775ff1c5992f0ba20cf0bdacefb10c30c86fc69e9d6fc829795613c33565b60025460081c16908351928352820152a280610c66565b6064846040519062461bcd60e51b82526004820152601460248201527f496e73756666696369656e742062616c616e63650000000000000000000000006044820152fd5b9094508381813d8311610db3575b610da38183613360565b810103126105cf57519386610cf8565b503d610d99565b346105cf5760003660031901126105cf5760206040516001600160a01b037f0000000000000000000000000000000000000000000000000000000000000000168152f35b346105cf5760203660031901126105cf57610e17613751565b610e1f6137ab565b610e2b33600435613896565b5060017f9b779b17422d0df92223018b32b4d1fa46e071723d6817e2486d003becc55f0055005b346105cf5760003660031901126105cf5760206040516001600160a01b037f0000000000000000000000000000000000000000000000000000000000000000168152f35b346105cf5760003660031901126105cf5760207f2ff1b357837e9d69e3491be7daa2c5781ef3281ac1f296e048fa14e09181175954604051908152f35b346105cf5760003660031901126105cf5760206040517f6d5c9827c1f410bbb61d3b2a0a34b6b30492d9a1fd38588edca7ec4562ab9c9b8152f35b346105cf5760003660031901126105cf576040516040810181811067ffffffffffffffff821117610fbb57604052600581526020907f352e302e3000000000000000000000000000000000000000000000000000000060208201526040518092602082528251908160208401526000935b828510610fa2575050604092506000838284010152601f80199101168101030190f35b8481018201518686016040015293810193859350610f7f565b634e487b7160e01b600052604160045260246000fd5b346105cf576020806003193601126105cf576004356000527fc1f6fe24621ce81ec5827caf0253cadb74709b061630e6b55e823717059320008152604060002060405190818382549182815201908192600052846000209060005b8682821061108b57868661104282880383613360565b604051928392818401908285525180915260408401929160005b82811061106b57505050500390f35b83516001600160a01b03168552869550938101939281019260010161105c565b83548552909301926001928301920161102c565b346105cf5760003660031901126105cf57602060405160008152f35b346105cf5760003660031901126105cf5760206040516001600160a01b037f0000000000000000000000000000000000000000000000000000000000000000168152f35b346105cf5760403660031901126105cf576111186132e8565b6004356000526000805160206143178339815191526020526001600160a01b0360406000209116600052602052602060ff604060002054166040519015158152f35b346105cf5760403660031901126105cf576004356000527fc1f6fe24621ce81ec5827caf0253cadb74709b061630e6b55e8237170593200060205260206001600160a01b036111af6024356040600020614098565b9190546040519260031b1c168152f35b346105cf5760003660031901126105cf573360009081527f85aa68ae9688c2bba3dc27a57a38bf2786c03751927fe89ecfd8b396d55ff13360205260409020547f139c2898040ef16910dc9f44dc697df79363da767d8bc92f2e310312b816e46d9060ff1615611289576112316137ab565b7fcd5ed15c6e187e77e9aee88184c21f4f2182ab5827cb3b7e07fbedcd63f03300600160ff198254161790557f62e78cea01bee320cd4e420270b5ea74000d11b0c9f74754ebdbfc544b05a2586020604051338152a1005b604490604051907fe2517d3f0000000000000000000000000000000000000000000000000000000082523360048301526024820152fd5b346105cf5760203660031901126105cf57600435801515908181036105cf573360009081527fb16e88c42fd4e48df2dd6a2eabd6bc9aec654ec170056b470819f8892cc6431c60205260409020547f935169502e37bf7086b6a43f94f9b855ee8320b72962953cd0de3aff900f6d75929061133d9060ff166134f1565b7f2ff1b357837e9d69e3491be7daa2c5781ef3281ac1f296e048fa14e091811758805460ff8082169361137481861515141561358a565b60ff199092169116179055604080519115158252911515602082015290819081015b0390a1005b346105cf5760003660031901126105cf5760206040517fa49807205ce4d355092ef5a8a18f56e8913cf4a201fbe287825b095693c217758152f35b346105cf5760203660031901126105cf576004358015158091036105cf576113fc61360d565b60025460ff8160a81c1682811515146114695760ff60a81b1990911660a892831b60ff60a81b16176002819055604080519215158352921c60ff16151560208201527fbb97b9376ffbf001f546e36a32cb5dada7a4148a80036c80488cb6e9a53837b19181908101611396565b60a460405162461bcd60e51b815260206004820152604460248201527f6e65775472616e73666572546f4365666675456e61626c65642063616e206e6f60448201527f7420626520657175616c206f6c645472616e73666572546f4365666675456e6160648201527f626c6564000000000000000000000000000000000000000000000000000000006084820152fd5b346105cf5760203660031901126105cf57600435611515613751565b61151d6137ab565b600354906127109182039180831161178357670de0b6b3a7640000928084029384048103611783576115508291846135e2565b0490611584600160ff7f2ff1b357837e9d69e3491be7daa2c5781ef3281ac1f296e048fa14e0918117585416151514613800565b61158f83151561384b565b6001600160a01b03807f000000000000000000000000000000000000000000000000000000000000000016946115c785303389613fb9565b604051936115d48561332f565b8685526020850192868452604086019182526060860194428652608087019304835260a08601936000855260c087019033825260e0880194600086527f2ff1b357837e9d69e3491be7daa2c5781ef3281ac1f296e048fa14e09181175998895491600183018093116117835761172499611709976116cd95856005968f556000527f2ff1b357837e9d69e3491be7daa2c5781ef3281ac1f296e048fa14e09181175b60205288604060002095511673ffffffffffffffffffffffffffffffffffffffff198654161785555160018501555160028401555160038301555160048201550195511515869060ff801983541691151516179055565b51845474ffffffffffffffffffffffffffffffffffffffff001916911660081b74ffffffffffffffffffffffffffffffffffffffff0016178355565b51815460ff60a81b191690151560a81b60ff60a81b16179055565b546040519182526020820152600060408201527f3d049c685010061396ccb788b984289782a932f0fcf3321a0dccde30f43f3cd160603392a360017f9b779b17422d0df92223018b32b4d1fa46e071723d6817e2486d003becc55f0055005b634e487b7160e01b600052601160045260246000fd5b346105cf5760003660031901126105cf5760206040516001600160a01b037f0000000000000000000000000000000000000000000000000000000000000000168152f35b346105cf5760003660031901126105cf576020600054604051908152f35b346105cf5760003660031901126105cf57602060ff7fcd5ed15c6e187e77e9aee88184c21f4f2182ab5827cb3b7e07fbedcd63f0330054166040519015158152f35b346105cf5760003660031901126105cf57602060ff7f2ff1b357837e9d69e3491be7daa2c5781ef3281ac1f296e048fa14e0918117585460081c166040519015158152f35b346105cf5760003660031901126105cf576001600160a01b037f00000000000000000000000000000000000000000000000000000000000000001630036118ed5760206040517f360894a13ba1a3210667c828492db98dca3e2076cc3735a920a3ca505d382bbc8152f35b60046040517fe07c8dba000000000000000000000000000000000000000000000000000000008152fd5b60403660031901126105cf5761192b6132d2565b602490813567ffffffffffffffff81116105cf57366023820112156105cf57806004013561195881613382565b926119666040519485613360565b81845260209182850193368783830101116105cf5781600092888693018737860101526001600160a01b03807f000000000000000000000000000000000000000000000000000000000000000016803014908115611bf4575b506118ed57807f0000000000000000000000000000000000000000000000000000000000000000163303611bb1578116936040517f52d1902d0000000000000000000000000000000000000000000000000000000081528381600481895afa60009181611b82575b50611a4357868660405190634c9c8ce360e01b82526004820152fd5b8590877f360894a13ba1a3210667c828492db98dca3e2076cc3735a920a3ca505d382bbc91828103611b545750843b15611b3e57508173ffffffffffffffffffffffffffffffffffffffff19825416179055604051907fbc7cd75a20ee27fd9adebab32041f755214dbc6bffa90cc0225b39da2e5c2d3b600080a2815115611b0a575060006107329481925190845af4903d15611b01573d611ae481613382565b90611af26040519283613360565b8152600081943d92013e614283565b60609250614283565b935050505034611b1657005b807fb398979f0000000000000000000000000000000000000000000000000000000060049252fd5b8260405190634c9c8ce360e01b82526004820152fd5b604051907faa1d49a40000000000000000000000000000000000000000000000000000000082526004820152fd5b9091508481813d8311611baa575b611b9a8183613360565b810103126105cf57519088611a27565b503d611b90565b606483600e886040519262461bcd60e51b845260048401528201527f6f6e6c792074696d65206c6f636b0000000000000000000000000000000000006044820152fd5b9050817f360894a13ba1a3210667c828492db98dca3e2076cc3735a920a3ca505d382bbc54161415876119bf565b346105cf5760203660031901126105cf57600060e0604051611c438161332f565b8281528260208201528260408201528260608201528260808201528260a08201528260c082015201526004356000527f2ff1b357837e9d69e3491be7daa2c5781ef3281ac1f296e048fa14e09181175b602052610100604060002060405190611cab8261332f565b6001600160a01b0380825416928381526001830154602082019081526002840154936040830194855260038101546060840190815260056004830154926080860193845201549560a085019360ff88161515855260ff60e060c0880197898b60081c168952019860a81c161515885260405198895251602089015251604088015251606087015251608086015251151560a0850152511660c083015251151560e0820152f35b346105cf576020806003193601126105cf57611d6b613751565b611d736137ab565b611d7f30600435613896565b6040517f095ea7b3000000000000000000000000000000000000000000000000000000008082526001600160a01b037f0000000000000000000000000000000000000000000000000000000000000000811660048401819052602484018590527f00000000000000000000000000000000000000000000000000000000000000008216949390929190868160448160008a5af180156105c357611fe0575b507f0000000000000000000000000000000000000000000000000000000000000000166040516370a0823160e01b948582523060048301528782602481865afa9182156105c357600092611fb1575b50843b156105cf57604051907fb6b55f25000000000000000000000000000000000000000000000000000000008252600482015260008160248183895af180156105c357611fa2575b506040519485523060048601528685602481855afa80156105c3578795600091611f6b575b5091611eec611ef492604495946135d5565b903390613c33565b60006040519586948593845260048401528160248401525af180156105c357611f3d5760017f9b779b17422d0df92223018b32b4d1fa46e071723d6817e2486d003becc55f0055005b81611f5c92903d10611f64575b611f548183613360565b8101906135f5565b508080610c66565b503d611f4a565b868195949792503d8311611f9b575b611f848183613360565b810103126105cf5791518694919290611eec611eda565b503d611f7a565b611fab9061334c565b87611eb5565b9091508781813d8311611fd9575b611fc98183613360565b810103126105cf57519088611e6c565b503d611fbf565b611ff690873d8911611f6457611f548183613360565b5086611e1d565b346105cf5760203660031901126105cf57612016613751565b61201e6137ab565b6003546127109081039080821161178357670de0b6b3a76400009180830292830481036117835761205282916004356135e2565b049160ff7f2ff1b357837e9d69e3491be7daa2c5781ef3281ac1f296e048fa14e091811758546120886001838316151514613800565b612095600435151561384b565b60081c168015612385575b15612341576120dc60043530336001600160a01b037f000000000000000000000000000000000000000000000000000000000000000016613fb9565b604051926120e98461332f565b6001600160a01b037f000000000000000000000000000000000000000000000000000000000000000016845260043560208501526040840152426060840152046080820152600060a08201523360c0820152600160e08201527f2ff1b357837e9d69e3491be7daa2c5781ef3281ac1f296e048fa14e0918117595490600182018211611783576001828161229394017f2ff1b357837e9d69e3491be7daa2c5781ef3281ac1f296e048fa14e09181175955016000527f2ff1b357837e9d69e3491be7daa2c5781ef3281ac1f296e048fa14e09181175b60205260e0600560406000206001600160a01b0384511673ffffffffffffffffffffffffffffffffffffffff1982541617815560208401516001820155604084015160028201556060840151600382015560808401516004820155019161223860a08201511515849060ff801983541691151516179055565b60c0810151835474ffffffffffffffffffffffffffffffffffffffff00191660089190911b74ffffffffffffffffffffffffffffffffffffffff00161783550151815460ff60a81b191690151560a81b60ff60a81b16179055565b7f2ff1b357837e9d69e3491be7daa2c5781ef3281ac1f296e048fa14e091811759546040519060043582526020820152600160408201526001600160a01b037f000000000000000000000000000000000000000000000000000000000000000016907f3d049c685010061396ccb788b984289782a932f0fcf3321a0dccde30f43f3cd160603392a360017f9b779b17422d0df92223018b32b4d1fa46e071723d6817e2486d003becc55f0055005b606460405162461bcd60e51b815260206004820152601e60248201527f6e6f7420737570706f727420656d657267656e637920776974686472617700006044820152fd5b5060ff6123c4336001600160a01b03166000527f2ff1b357837e9d69e3491be7daa2c5781ef3281ac1f296e048fa14e09181175a602052604060002090565b54166120a0565b346105cf5760003660031901126105cf5760206040516001600160a01b037f0000000000000000000000000000000000000000000000000000000000000000168152f35b346105cf5760003660031901126105cf5761242861360d565b7fcd5ed15c6e187e77e9aee88184c21f4f2182ab5827cb3b7e07fbedcd63f03300805460ff8116156124865760ff191690557f5db9ee0a495bf2e6ff9c91a7834c1ba4fdd244a5e8aa4e537bd38aeae4b073aa6020604051338152a1005b60046040517f8dfc202b000000000000000000000000000000000000000000000000000000008152fd5b346105cf5760003660031901126105cf57602060ff60025460a81c166040519015158152f35b346105cf5760203660031901126105cf5767ffffffffffffffff80600435116105cf573660236004350112156105cf5760043560040135116105cf57366024606060043560040135026004350101116105cf57612531613751565b6125396137ab565b612541613669565b612573600160ff7f2ff1b357837e9d69e3491be7daa2c5781ef3281ac1f296e048fa14e0918117585416151514613800565b60005b6004356004013581106125a95760017f9b779b17422d0df92223018b32b4d1fa46e071723d6817e2486d003becc55f0055005b6044606082026004350101356000527f2ff1b357837e9d69e3491be7daa2c5781ef3281ac1f296e048fa14e09181175b602052604060002090604051916125ef8361332f565b60056001600160a01b03825416918285526001810154602086015260028101546040860152600381015460608601526004810154608086015201549060ff8216151560a08501526001600160a01b038260081c1660c085015260ff8260a81c16151560e0850152602460608402600435010135906001600160a01b0382168092036105cf5714908161298f575b501561294b5760a082015161290757600160a08301526044606082026004350101356000527f2ff1b357837e9d69e3491be7daa2c5781ef3281ac1f296e048fa14e09181175b6020526040600020916001600160a01b0381511673ffffffffffffffffffffffffffffffffffffffff1984541617835561279c60056020830151948560018201556040840151600282015560608401516003820155608084015160048201550161273e60a08401511515829060ff801983541691151516179055565b60c0830151815474ffffffffffffffffffffffffffffffffffffffff00191660089190911b74ffffffffffffffffffffffffffffffffffffffff001617815560e0830151815460ff60a81b191690151560a81b60ff60a81b16179055565b6001600160a01b037f0000000000000000000000000000000000000000000000000000000000000000163b156105cf576040517f9dc29fac0000000000000000000000000000000000000000000000000000000081523060048201526024810193909352600083604481837f00000000000000000000000000000000000000000000000000000000000000006001600160a01b03165af19283156105c3576001936128f8575b50604060208201519101517f051fd1ff7b2b4fc684c771fea49f105616b277782f1b76f0dfb7aeba85322699604051806128ef6001600160a01b037f000000000000000000000000000000000000000000000000000000000000000016956001600160a01b037f00000000000000000000000000000000000000000000000000000000000000001695604460608a0260043501013591846040919493926060820195825260208201520152565b0390a301612576565b6129019061334c565b83612842565b606460405162461bcd60e51b815260206004820152601260248201527f616c7265616479206469737472696275746500000000000000000000000000006044820152fd5b606460405162461bcd60e51b815260206004820152601160248201527f756e6d61746368656420726571756573740000000000000000000000000000006044820152fd5b90506001600160a01b03806129ad6064606086026004350101613562565b169160081c16148361267c565b346105cf5760003660031901126105cf5760206040517f139c2898040ef16910dc9f44dc697df79363da767d8bc92f2e310312b816e46d8152f35b346105cf5760403660031901126105cf57612a0e6132e8565b336001600160a01b03821603612a2a57610732906004356136f8565b60046040517f6697b232000000000000000000000000000000000000000000000000000000008152fd5b346105cf5760403660031901126105cf57600435612a706132e8565b81600052600080516020614317833981519152602052612a976001604060002001546136c5565b612aa18183613ead565b612aa757005b610732916000527fc1f6fe24621ce81ec5827caf0253cadb74709b061630e6b55e823717059320006020526001600160a01b036040600020911690614109565b346105cf5760203660031901126105cf577f631ac6993d9eb2969c96edc255b54ec8ac15b24d1beea718ef39661a12ef6e3d6040600435612b2661360d565b612b3461271082111561339e565b60035490612b448183141561340f565b8060035582519182526020820152a1005b346105cf5760003660031901126105cf5760206001600160a01b0360025460081c16604051908152f35b346105cf5760203660031901126105cf576004356000526000805160206143178339815191526020526020600160406000200154604051908152f35b346105cf5760003660031901126105cf57602060ff7f2ff1b357837e9d69e3491be7daa2c5781ef3281ac1f296e048fa14e09181175854166040519015158152f35b346105cf5760203660031901126105cf57600435801515908181036105cf573360009081527fb16e88c42fd4e48df2dd6a2eabd6bc9aec654ec170056b470819f8892cc6431c60205260409020547fbb4879b588c051d62e1c2d8df192de7452776a5e87bf175cb6e0e79309314e8a9290612c7a9060ff166134f1565b7f2ff1b357837e9d69e3491be7daa2c5781ef3281ac1f296e048fa14e091811758805461ff0060ff8260081c1693612cb681861515141561358a565b60081b1661ff00199190911617905560408051911515825291151560208201529081908101611396565b346105cf5760203660031901126105cf576004358015158091036105cf57612d0661360d565b60025460ff81168281151514612d645760ff1990911660ff9290921691821760025560408051911515825291151560208201527f771d7deea9597b8aeb7fc2011871081b6ed3512854a0fe8b45cc77472b3c3c0b9181908101611396565b608460405162461bcd60e51b815260206004820152603c60248201527f6e6577555344544465706f736974456e61626c65642063616e206e6f7420626560448201527f20657175616c206f6c64555344544465706f736974456e61626c6564000000006064820152fd5b346105cf5760003660031901126105cf576020600154604051908152f35b346105cf576020806003193601126105cf5767ffffffffffffffff906004358281116105cf57366023820112156105cf578060040135928311610fbb578260051b60405193612e3d84830186613360565b8452602483850191830101913683116105cf57602401905b828210612f4f575050507fa49807205ce4d355092ef5a8a18f56e8913cf4a201fbe287825b095693c2177560005260008051602061431783398151915281526040600020903360005252612eb060ff604060002054166134f1565b60005b8151811015610732576001906001600160a01b03612f0f81612ed58487613576565b51166001600160a01b03166000527f2ff1b357837e9d69e3491be7daa2c5781ef3281ac1f296e048fa14e09181175a602052604060002090565b805460ff19169055612f218285613576565b5116337f5b1784984bd66cc966c7a762a50272b4c9a6636352d697cbd8cd78cbe5130dad600080a301612eb3565b81356001600160a01b03811681036105cf578152908301908301612e55565b346105cf5760203660031901126105cf5760043567ffffffffffffffff81116105cf57612f9f9036906004016132fe565b3360009081527fb16e88c42fd4e48df2dd6a2eabd6bc9aec654ec170056b470819f8892cc6431c6020526040902054612fda9060ff166134f1565b60005b818110612fe657005b80612fff610684612ffa600194868861353c565b613562565b805460ff1916831790556001600160a01b0361301f612ffa83868861353c565b16337fe912795a13342c21b46ca582ea76273fb5d5e221ebe09b49094f8a380e26042c600080a301612fdd565b346105cf5760003660031901126105cf57602060ff600254166040519015158152f35b346105cf5760203660031901126105cf576130886132d2565b61309061360d565b6001600160a01b03908181166130a7811515613480565b60025492808460081c16918214613126577f52f891905af4a2ab087cfd1309ad3557576bbe561b3dc36afca86aa82ea70ba09374ffffffffffffffffffffffffffffffffffffffff001974ffffffffffffffffffffffffffffffffffffffff0060409560081b1691161780600255835192835260081c166020820152a1005b608460405162461bcd60e51b815260206004820152603060248201527f6e65774365666675416464726573732063616e206e6f7420626520657175616c60448201527f206f6c64436566667541646472657373000000000000000000000000000000006064820152fd5b346105cf5760203660031901126105cf576004357fffffffff0000000000000000000000000000000000000000000000000000000081168091036105cf57807f5a05180f0000000000000000000000000000000000000000000000000000000060209214908115613207575b506040519015158152f35b7f7965db0b0000000000000000000000000000000000000000000000000000000081149150811561323a575b50826131fc565b7f01ffc9a70000000000000000000000000000000000000000000000000000000091501482613233565b346105cf5760203660031901126105cf577f67fb2216d844c3553cf557bffa85f0fde0294999f808e61dcae1773d50d5e15060406004356132a361360d565b6132b161271082111561339e565b600054906132c18183141561340f565b8060005582519182526020820152a1005b600435906001600160a01b03821682036105cf57565b602435906001600160a01b03821682036105cf57565b9181601f840112156105cf5782359167ffffffffffffffff83116105cf576020808501948460051b0101116105cf57565b610100810190811067ffffffffffffffff821117610fbb57604052565b67ffffffffffffffff8111610fbb57604052565b90601f8019910116810190811067ffffffffffffffff821117610fbb57604052565b67ffffffffffffffff8111610fbb57601f01601f191660200190565b156133a557565b608460405162461bcd60e51b815260206004820152602860248201527f636f6d6d697373696f6e526174652063616e6e6f74206772656174657220746860448201527f616e2031303030300000000000000000000000000000000000000000000000006064820152fd5b1561341657565b608460405162461bcd60e51b815260206004820152603460248201527f6e6577436f6d6d697373696f6e526174652063616e206e6f742062652065717560448201527f616c206f6c64436f6d6d697373696f6e526174650000000000000000000000006064820152fd5b1561348757565b608460405162461bcd60e51b815260206004820152602560248201527f6365666675416464726573732063616e6e6f742062652061207a65726f20616460448201527f64726573730000000000000000000000000000000000000000000000000000006064820152fd5b156134f857565b606460405162461bcd60e51b815260206004820152600a60248201527f6f6e6c792061646d696e000000000000000000000000000000000000000000006044820152fd5b919081101561354c5760051b0190565b634e487b7160e01b600052603260045260246000fd5b356001600160a01b03811681036105cf5790565b805182101561354c5760209160051b010190565b1561359157565b606460405162461bcd60e51b815260206004820152600b60248201527f616c7265616479207365740000000000000000000000000000000000000000006044820152fd5b9190820391821161178357565b8181029291811591840414171561178357565b908160209103126105cf575180151581036105cf5790565b3360009081527fb16e88c42fd4e48df2dd6a2eabd6bc9aec654ec170056b470819f8892cc6431c60205260409020547fa49807205ce4d355092ef5a8a18f56e8913cf4a201fbe287825b095693c217759060ff16156112895750565b3360009081527f36130197f7aaaea25e2f7618ed3461508f72f582ad6fcbc07c16456fa5ee4bf760205260409020547f6d5c9827c1f410bbb61d3b2a0a34b6b30492d9a1fd38588edca7ec4562ab9c9b9060ff16156112895750565b8060005260008051602061431783398151915260205260406000203360005260205260ff60406000205416156112895750565b6137028282613f35565b918261370d57505090565b61374d916000527fc1f6fe24621ce81ec5827caf0253cadb74709b061630e6b55e823717059320006020526001600160a01b036040600020911690614193565b5090565b7f9b779b17422d0df92223018b32b4d1fa46e071723d6817e2486d003becc55f0060028154146137815760029055565b60046040517f3ee5aeb5000000000000000000000000000000000000000000000000000000008152fd5b60ff7fcd5ed15c6e187e77e9aee88184c21f4f2182ab5827cb3b7e07fbedcd63f0330054166137d657565b60046040517fd93c0665000000000000000000000000000000000000000000000000000000008152fd5b1561380757565b606460405162461bcd60e51b815260206004820152600f60248201527f77697468647261772070617573656400000000000000000000000000000000006044820152fd5b1561385257565b606460405162461bcd60e51b815260206004820152600e60248201527f696e76616c696420616d6f756e740000000000000000000000000000000000006044820152fd5b906138a282151561384b565b60ff6002541615613bef577f0000000000000000000000000000000000000000000000000000000000000000916001600160a01b0390818416916040908151946370a0823160e01b808752600496308882015260209160249983838c818c5afa928315613be457908891600094613baf575b50906139239130903390613fb9565b8551908152308982015282818b818b5afa908115613b2e5790879291600091613b7a575b5090613952916135d5565b03613b3957827f000000000000000000000000000000000000000000000000000000000000000016968451987f18160ddd000000000000000000000000000000000000000000000000000000008a52828a83818c5afa998a15613b2e5760009a613aff575b50600054612710908103818111613aeb576139d290896135e2565b04998a8101809111613ad75760015410613a975750873b156105cf5784517f40c10f190000000000000000000000000000000000000000000000000000000081526001600160a01b038416918101918252602082018a905290600090829081906040010381838c5af18015613a8c579189917f4366b54e61e348284316fa2721e0ad6845719007c1cea02e35561f46cc517a5b96959493613a7d575b5084519687528601521692a490565b613a869061334c565b38613a6e565b85513d6000823e3d90fd5b60179060649387519362461bcd60e51b85528401528201527f54686520616d6f756e7420697320746f6f206c617267650000000000000000006044820152fd5b50601182634e487b7160e01b600052526000fd5b82601185634e487b7160e01b600052526000fd5b9099508281813d8311613b27575b613b178183613360565b810103126105cf575198386139b7565b503d613b0d565b86513d6000823e3d90fd5b8660128960649387519362461bcd60e51b85528401528201527f416d6f756e74206e6f74206d61746368656400000000000000000000000000006044820152fd5b80929350848092503d8311613ba8575b613b948183613360565b810103126105cf5751869190613952613947565b503d613b8a565b85809295508193503d8311613bdd575b613bc98183613360565b810103126105cf5751918790613923613914565b503d613bbf565b87513d6000823e3d90fd5b606460405162461bcd60e51b815260206004820152601160248201527f4465706f736974206973207061757365640000000000000000000000000000006044820152fd5b6040517fa9059cbb0000000000000000000000000000000000000000000000000000000060208201526001600160a01b03929092166024830152604480830193909352918152613c8d91613c88606483613360565b614024565b565b6001600160a01b031660008181527fb7db2dd08fcb62d0c9e08c51941cae53c267786a0b75803fb7960902fc8ef97d60205260408120549091906000805160206143178339815191529060ff16613d2a578280526020526040822081835260205260408220600160ff1982541617905533917f2f8788117e7eff1d82e926ec794901d17c78024a50270940304540a733656f0d8180a4600190565b505090565b6001600160a01b031660008181527fb16e88c42fd4e48df2dd6a2eabd6bc9aec654ec170056b470819f8892cc6431c60205260408120549091907fa49807205ce4d355092ef5a8a18f56e8913cf4a201fbe287825b095693c21775906000805160206143178339815191529060ff16613deb578184526020526040832082845260205260408320600160ff198254161790557f2f8788117e7eff1d82e926ec794901d17c78024a50270940304540a733656f0d339380a4600190565b50505090565b6001600160a01b031660008181527f85aa68ae9688c2bba3dc27a57a38bf2786c03751927fe89ecfd8b396d55ff13360205260408120549091907f139c2898040ef16910dc9f44dc697df79363da767d8bc92f2e310312b816e46d906000805160206143178339815191529060ff16613deb578184526020526040832082845260205260408320600160ff198254161790557f2f8788117e7eff1d82e926ec794901d17c78024a50270940304540a733656f0d339380a4600190565b90600091808352600080516020614317833981519152806020526001600160a01b036040852093169283855260205260ff60408520541615600014613deb578184526020526040832082845260205260408320600160ff198254161790557f2f8788117e7eff1d82e926ec794901d17c78024a50270940304540a733656f0d339380a4600190565b90600091808352600080516020614317833981519152806020526001600160a01b036040852093169283855260205260ff604085205416600014613deb57818452602052604083208284526020526040832060ff1981541690557ff6391f5c32d9c69d2a47ea670b442974b53935d1edc7fd64eb21e047a839171b339380a4600190565b9290604051927f23b872dd0000000000000000000000000000000000000000000000000000000060208501526001600160a01b03809216602485015216604483015260648201526064815260a081019181831067ffffffffffffffff841117610fbb57613c8d926040525b906000602091828151910182855af1156105c3576000513d61408f57506001600160a01b0381163b155b6140555750565b6024906001600160a01b03604051917f5274afe7000000000000000000000000000000000000000000000000000000008352166004820152fd5b6001141561404e565b805482101561354c5760005260206000200190600090565b60ff7ff0c57e16840df040f15088dc2f81fe391c3923bec73e23a9662efc9c229c6a005460401c16156140df57565b60046040517fd7e6bcf8000000000000000000000000000000000000000000000000000000008152fd5b9190600183016000908282528060205260408220541560001461418d57845494680100000000000000008610156141795783614169614152886001604098999a01855584614098565b819391549060031b91821b91600019901b19161790565b9055549382526020522055600190565b602483634e487b7160e01b81526041600452fd5b50925050565b9060018201906000928184528260205260408420549081151560001461427c5760001991808301818111614268578254908482019182116142545781810361421f575b5050508054801561420b578201916141ee8383614098565b909182549160031b1b191690555582526020526040812055600190565b602486634e487b7160e01b81526031600452fd5b61423f61422f6141529386614098565b90549060031b1c92839286614098565b905586528460205260408620553880806141d6565b602488634e487b7160e01b81526011600452fd5b602487634e487b7160e01b81526011600452fd5b5050505090565b906142c2575080511561429857805190602001fd5b60046040517fd6bda275000000000000000000000000000000000000000000000000000000008152fd5b8151158061430d575b6142d3575090565b6024906001600160a01b03604051917f9996b315000000000000000000000000000000000000000000000000000000008352166004820152fd5b50803b156142cb56fe02dd7bc7dec4dceedda775e58dd541e08a116c6c53815c0bd028192f7b626800a26469706673582212208c01ba04998972b7d47329b3c9078036e55a2575d35f57fddabb1a581970830664736f6c63430008190033",
  "devdoc": {
    "errors": {
      "AccessControlBadConfirmation()": [
        {
          "details": "The caller of a function is not the expected one. NOTE: Don't confuse with {AccessControlUnauthorizedAccount}."
        }
      ],
      "AccessControlUnauthorizedAccount(address,bytes32)": [
        {
          "details": "The `account` is missing a role."
        }
      ],
      "AddressEmptyCode(address)": [
        {
          "details": "There's no code at `target` (it is not a contract)."
        }
      ],
      "ERC1967InvalidImplementation(address)": [
        {
          "details": "The `implementation` of the proxy is invalid."
        }
      ],
      "ERC1967NonPayable()": [
        {
          "details": "An upgrade function sees `msg.value > 0` that may be lost."
        }
      ],
      "EnforcedPause()": [
        {
          "details": "The operation failed because the contract is paused."
        }
      ],
      "ExpectedPause()": [
        {
          "details": "The operation failed because the contract is not paused."
        }
      ],
      "FailedCall()": [
        {
          "details": "A call to an address target failed. The target may have reverted."
        }
      ],
      "InvalidInitialization()": [
        {
          "details": "The contract is already initialized."
        }
      ],
      "NotInitializing()": [
        {
          "details": "The contract is not initializing."
        }
      ],
      "ReentrancyGuardReentrantCall()": [
        {
          "details": "Unauthorized reentrant call."
        }
      ],
      "SafeERC20FailedOperation(address)": [
        {
          "details": "An operation with an ERC-20 token failed."
        }
      ],
      "UUPSUnauthorizedCallContext()": [
        {
          "details": "The call is from an unauthorized context."
        }
      ],
      "UUPSUnsupportedProxiableUUID(bytes32)": [
        {
          "details": "The storage `slot` is unsupported as a UUID."
        }
      ]
    },
    "events": {
      "Initialized(uint64)": {
        "details": "Triggered when the contract has been initialized or reinitialized."
      },
      "Paused(address)": {
        "details": "Emitted when the pause is triggered by `account`."
      },
      "RoleAdminChanged(bytes32,bytes32,bytes32)": {
        "details": "Emitted when `newAdminRole` is set as ``role``'s admin role, replacing `previousAdminRole` `DEFAULT_ADMIN_ROLE` is the starting admin for all roles, despite {RoleAdminChanged} not being emitted signaling this."
      },
      "RoleGranted(bytes32,address,address)": {
        "details": "Emitted when `account` is granted `role`. `sender` is the account that originated the contract call. This account bears the admin role (for the granted role). Expected in cases where the role was granted using the internal {AccessControl-_grantRole}."
      },
      "RoleRevoked(bytes32,address,address)": {
        "details": "Emitted when `account` is revoked `role`. `sender` is the account that originated the contract call:   - if using `revokeRole`, it is the admin role bearer   - if using `renounceRole`, it is the role bearer (i.e. `account`)"
      },
      "Unpaused(address)": {
        "details": "Emitted when the pause is lifted by `account`."
      },
      "Upgraded(address)": {
        "details": "Emitted when the implementation is upgraded."
      }
    },
    "kind": "dev",
    "methods": {
      "constructor": {
        "custom:oz-upgrades-unsafe-allow": "constructor"
      },
      "getRoleAdmin(bytes32)": {
        "details": "Returns the admin role that controls `role`. See {grantRole} and {revokeRole}. To change a role's admin, use {_setRoleAdmin}."
      },
      "getRoleMember(bytes32,uint256)": {
        "details": "Returns one of the accounts that have `role`. `index` must be a value between 0 and {getRoleMemberCount}, non-inclusive. Role bearers are not sorted in any particular way, and their ordering may change at any point. WARNING: When using {getRoleMember} and {getRoleMemberCount}, make sure you perform all queries on the same block. See the following https://forum.openzeppelin.com/t/iterating-over-elements-on-enumerableset-in-openzeppelin-contracts/2296[forum post] for more information."
      },
      "getRoleMemberCount(bytes32)": {
        "details": "Returns the number of accounts that have `role`. Can be used together with {getRoleMember} to enumerate all bearers of a role."
      },
      "getRoleMembers(bytes32)": {
        "details": "Return all accounts that have `role` WARNING: This operation will copy the entire storage to memory, which can be quite expensive. This is designed to mostly be used by view accessors that are queried without any gas fees. Developers should keep in mind that this function has an unbounded cost, and using it as part of a state-changing function may render the function uncallable if the set grows to a point where copying to memory consumes too much gas to fit in a block."
      },
      "grantRole(bytes32,address)": {
        "details": "Grants `role` to `account`. If `account` had not been already granted `role`, emits a {RoleGranted} event. Requirements: - the caller must have ``role``'s admin role. May emit a {RoleGranted} event."
      },
      "hasRole(bytes32,address)": {
        "details": "Returns `true` if `account` has been granted `role`."
      },
      "paused()": {
        "details": "Returns true if the contract is paused, and false otherwise."
      },
      "proxiableUUID()": {
        "details": "Implementation of the ERC-1822 {proxiableUUID} function. This returns the storage slot used by the implementation. It is used to validate the implementation's compatibility when performing an upgrade. IMPORTANT: A proxy pointing at a proxiable contract should not be considered proxiable itself, because this risks bricking a proxy that upgrades to it, by delegating to itself until out of gas. Thus it is critical that this function revert if invoked through a proxy. This is guaranteed by the `notDelegated` modifier."
      },
      "renounceRole(bytes32,address)": {
        "details": "Revokes `role` from the calling account. Roles are often managed via {grantRole} and {revokeRole}: this function's purpose is to provide a mechanism for accounts to lose their privileges if they are compromised (such as when a trusted device is misplaced). If the calling account had been revoked `role`, emits a {RoleRevoked} event. Requirements: - the caller must be `callerConfirmation`. May emit a {RoleRevoked} event."
      },
      "revokeRole(bytes32,address)": {
        "details": "Revokes `role` from `account`. If `account` had been granted `role`, emits a {RoleRevoked} event. Requirements: - the caller must have ``role``'s admin role. May emit a {RoleRevoked} event."
      },
      "supportsInterface(bytes4)": {
        "details": "See {IERC165-supportsInterface}."
      },
      "transferToCeffu()": {
        "details": "transfer amount to ceffuAddress"
      },
      "upgradeToAndCall(address,bytes)": {
        "custom:oz-upgrades-unsafe-allow-reachable": "delegatecall",
        "details": "Upgrade the implementation of the proxy to `newImplementation`, and subsequently execute the function call encoded in `data`. Calls {_authorizeUpgrade}. Emits an {Upgraded} event."
      }
    },
    "version": 1
  },
  "userdoc": {
    "kind": "user",
    "methods": {},
    "version": 1
  },
  "storageLayout": {
    "storage": [
      {
        "astId": 7516,
        "contract": "contracts/USDFEarn.sol:USDFEarn",
        "label": "commissionRate",
        "offset": 0,
        "slot": "0",
        "type": "t_uint256"
      },
      {
        "astId": 7518,
        "contract": "contracts/USDFEarn.sol:USDFEarn",
        "label": "USDFMaxSupply",
        "offset": 0,
        "slot": "1",
        "type": "t_uint256"
      },
      {
        "astId": 7520,
        "contract": "contracts/USDFEarn.sol:USDFEarn",
        "label": "USDTDepositEnabled",
        "offset": 0,
        "slot": "2",
        "type": "t_bool"
      },
      {
        "astId": 7522,
        "contract": "contracts/USDFEarn.sol:USDFEarn",
        "label": "ceffuAddress",
        "offset": 1,
        "slot": "2",
        "type": "t_address"
      },
      {
        "astId": 7524,
        "contract": "contracts/USDFEarn.sol:USDFEarn",
        "label": "transferToCeffuEnabled",
        "offset": 21,
        "slot": "2",
        "type": "t_bool"
      },
      {
        "astId": 7526,
        "contract": "contracts/USDFEarn.sol:USDFEarn",
        "label": "burnCommissionRate",
        "offset": 0,
        "slot": "3",
        "type": "t_uint256"
      }
    ],
    "types": {
      "t_address": {
        "encoding": "inplace",
        "label": "address",
        "numberOfBytes": "20"
      },
      "t_bool": {
        "encoding": "inplace",
        "label": "bool",
        "numberOfBytes": "1"
      },
      "t_uint256": {
        "encoding": "inplace",
        "label": "uint256",
        "numberOfBytes": "32"
      }
    }
  }
}