{
  "address": "0xc8f2AdB15F28F5dD1b1c80b0D3b3E7fC8746e336",
  "abi": [
    {
      "inputs": [
        {
          "internalType": "address",
          "name": "timelockAddress",
          "type": "address"
        }
      ],
      "stateMutability": "nonpayable",
      "type": "constructor"
    },
    {
      "inputs": [],
      "name": "AccessControlBadConfirmation",
      "type": "error"
    },
    {
      "inputs": [
        {
          "internalType": "address",
          "name": "account",
          "type": "address"
        },
        {
          "internalType": "bytes32",
          "name": "neededRole",
          "type": "bytes32"
        }
      ],
      "name": "AccessControlUnauthorizedAccount",
      "type": "error"
    },
    {
      "inputs": [
        {
          "internalType": "address",
          "name": "target",
          "type": "address"
        }
      ],
      "name": "AddressEmptyCode",
      "type": "error"
    },
    {
      "inputs": [
        {
          "internalType": "address",
          "name": "implementation",
          "type": "address"
        }
      ],
      "name": "ERC1967InvalidImplementation",
      "type": "error"
    },
    {
      "inputs": [],
      "name": "ERC1967NonPayable",
      "type": "error"
    },
    {
      "inputs": [],
      "name": "EnforcedPause",
      "type": "error"
    },
    {
      "inputs": [],
      "name": "ExpectedPause",
      "type": "error"
    },
    {
      "inputs": [],
      "name": "FailedCall",
      "type": "error"
    },
    {
      "inputs": [
        {
          "internalType": "uint256",
          "name": "balance",
          "type": "uint256"
        },
        {
          "internalType": "uint256",
          "name": "needed",
          "type": "uint256"
        }
      ],
      "name": "InsufficientBalance",
      "type": "error"
    },
    {
      "inputs": [],
      "name": "InvalidInitialization",
      "type": "error"
    },
    {
      "inputs": [],
      "name": "NotInitializing",
      "type": "error"
    },
    {
      "inputs": [],
      "name": "ReentrancyGuardReentrantCall",
      "type": "error"
    },
    {
      "inputs": [
        {
          "internalType": "address",
          "name": "token",
          "type": "address"
        }
      ],
      "name": "SafeERC20FailedOperation",
      "type": "error"
    },
    {
      "inputs": [],
      "name": "UUPSUnauthorizedCallContext",
      "type": "error"
    },
    {
      "inputs": [
        {
          "internalType": "bytes32",
          "name": "slot",
          "type": "bytes32"
        }
      ],
      "name": "UUPSUnsupportedProxiableUUID",
      "type": "error"
    },
    {
      "anonymous": false,
      "inputs": [
        {
          "indexed": false,
          "internalType": "uint64",
          "name": "version",
          "type": "uint64"
        }
      ],
      "name": "Initialized",
      "type": "event"
    },
    {
      "anonymous": false,
      "inputs": [
        {
          "indexed": false,
          "internalType": "address",
          "name": "account",
          "type": "address"
        }
      ],
      "name": "Paused",
      "type": "event"
    },
    {
      "anonymous": false,
      "inputs": [
        {
          "indexed": true,
          "internalType": "address",
          "name": "from",
          "type": "address"
        },
        {
          "indexed": true,
          "internalType": "address",
          "name": "to",
          "type": "address"
        },
        {
          "indexed": false,
          "internalType": "uint256",
          "name": "amount",
          "type": "uint256"
        }
      ],
      "name": "ReceiveETH",
      "type": "event"
    },
    {
      "anonymous": false,
      "inputs": [
        {
          "indexed": true,
          "internalType": "bytes32",
          "name": "role",
          "type": "bytes32"
        },
        {
          "indexed": true,
          "internalType": "bytes32",
          "name": "previousAdminRole",
          "type": "bytes32"
        },
        {
          "indexed": true,
          "internalType": "bytes32",
          "name": "newAdminRole",
          "type": "bytes32"
        }
      ],
      "name": "RoleAdminChanged",
      "type": "event"
    },
    {
      "anonymous": false,
      "inputs": [
        {
          "indexed": true,
          "internalType": "bytes32",
          "name": "role",
          "type": "bytes32"
        },
        {
          "indexed": true,
          "internalType": "address",
          "name": "account",
          "type": "address"
        },
        {
          "indexed": true,
          "internalType": "address",
          "name": "sender",
          "type": "address"
        }
      ],
      "name": "RoleGranted",
      "type": "event"
    },
    {
      "anonymous": false,
      "inputs": [
        {
          "indexed": true,
          "internalType": "bytes32",
          "name": "role",
          "type": "bytes32"
        },
        {
          "indexed": true,
          "internalType": "address",
          "name": "account",
          "type": "address"
        },
        {
          "indexed": true,
          "internalType": "address",
          "name": "sender",
          "type": "address"
        }
      ],
      "name": "RoleRevoked",
      "type": "event"
    },
    {
      "anonymous": false,
      "inputs": [
        {
          "indexed": false,
          "internalType": "address",
          "name": "receipt",
          "type": "address"
        },
        {
          "indexed": false,
          "internalType": "contract IERC20",
          "name": "token",
          "type": "address"
        },
        {
          "indexed": false,
          "internalType": "uint256",
          "name": "amount",
          "type": "uint256"
        }
      ],
      "name": "Transfer",
      "type": "event"
    },
    {
      "anonymous": false,
      "inputs": [
        {
          "indexed": false,
          "internalType": "address",
          "name": "receipt",
          "type": "address"
        },
        {
          "indexed": false,
          "internalType": "uint256",
          "name": "amount",
          "type": "uint256"
        }
      ],
      "name": "TransferNative",
      "type": "event"
    },
    {
      "anonymous": false,
      "inputs": [
        {
          "indexed": false,
          "internalType": "address",
          "name": "account",
          "type": "address"
        }
      ],
      "name": "Unpaused",
      "type": "event"
    },
    {
      "anonymous": false,
      "inputs": [
        {
          "indexed": true,
          "internalType": "address",
          "name": "implementation",
          "type": "address"
        }
      ],
      "name": "Upgraded",
      "type": "event"
    },
    {
      "inputs": [],
      "name": "ADMIN_ROLE",
      "outputs": [
        {
          "internalType": "bytes32",
          "name": "",
          "type": "bytes32"
        }
      ],
      "stateMutability": "view",
      "type": "function"
    },
    {
      "inputs": [],
      "name": "DEFAULT_ADMIN_ROLE",
      "outputs": [
        {
          "internalType": "bytes32",
          "name": "",
          "type": "bytes32"
        }
      ],
      "stateMutability": "view",
      "type": "function"
    },
    {
      "inputs": [],
      "name": "PAUSE_ROLE",
      "outputs": [
        {
          "internalType": "bytes32",
          "name": "",
          "type": "bytes32"
        }
      ],
      "stateMutability": "view",
      "type": "function"
    },
    {
      "inputs": [],
      "name": "TIMELOCK_ADDRESS",
      "outputs": [
        {
          "internalType": "address",
          "name": "",
          "type": "address"
        }
      ],
      "stateMutability": "view",
      "type": "function"
    },
    {
      "inputs": [],
      "name": "TRANSFER_ROLE",
      "outputs": [
        {
          "internalType": "bytes32",
          "name": "",
          "type": "bytes32"
        }
      ],
      "stateMutability": "view",
      "type": "function"
    },
    {
      "inputs": [],
      "name": "UPGRADE_INTERFACE_VERSION",
      "outputs": [
        {
          "internalType": "string",
          "name": "",
          "type": "string"
        }
      ],
      "stateMutability": "view",
      "type": "function"
    },
    {
      "inputs": [
        {
          "internalType": "contract IERC20",
          "name": "currency",
          "type": "address"
        }
      ],
      "name": "balance",
      "outputs": [
        {
          "internalType": "uint256",
          "name": "",
          "type": "uint256"
        }
      ],
      "stateMutability": "view",
      "type": "function"
    },
    {
      "inputs": [
        {
          "internalType": "bytes32",
          "name": "role",
          "type": "bytes32"
        }
      ],
      "name": "getRoleAdmin",
      "outputs": [
        {
          "internalType": "bytes32",
          "name": "",
          "type": "bytes32"
        }
      ],
      "stateMutability": "view",
      "type": "function"
    },
    {
      "inputs": [
        {
          "internalType": "bytes32",
          "name": "role",
          "type": "bytes32"
        },
        {
          "internalType": "uint256",
          "name": "index",
          "type": "uint256"
        }
      ],
      "name": "getRoleMember",
      "outputs": [
        {
          "internalType": "address",
          "name": "",
          "type": "address"
        }
      ],
      "stateMutability": "view",
      "type": "function"
    },
    {
      "inputs": [
        {
          "internalType": "bytes32",
          "name": "role",
          "type": "bytes32"
        }
      ],
      "name": "getRoleMemberCount",
      "outputs": [
        {
          "internalType": "uint256",
          "name": "",
          "type": "uint256"
        }
      ],
      "stateMutability": "view",
      "type": "function"
    },
    {
      "inputs": [
        {
          "internalType": "bytes32",
          "name": "role",
          "type": "bytes32"
        }
      ],
      "name": "getRoleMembers",
      "outputs": [
        {
          "internalType": "address[]",
          "name": "",
          "type": "address[]"
        }
      ],
      "stateMutability": "view",
      "type": "function"
    },
    {
      "inputs": [
        {
          "internalType": "bytes32",
          "name": "role",
          "type": "bytes32"
        },
        {
          "internalType": "address",
          "name": "account",
          "type": "address"
        }
      ],
      "name": "grantRole",
      "outputs": [],
      "stateMutability": "nonpayable",
      "type": "function"
    },
    {
      "inputs": [
        {
          "internalType": "bytes32",
          "name": "role",
          "type": "bytes32"
        },
        {
          "internalType": "address",
          "name": "account",
          "type": "address"
        }
      ],
      "name": "hasRole",
      "outputs": [
        {
          "internalType": "bool",
          "name": "",
          "type": "bool"
        }
      ],
      "stateMutability": "view",
      "type": "function"
    },
    {
      "inputs": [
        {
          "internalType": "address",
          "name": "admin",
          "type": "address"
        },
        {
          "internalType": "address",
          "name": "deployer",
          "type": "address"
        }
      ],
      "name": "initialize",
      "outputs": [],
      "stateMutability": "nonpayable",
      "type": "function"
    },
    {
      "inputs": [],
      "name": "pause",
      "outputs": [],
      "stateMutability": "nonpayable",
      "type": "function"
    },
    {
      "inputs": [],
      "name": "paused",
      "outputs": [
        {
          "internalType": "bool",
          "name": "",
          "type": "bool"
        }
      ],
      "stateMutability": "view",
      "type": "function"
    },
    {
      "inputs": [],
      "name": "proxiableUUID",
      "outputs": [
        {
          "internalType": "bytes32",
          "name": "",
          "type": "bytes32"
        }
      ],
      "stateMutability": "view",
      "type": "function"
    },
    {
      "inputs": [
        {
          "internalType": "bytes32",
          "name": "role",
          "type": "bytes32"
        },
        {
          "internalType": "address",
          "name": "callerConfirmation",
          "type": "address"
        }
      ],
      "name": "renounceRole",
      "outputs": [],
      "stateMutability": "nonpayable",
      "type": "function"
    },
    {
      "inputs": [
        {
          "internalType": "bytes32",
          "name": "role",
          "type": "bytes32"
        },
        {
          "internalType": "address",
          "name": "account",
          "type": "address"
        }
      ],
      "name": "revokeRole",
      "outputs": [],
      "stateMutability": "nonpayable",
      "type": "function"
    },
    {
      "inputs": [
        {
          "internalType": "bytes4",
          "name": "interfaceId",
          "type": "bytes4"
        }
      ],
      "name": "supportsInterface",
      "outputs": [
        {
          "internalType": "bool",
          "name": "",
          "type": "bool"
        }
      ],
      "stateMutability": "view",
      "type": "function"
    },
    {
      "inputs": [
        {
          "internalType": "address",
          "name": "receipt",
          "type": "address"
        },
        {
          "internalType": "contract IERC20",
          "name": "token",
          "type": "address"
        },
        {
          "internalType": "uint256",
          "name": "amount",
          "type": "uint256"
        }
      ],
      "name": "transfer",
      "outputs": [],
      "stateMutability": "nonpayable",
      "type": "function"
    },
    {
      "inputs": [
        {
          "internalType": "address",
          "name": "receipt",
          "type": "address"
        },
        {
          "internalType": "uint256",
          "name": "amount",
          "type": "uint256"
        }
      ],
      "name": "transferNative",
      "outputs": [],
      "stateMutability": "nonpayable",
      "type": "function"
    },
    {
      "inputs": [],
      "name": "unpause",
      "outputs": [],
      "stateMutability": "nonpayable",
      "type": "function"
    },
    {
      "inputs": [
        {
          "internalType": "address",
          "name": "newImplementation",
          "type": "address"
        },
        {
          "internalType": "bytes",
          "name": "data",
          "type": "bytes"
        }
      ],
      "name": "upgradeToAndCall",
      "outputs": [],
      "stateMutability": "payable",
      "type": "function"
    },
    {
      "stateMutability": "payable",
      "type": "receive"
    }
  ],
  "transactionHash": "0xc37ffeddf0f3f58d6e78018002f0d6f7d668b0132959697576c2b558e6ca8cea",
  "args": [
    "0xB2c2C14B0f2d45E8f5A8FFC67dB3279769dC6e56"
  ],
  "numDeployments": 1,
  "solcInputHash": "eb1df308839093e43f0d981ed7ed99f6",
  "bytecode": "0x60c03461017a57601f611da438819003918201601f19168301926001600160401b039290918385118386101761017f57816020928492604097885283398101031261017a57516001600160a01b03811680820361017a5730608052156101255760a0527ff0c57e16840df040f15088dc2f81fe391c3923bec73e23a9662efc9c229c6a009081549060ff82851c166101145780808316036100d0575b8351611c0e908161019682396080518181816108fa01526109d2015260a051818181610a0501528181610d680152610fdb0152f35b6001600160401b0319909116811790915581519081527fc7f505b2f371ae2175ee4913f4499e1f2633a7b5936321eed1cdaeb6115181d290602090a138808061009b565b835163f92ee8a960e01b8152600490fd5b825162461bcd60e51b815260206004820152602860248201527f74696d656c6f636b416464726573732063616e6e6f742062652061207a65726f604482015267206164647265737360c01b6064820152608490fd5b600080fd5b634e487b7160e01b600052604160045260246000fdfe608060409080825260049081361015610055575b5050361561002057600080fd5b3461002757005b5134815230907f1a5f279a9c22a4ad34f4070b85334882f8a945656329d87746c0f2c8806ba00e60203392a3005b600090813560e01c90816301ffc9a71461128c57508063206b60f914611251578063248a9ca3146112185780632f2ff15d1461118157806336568abe14611122578063389ed267146110e75780633f4ba83a14610fff578063431c183014610fbb578063485cc95514610c545780634f1ef2861461095657806352d1902d146108dc5780635c975abb1461089957806375b238fc1461085e5780637d2e90c2146107505780638456cb59146106765780639010d07c1461061457806391d14854146105c0578063a217fddf146105a5578063a3246ad3146104e0578063ad3cb1cc14610428578063beabacc8146102b1578063ca15c87314610269578063d547741f1461021d5763e3d670d703610013578234610219576020928360031936011261021557836001600160a01b0361018b611379565b169160248451809481937f70a0823100000000000000000000000000000000000000000000000000000000835230908301525afa92831561020a5780936101d5575b505051908152f35b909192508382813d8311610203575b6101ee818361138f565b810103126102005750519083806101cd565b80fd5b503d6101e4565b8251903d90823e3d90fd5b8280fd5b5080fd5b5091346102155780600319360112610215576102659135610260600161024161135e565b93838752600080516020611bb9833981519152602052862001546114a8565b6114db565b5080f35b509190346102155760203660031901126102155760209282913581527fc1f6fe24621ce81ec5827caf0253cadb74709b061630e6b55e82371705932000845220549051908152f35b50919034610215576060366003190112610215576102cd611379565b916102d661135e565b92604435926102e3611534565b6102eb61158e565b6102f361142e565b6102fe8415156113e3565b82517fa9059cbb0000000000000000000000000000000000000000000000000000000060208083019182526001600160a01b0385166024840152604480840188905283529188919061035160648261138f565b519082895af11561041e5785513d61041557506001600160a01b0385163b155b6103dc575081516001600160a01b039182168152931660208401528201527fddf252ad1be2c89b69c2b068fc378daa952ba7f163c4a11628f55a4df523b3ef90606090a160017f9b779b17422d0df92223018b32b4d1fa46e071723d6817e2486d003becc55f005580f35b846024916001600160a01b038551927f5274afe70000000000000000000000000000000000000000000000000000000084521690820152fd5b60011415610371565b82513d87823e3d90fd5b509190346102155782600319360112610215578151908282019082821067ffffffffffffffff8311176104cd57508252600581526020907f352e302e300000000000000000000000000000000000000000000000000000006020820152825193849260208452825192836020860152825b8481106104b757505050828201840152601f01601f19168101030190f35b8181018301518882018801528795508201610499565b846041602492634e487b7160e01b835252fd5b50346102005760209182600319360112610219579291923581527fc1f6fe24621ce81ec5827caf0253cadb74709b061630e6b55e823717059320008352818120908251808584549182815201908194845286842090845b818110610591575050508161054d91038261138f565b83519485948186019282875251809352850193925b82811061057157505050500390f35b83516001600160a01b031685528695509381019392810192600101610562565b825484529288019260019283019201610537565b50823461021957816003193601126102195751908152602090f35b509190346102155781600319360112610215578160209360ff926105e261135e565b90358252600080516020611bb983398151915286526001600160a01b0383832091168252855220541690519015158152f35b509190346102155781600319360112610215576106676020936001600160a01b03923581527fc1f6fe24621ce81ec5827caf0253cadb74709b061630e6b55e823717059320008552836024359120611996565b92905490519260031b1c168152f35b509190346102155782600319360112610215577f139c2898040ef16910dc9f44dc697df79363da767d8bc92f2e310312b816e46d808452600080516020611bb983398151915260205282842033855260205260ff83852054161561073557837f62e78cea01bee320cd4e420270b5ea74000d11b0c9f74754ebdbfc544b05a25860208561070161158e565b7fcd5ed15c6e187e77e9aee88184c21f4f2182ab5827cb3b7e07fbedcd63f03300805460ff1916600117905551338152a180f35b604492519163e2517d3f60e01b835233908301526024820152fd5b50903461021957826003193601126102195761076a611379565b60243591610776611534565b61077e61158e565b61078661142e565b6107918315156113e3565b8247106108285783808080866001600160a01b0387165af16107b16115e3565b501561081a575092516001600160a01b0390931683526020830152907faaa330f73f343ed3da9c3ff8366ebc8dc13ab7f7c9edcf6d2a1774a81f71734990604090a160017f9b779b17422d0df92223018b32b4d1fa46e071723d6817e2486d003becc55f005580f35b845163d6bda27560e01b8152fd5b6044908386479051927fcf4791810000000000000000000000000000000000000000000000000000000084528301526024820152fd5b508234610219578160031936011261021957602090517fa49807205ce4d355092ef5a8a18f56e8913cf4a201fbe287825b095693c217758152f35b50823461021957816003193601126102195760209060ff7fcd5ed15c6e187e77e9aee88184c21f4f2182ab5827cb3b7e07fbedcd63f03300541690519015158152f35b50829034610200578060031936011261020057506001600160a01b037f000000000000000000000000000000000000000000000000000000000000000016300361094957602090517f360894a13ba1a3210667c828492db98dca3e2076cc3735a920a3ca505d382bbc8152f35b5163703e46dd60e11b8152fd5b5091806003193601126102155761096b611379565b90602493843567ffffffffffffffff81116102195736602382011215610219578085013593610999856113c7565b6109a58551918261138f565b85815260209586820193368a8383010111610bcb578186928b8a93018737830101526001600160a01b03807f000000000000000000000000000000000000000000000000000000000000000016803014908115610c26575b50610c1757807f0000000000000000000000000000000000000000000000000000000000000000163303610bd6578216958551907f52d1902d00000000000000000000000000000000000000000000000000000000825280828a818b5afa9182918793610ba2575b5050610a815750505050505191634c9c8ce360e01b8352820152fd5b86899689927f360894a13ba1a3210667c828492db98dca3e2076cc3735a920a3ca505d382bbc90818103610b745750853b15610b5f5780547fffffffffffffffffffffffff0000000000000000000000000000000000000000168317905551869392917fbc7cd75a20ee27fd9adebab32041f755214dbc6bffa90cc0225b39da2e5c2d3b8580a2825115610b2a5750506102659382915190845af4610b246115e3565b91611b3e565b93509350505034610b3a57505080f35b7fb398979f000000000000000000000000000000000000000000000000000000008152fd5b508793505191634c9c8ce360e01b8352820152fd5b848a918451917faa1d49a4000000000000000000000000000000000000000000000000000000008352820152fd5b9080929350813d8311610bcf575b610bba818361138f565b81010312610bcb5751903880610a65565b8580fd5b503d610bb0565b606488600e8b8a8a519362461bcd60e51b85528401528201527f6f6e6c792074696d65206c6f636b0000000000000000000000000000000000006044820152fd5b87865163703e46dd60e11b8152fd5b9050817f360894a13ba1a3210667c828492db98dca3e2076cc3735a920a3ca505d382bbc54161415386109fd565b50919034610215578160031936011261021557610c6f611379565b90610c7861135e565b917ff0c57e16840df040f15088dc2f81fe391c3923bec73e23a9662efc9c229c6a0092835460ff81871c16159367ffffffffffffffff821680159081610fb3575b6001149081610fa9575b159081610fa0575b50610f79575067ffffffffffffffff198116600117855583610f5a575b50610cf161193d565b610cf961193d565b7fcd5ed15c6e187e77e9aee88184c21f4f2182ab5827cb3b7e07fbedcd63f03300805460ff19169055610d2a61193d565b610d3261193d565b610d3a61193d565b610d4261193d565b60017f9b779b17422d0df92223018b32b4d1fa46e071723d6817e2486d003becc55f00557f0000000000000000000000000000000000000000000000000000000000000000610d9081611613565b610f16575b50610d9f81611613565b610ed2575b50610dae816116b3565b610e6f575b610dbc81611775565b610e0b575b50610dca578280f35b805468ff00000000000000001916905551600181527fc7f505b2f371ae2175ee4913f4499e1f2633a7b5936321eed1cdaeb6115181d290602090a138808280f35b7f139c2898040ef16910dc9f44dc697df79363da767d8bc92f2e310312b816e46d85527fc1f6fe24621ce81ec5827caf0253cadb74709b061630e6b55e82371705932000602052838520610e68916001600160a01b0316906119c4565b5038610dc1565b7fa49807205ce4d355092ef5a8a18f56e8913cf4a201fbe287825b095693c2177585527fc1f6fe24621ce81ec5827caf0253cadb74709b061630e6b55e82371705932000602052610ecc8486206001600160a01b038316906119c4565b50610db3565b8580527fc1f6fe24621ce81ec5827caf0253cadb74709b061630e6b55e82371705932000602052848620610f0f916001600160a01b0316906119c4565b5038610da4565b8680527fc1f6fe24621ce81ec5827caf0253cadb74709b061630e6b55e82371705932000602052858720610f53916001600160a01b0316906119c4565b5038610d95565b68ffffffffffffffffff19166801000000000000000117845538610ce8565b86517ff92ee8a9000000000000000000000000000000000000000000000000000000008152fd5b90501538610ccb565b303b159150610cc3565b869150610cb9565b508234610219578160031936011261021957602090516001600160a01b037f0000000000000000000000000000000000000000000000000000000000000000168152f35b509190346102155782600319360112610215577fa49807205ce4d355092ef5a8a18f56e8913cf4a201fbe287825b095693c21775808452600080516020611bb983398151915260205282842033855260205260ff83852054161561073557507fcd5ed15c6e187e77e9aee88184c21f4f2182ab5827cb3b7e07fbedcd63f033009081549060ff8216156110c0575060ff19169055513381527f5db9ee0a495bf2e6ff9c91a7834c1ba4fdd244a5e8aa4e537bd38aeae4b073aa90602090a180f35b83517f8dfc202b000000000000000000000000000000000000000000000000000000008152fd5b508234610219578160031936011261021957602090517f139c2898040ef16910dc9f44dc697df79363da767d8bc92f2e310312b816e46d8152f35b50823461021957806003193601126102195761113c61135e565b90336001600160a01b0383160361115957506102659192356114db565b8390517f6697b232000000000000000000000000000000000000000000000000000000008152fd5b509190346102155781600319360112610215573561119d61135e565b90808452600080516020611bb98339815191526020526111c2600184862001546114a8565b6111cc8282611831565b6111d4578380f35b83527fc1f6fe24621ce81ec5827caf0253cadb74709b061630e6b55e82371705932000602052908220611210916001600160a01b0316906119c4565b503880808380f35b509190346102155760203660031901126102155781602093600192358152600080516020611bb983398151915285522001549051908152f35b508234610219578160031936011261021957602090517f8502233096d909befbda0999bb8ea2f3a6be3c138b9fbf003752a4c8bce86f6c8152f35b9050823461021557602036600319011261021557357fffffffff00000000000000000000000000000000000000000000000000000000811680910361021557602092507f5a05180f000000000000000000000000000000000000000000000000000000008114908115611301575b5015158152f35b7f7965db0b00000000000000000000000000000000000000000000000000000000811491508115611334575b50836112fa565b7f01ffc9a7000000000000000000000000000000000000000000000000000000009150148361132d565b602435906001600160a01b038216820361137457565b600080fd5b600435906001600160a01b038216820361137457565b90601f8019910116810190811067ffffffffffffffff8211176113b157604052565b634e487b7160e01b600052604160045260246000fd5b67ffffffffffffffff81116113b157601f01601f191660200190565b156113ea57565b606460405162461bcd60e51b815260206004820152600e60248201527f696e76616c696420616d6f756e740000000000000000000000000000000000006044820152fd5b3360009081527f4086d9c6e0339c6f0350565e27e943bfb1f7e2de19638d6739cf61995641a2e560205260409020547f8502233096d909befbda0999bb8ea2f3a6be3c138b9fbf003752a4c8bce86f6c9060ff161561148a5750565b6044906040519063e2517d3f60e01b82523360048301526024820152fd5b80600052600080516020611bb983398151915260205260406000203360005260205260ff604060002054161561148a5750565b6114e582826118b9565b91826114f057505090565b611530916000527fc1f6fe24621ce81ec5827caf0253cadb74709b061630e6b55e823717059320006020526001600160a01b036040600020911690611a4e565b5090565b7f9b779b17422d0df92223018b32b4d1fa46e071723d6817e2486d003becc55f0060028154146115645760029055565b60046040517f3ee5aeb5000000000000000000000000000000000000000000000000000000008152fd5b60ff7fcd5ed15c6e187e77e9aee88184c21f4f2182ab5827cb3b7e07fbedcd63f0330054166115b957565b60046040517fd93c0665000000000000000000000000000000000000000000000000000000008152fd5b3d1561160e573d906115f4826113c7565b91611602604051938461138f565b82523d6000602084013e565b606090565b6001600160a01b031660008181527fb7db2dd08fcb62d0c9e08c51941cae53c267786a0b75803fb7960902fc8ef97d6020526040812054909190600080516020611bb98339815191529060ff166116ae578280526020526040822081835260205260408220600160ff1982541617905533917f2f8788117e7eff1d82e926ec794901d17c78024a50270940304540a733656f0d8180a4600190565b505090565b6001600160a01b031660008181527fb16e88c42fd4e48df2dd6a2eabd6bc9aec654ec170056b470819f8892cc6431c60205260408120549091907fa49807205ce4d355092ef5a8a18f56e8913cf4a201fbe287825b095693c2177590600080516020611bb98339815191529060ff1661176f578184526020526040832082845260205260408320600160ff198254161790557f2f8788117e7eff1d82e926ec794901d17c78024a50270940304540a733656f0d339380a4600190565b50505090565b6001600160a01b031660008181527f85aa68ae9688c2bba3dc27a57a38bf2786c03751927fe89ecfd8b396d55ff13360205260408120549091907f139c2898040ef16910dc9f44dc697df79363da767d8bc92f2e310312b816e46d90600080516020611bb98339815191529060ff1661176f578184526020526040832082845260205260408320600160ff198254161790557f2f8788117e7eff1d82e926ec794901d17c78024a50270940304540a733656f0d339380a4600190565b90600091808352600080516020611bb9833981519152806020526001600160a01b036040852093169283855260205260ff6040852054161560001461176f578184526020526040832082845260205260408320600160ff198254161790557f2f8788117e7eff1d82e926ec794901d17c78024a50270940304540a733656f0d339380a4600190565b90600091808352600080516020611bb9833981519152806020526001600160a01b036040852093169283855260205260ff60408520541660001461176f57818452602052604083208284526020526040832060ff1981541690557ff6391f5c32d9c69d2a47ea670b442974b53935d1edc7fd64eb21e047a839171b339380a4600190565b60ff7ff0c57e16840df040f15088dc2f81fe391c3923bec73e23a9662efc9c229c6a005460401c161561196c57565b60046040517fd7e6bcf8000000000000000000000000000000000000000000000000000000008152fd5b80548210156119ae5760005260206000200190600090565b634e487b7160e01b600052603260045260246000fd5b91906001830160009082825280602052604082205415600014611a485784549468010000000000000000861015611a345783611a24611a0d886001604098999a01855584611996565b819391549060031b91821b91600019901b19161790565b9055549382526020522055600190565b602483634e487b7160e01b81526041600452fd5b50925050565b90600182019060009281845282602052604084205490811515600014611b375760001991808301818111611b2357825490848201918211611b0f57818103611ada575b50505080548015611ac657820191611aa98383611996565b909182549160031b1b191690555582526020526040812055600190565b602486634e487b7160e01b81526031600452fd5b611afa611aea611a0d9386611996565b90549060031b1c92839286611996565b90558652846020526040862055388080611a91565b602488634e487b7160e01b81526011600452fd5b602487634e487b7160e01b81526011600452fd5b5050505090565b90611b645750805115611b5357805190602001fd5b600460405163d6bda27560e01b8152fd5b81511580611baf575b611b75575090565b6024906001600160a01b03604051917f9996b315000000000000000000000000000000000000000000000000000000008352166004820152fd5b50803b15611b6d56fe02dd7bc7dec4dceedda775e58dd541e08a116c6c53815c0bd028192f7b626800a26469706673582212206b4f17ff490664aac6e764f4d0ebe5899470dd2210e1610073e926b65b053d6664736f6c63430008190033",
  "devdoc": {
    "errors": {
      "AccessControlBadConfirmation()": [
        {
          "details": "The caller of a function is not the expected one. NOTE: Don't confuse with {AccessControlUnauthorizedAccount}."
        }
      ],
      "AccessControlUnauthorizedAccount(address,bytes32)": [
        {
          "details": "The `account` is missing a role."
        }
      ],
      "AddressEmptyCode(address)": [
        {
          "details": "There's no code at `target` (it is not a contract)."
        }
      ],
      "ERC1967InvalidImplementation(address)": [
        {
          "details": "The `implementation` of the proxy is invalid."
        }
      ],
      "ERC1967NonPayable()": [
        {
          "details": "An upgrade function sees `msg.value > 0` that may be lost."
        }
      ],
      "EnforcedPause()": [
        {
          "details": "The operation failed because the contract is paused."
        }
      ],
      "ExpectedPause()": [
        {
          "details": "The operation failed because the contract is not paused."
        }
      ],
      "FailedCall()": [
        {
          "details": "A call to an address target failed. The target may have reverted."
        }
      ],
      "InsufficientBalance(uint256,uint256)": [
        {
          "details": "The ETH balance of the account is not enough to perform the operation."
        }
      ],
      "InvalidInitialization()": [
        {
          "details": "The contract is already initialized."
        }
      ],
      "NotInitializing()": [
        {
          "details": "The contract is not initializing."
        }
      ],
      "ReentrancyGuardReentrantCall()": [
        {
          "details": "Unauthorized reentrant call."
        }
      ],
      "SafeERC20FailedOperation(address)": [
        {
          "details": "An operation with an ERC-20 token failed."
        }
      ],
      "UUPSUnauthorizedCallContext()": [
        {
          "details": "The call is from an unauthorized context."
        }
      ],
      "UUPSUnsupportedProxiableUUID(bytes32)": [
        {
          "details": "The storage `slot` is unsupported as a UUID."
        }
      ]
    },
    "events": {
      "Initialized(uint64)": {
        "details": "Triggered when the contract has been initialized or reinitialized."
      },
      "Paused(address)": {
        "details": "Emitted when the pause is triggered by `account`."
      },
      "RoleAdminChanged(bytes32,bytes32,bytes32)": {
        "details": "Emitted when `newAdminRole` is set as ``role``'s admin role, replacing `previousAdminRole` `DEFAULT_ADMIN_ROLE` is the starting admin for all roles, despite {RoleAdminChanged} not being emitted signaling this."
      },
      "RoleGranted(bytes32,address,address)": {
        "details": "Emitted when `account` is granted `role`. `sender` is the account that originated the contract call. This account bears the admin role (for the granted role). Expected in cases where the role was granted using the internal {AccessControl-_grantRole}."
      },
      "RoleRevoked(bytes32,address,address)": {
        "details": "Emitted when `account` is revoked `role`. `sender` is the account that originated the contract call:   - if using `revokeRole`, it is the admin role bearer   - if using `renounceRole`, it is the role bearer (i.e. `account`)"
      },
      "Unpaused(address)": {
        "details": "Emitted when the pause is lifted by `account`."
      },
      "Upgraded(address)": {
        "details": "Emitted when the implementation is upgraded."
      }
    },
    "kind": "dev",
    "methods": {
      "getRoleAdmin(bytes32)": {
        "details": "Returns the admin role that controls `role`. See {grantRole} and {revokeRole}. To change a role's admin, use {_setRoleAdmin}."
      },
      "getRoleMember(bytes32,uint256)": {
        "details": "Returns one of the accounts that have `role`. `index` must be a value between 0 and {getRoleMemberCount}, non-inclusive. Role bearers are not sorted in any particular way, and their ordering may change at any point. WARNING: When using {getRoleMember} and {getRoleMemberCount}, make sure you perform all queries on the same block. See the following https://forum.openzeppelin.com/t/iterating-over-elements-on-enumerableset-in-openzeppelin-contracts/2296[forum post] for more information."
      },
      "getRoleMemberCount(bytes32)": {
        "details": "Returns the number of accounts that have `role`. Can be used together with {getRoleMember} to enumerate all bearers of a role."
      },
      "getRoleMembers(bytes32)": {
        "details": "Return all accounts that have `role` WARNING: This operation will copy the entire storage to memory, which can be quite expensive. This is designed to mostly be used by view accessors that are queried without any gas fees. Developers should keep in mind that this function has an unbounded cost, and using it as part of a state-changing function may render the function uncallable if the set grows to a point where copying to memory consumes too much gas to fit in a block."
      },
      "grantRole(bytes32,address)": {
        "details": "Grants `role` to `account`. If `account` had not been already granted `role`, emits a {RoleGranted} event. Requirements: - the caller must have ``role``'s admin role. May emit a {RoleGranted} event."
      },
      "hasRole(bytes32,address)": {
        "details": "Returns `true` if `account` has been granted `role`."
      },
      "paused()": {
        "details": "Returns true if the contract is paused, and false otherwise."
      },
      "proxiableUUID()": {
        "details": "Implementation of the ERC-1822 {proxiableUUID} function. This returns the storage slot used by the implementation. It is used to validate the implementation's compatibility when performing an upgrade. IMPORTANT: A proxy pointing at a proxiable contract should not be considered proxiable itself, because this risks bricking a proxy that upgrades to it, by delegating to itself until out of gas. Thus it is critical that this function revert if invoked through a proxy. This is guaranteed by the `notDelegated` modifier."
      },
      "renounceRole(bytes32,address)": {
        "details": "Revokes `role` from the calling account. Roles are often managed via {grantRole} and {revokeRole}: this function's purpose is to provide a mechanism for accounts to lose their privileges if they are compromised (such as when a trusted device is misplaced). If the calling account had been revoked `role`, emits a {RoleRevoked} event. Requirements: - the caller must be `callerConfirmation`. May emit a {RoleRevoked} event."
      },
      "revokeRole(bytes32,address)": {
        "details": "Revokes `role` from `account`. If `account` had been granted `role`, emits a {RoleRevoked} event. Requirements: - the caller must have ``role``'s admin role. May emit a {RoleRevoked} event."
      },
      "supportsInterface(bytes4)": {
        "details": "See {IERC165-supportsInterface}."
      },
      "upgradeToAndCall(address,bytes)": {
        "custom:oz-upgrades-unsafe-allow-reachable": "delegatecall",
        "details": "Upgrade the implementation of the proxy to `newImplementation`, and subsequently execute the function call encoded in `data`. Calls {_authorizeUpgrade}. Emits an {Upgraded} event."
      }
    },
    "version": 1
  },
  "userdoc": {
    "kind": "user",
    "methods": {},
    "version": 1
  },
  "storageLayout": {
    "storage": [],
    "types": null
  }
}