{
  "address": "0x5FbDB2315678afecb367f032d93F642f64180aa3",
  "abi": [
    {
      "inputs": [
        {
          "internalType": "uint256",
          "name": "minDelay",
          "type": "uint256"
        },
        {
          "internalType": "uint256",
          "name": "maxDelay",
          "type": "uint256"
        },
        {
          "internalType": "address[]",
          "name": "proposers",
          "type": "address[]"
        },
        {
          "internalType": "address[]",
          "name": "executors",
          "type": "address[]"
        }
      ],
      "stateMutability": "nonpayable",
      "type": "constructor"
    },
    {
      "inputs": [],
      "name": "AccessControlBadConfirmation",
      "type": "error"
    },
    {
      "inputs": [
        {
          "internalType": "address",
          "name": "account",
          "type": "address"
        },
        {
          "internalType": "bytes32",
          "name": "neededRole",
          "type": "bytes32"
        }
      ],
      "name": "AccessControlUnauthorizedAccount",
      "type": "error"
    },
    {
      "inputs": [],
      "name": "FailedCall",
      "type": "error"
    },
    {
      "inputs": [
        {
          "internalType": "uint256",
          "name": "delay",
          "type": "uint256"
        },
        {
          "internalType": "uint256",
          "name": "minDelay",
          "type": "uint256"
        }
      ],
      "name": "TimelockInsufficientDelay",
      "type": "error"
    },
    {
      "inputs": [
        {
          "internalType": "uint256",
          "name": "targets",
          "type": "uint256"
        },
        {
          "internalType": "uint256",
          "name": "payloads",
          "type": "uint256"
        },
        {
          "internalType": "uint256",
          "name": "values",
          "type": "uint256"
        }
      ],
      "name": "TimelockInvalidOperationLength",
      "type": "error"
    },
    {
      "inputs": [
        {
          "internalType": "address",
          "name": "caller",
          "type": "address"
        }
      ],
      "name": "TimelockUnauthorizedCaller",
      "type": "error"
    },
    {
      "inputs": [
        {
          "internalType": "bytes32",
          "name": "predecessorId",
          "type": "bytes32"
        }
      ],
      "name": "TimelockUnexecutedPredecessor",
      "type": "error"
    },
    {
      "inputs": [
        {
          "internalType": "bytes32",
          "name": "operationId",
          "type": "bytes32"
        },
        {
          "internalType": "bytes32",
          "name": "expectedStates",
          "type": "bytes32"
        }
      ],
      "name": "TimelockUnexpectedOperationState",
      "type": "error"
    },
    {
      "anonymous": false,
      "inputs": [
        {
          "indexed": true,
          "internalType": "bytes32",
          "name": "id",
          "type": "bytes32"
        },
        {
          "indexed": true,
          "internalType": "uint256",
          "name": "index",
          "type": "uint256"
        },
        {
          "indexed": false,
          "internalType": "address",
          "name": "target",
          "type": "address"
        },
        {
          "indexed": false,
          "internalType": "uint256",
          "name": "value",
          "type": "uint256"
        },
        {
          "indexed": false,
          "internalType": "bytes",
          "name": "data",
          "type": "bytes"
        }
      ],
      "name": "CallExecuted",
      "type": "event"
    },
    {
      "anonymous": false,
      "inputs": [
        {
          "indexed": true,
          "internalType": "bytes32",
          "name": "id",
          "type": "bytes32"
        },
        {
          "indexed": false,
          "internalType": "bytes32",
          "name": "salt",
          "type": "bytes32"
        }
      ],
      "name": "CallSalt",
      "type": "event"
    },
    {
      "anonymous": false,
      "inputs": [
        {
          "indexed": true,
          "internalType": "bytes32",
          "name": "id",
          "type": "bytes32"
        },
        {
          "indexed": true,
          "internalType": "uint256",
          "name": "index",
          "type": "uint256"
        },
        {
          "indexed": false,
          "internalType": "address",
          "name": "target",
          "type": "address"
        },
        {
          "indexed": false,
          "internalType": "uint256",
          "name": "value",
          "type": "uint256"
        },
        {
          "indexed": false,
          "internalType": "bytes",
          "name": "data",
          "type": "bytes"
        },
        {
          "indexed": false,
          "internalType": "bytes32",
          "name": "predecessor",
          "type": "bytes32"
        },
        {
          "indexed": false,
          "internalType": "uint256",
          "name": "delay",
          "type": "uint256"
        }
      ],
      "name": "CallScheduled",
      "type": "event"
    },
    {
      "anonymous": false,
      "inputs": [
        {
          "indexed": true,
          "internalType": "bytes32",
          "name": "id",
          "type": "bytes32"
        }
      ],
      "name": "Cancelled",
      "type": "event"
    },
    {
      "anonymous": false,
      "inputs": [
        {
          "indexed": false,
          "internalType": "uint256",
          "name": "oldValue",
          "type": "uint256"
        },
        {
          "indexed": false,
          "internalType": "uint256",
          "name": "newValue",
          "type": "uint256"
        }
      ],
      "name": "MaxDelayChanged",
      "type": "event"
    },
    {
      "anonymous": false,
      "inputs": [
        {
          "indexed": false,
          "internalType": "uint256",
          "name": "oldDuration",
          "type": "uint256"
        },
        {
          "indexed": false,
          "internalType": "uint256",
          "name": "newDuration",
          "type": "uint256"
        }
      ],
      "name": "MinDelayChange",
      "type": "event"
    },
    {
      "anonymous": false,
      "inputs": [
        {
          "indexed": true,
          "internalType": "bytes32",
          "name": "role",
          "type": "bytes32"
        },
        {
          "indexed": true,
          "internalType": "bytes32",
          "name": "previousAdminRole",
          "type": "bytes32"
        },
        {
          "indexed": true,
          "internalType": "bytes32",
          "name": "newAdminRole",
          "type": "bytes32"
        }
      ],
      "name": "RoleAdminChanged",
      "type": "event"
    },
    {
      "anonymous": false,
      "inputs": [
        {
          "indexed": true,
          "internalType": "bytes32",
          "name": "role",
          "type": "bytes32"
        },
        {
          "indexed": true,
          "internalType": "address",
          "name": "account",
          "type": "address"
        },
        {
          "indexed": true,
          "internalType": "address",
          "name": "sender",
          "type": "address"
        }
      ],
      "name": "RoleGranted",
      "type": "event"
    },
    {
      "anonymous": false,
      "inputs": [
        {
          "indexed": true,
          "internalType": "bytes32",
          "name": "role",
          "type": "bytes32"
        },
        {
          "indexed": true,
          "internalType": "address",
          "name": "account",
          "type": "address"
        },
        {
          "indexed": true,
          "internalType": "address",
          "name": "sender",
          "type": "address"
        }
      ],
      "name": "RoleRevoked",
      "type": "event"
    },
    {
      "inputs": [],
      "name": "CANCELLER_ROLE",
      "outputs": [
        {
          "internalType": "bytes32",
          "name": "",
          "type": "bytes32"
        }
      ],
      "stateMutability": "view",
      "type": "function"
    },
    {
      "inputs": [],
      "name": "DEFAULT_ADMIN_ROLE",
      "outputs": [
        {
          "internalType": "bytes32",
          "name": "",
          "type": "bytes32"
        }
      ],
      "stateMutability": "view",
      "type": "function"
    },
    {
      "inputs": [],
      "name": "EXECUTOR_ROLE",
      "outputs": [
        {
          "internalType": "bytes32",
          "name": "",
          "type": "bytes32"
        }
      ],
      "stateMutability": "view",
      "type": "function"
    },
    {
      "inputs": [],
      "name": "MAX_DELAY",
      "outputs": [
        {
          "internalType": "uint256",
          "name": "",
          "type": "uint256"
        }
      ],
      "stateMutability": "view",
      "type": "function"
    },
    {
      "inputs": [],
      "name": "PROPOSER_ROLE",
      "outputs": [
        {
          "internalType": "bytes32",
          "name": "",
          "type": "bytes32"
        }
      ],
      "stateMutability": "view",
      "type": "function"
    },
    {
      "inputs": [
        {
          "internalType": "bytes32",
          "name": "id",
          "type": "bytes32"
        }
      ],
      "name": "cancel",
      "outputs": [],
      "stateMutability": "nonpayable",
      "type": "function"
    },
    {
      "inputs": [
        {
          "internalType": "address",
          "name": "target",
          "type": "address"
        },
        {
          "internalType": "uint256",
          "name": "value",
          "type": "uint256"
        },
        {
          "internalType": "bytes",
          "name": "payload",
          "type": "bytes"
        },
        {
          "internalType": "bytes32",
          "name": "predecessor",
          "type": "bytes32"
        },
        {
          "internalType": "bytes32",
          "name": "salt",
          "type": "bytes32"
        }
      ],
      "name": "execute",
      "outputs": [],
      "stateMutability": "payable",
      "type": "function"
    },
    {
      "inputs": [
        {
          "internalType": "address[]",
          "name": "targets",
          "type": "address[]"
        },
        {
          "internalType": "uint256[]",
          "name": "values",
          "type": "uint256[]"
        },
        {
          "internalType": "bytes[]",
          "name": "payloads",
          "type": "bytes[]"
        },
        {
          "internalType": "bytes32",
          "name": "predecessor",
          "type": "bytes32"
        },
        {
          "internalType": "bytes32",
          "name": "salt",
          "type": "bytes32"
        }
      ],
      "name": "executeBatch",
      "outputs": [],
      "stateMutability": "payable",
      "type": "function"
    },
    {
      "inputs": [
        {
          "internalType": "address",
          "name": "target",
          "type": "address"
        },
        {
          "internalType": "string",
          "name": "functionSignature",
          "type": "string"
        },
        {
          "internalType": "bytes",
          "name": "data",
          "type": "bytes"
        }
      ],
      "name": "executeTask",
      "outputs": [],
      "stateMutability": "nonpayable",
      "type": "function"
    },
    {
      "inputs": [],
      "name": "getMinDelay",
      "outputs": [
        {
          "internalType": "uint256",
          "name": "",
          "type": "uint256"
        }
      ],
      "stateMutability": "view",
      "type": "function"
    },
    {
      "inputs": [
        {
          "internalType": "bytes32",
          "name": "id",
          "type": "bytes32"
        }
      ],
      "name": "getOperationState",
      "outputs": [
        {
          "internalType": "enum TimelockController.OperationState",
          "name": "",
          "type": "uint8"
        }
      ],
      "stateMutability": "view",
      "type": "function"
    },
    {
      "inputs": [
        {
          "internalType": "bytes32",
          "name": "role",
          "type": "bytes32"
        }
      ],
      "name": "getRoleAdmin",
      "outputs": [
        {
          "internalType": "bytes32",
          "name": "",
          "type": "bytes32"
        }
      ],
      "stateMutability": "view",
      "type": "function"
    },
    {
      "inputs": [
        {
          "internalType": "bytes32",
          "name": "role",
          "type": "bytes32"
        },
        {
          "internalType": "uint256",
          "name": "index",
          "type": "uint256"
        }
      ],
      "name": "getRoleMember",
      "outputs": [
        {
          "internalType": "address",
          "name": "",
          "type": "address"
        }
      ],
      "stateMutability": "view",
      "type": "function"
    },
    {
      "inputs": [
        {
          "internalType": "bytes32",
          "name": "role",
          "type": "bytes32"
        }
      ],
      "name": "getRoleMemberCount",
      "outputs": [
        {
          "internalType": "uint256",
          "name": "",
          "type": "uint256"
        }
      ],
      "stateMutability": "view",
      "type": "function"
    },
    {
      "inputs": [
        {
          "internalType": "bytes32",
          "name": "role",
          "type": "bytes32"
        }
      ],
      "name": "getRoleMembers",
      "outputs": [
        {
          "internalType": "address[]",
          "name": "",
          "type": "address[]"
        }
      ],
      "stateMutability": "view",
      "type": "function"
    },
    {
      "inputs": [
        {
          "internalType": "bytes32",
          "name": "id",
          "type": "bytes32"
        }
      ],
      "name": "getTimestamp",
      "outputs": [
        {
          "internalType": "uint256",
          "name": "",
          "type": "uint256"
        }
      ],
      "stateMutability": "view",
      "type": "function"
    },
    {
      "inputs": [
        {
          "internalType": "bytes32",
          "name": "role",
          "type": "bytes32"
        },
        {
          "internalType": "address",
          "name": "account",
          "type": "address"
        }
      ],
      "name": "grantRole",
      "outputs": [],
      "stateMutability": "nonpayable",
      "type": "function"
    },
    {
      "inputs": [
        {
          "internalType": "bytes32",
          "name": "role",
          "type": "bytes32"
        },
        {
          "internalType": "address",
          "name": "account",
          "type": "address"
        }
      ],
      "name": "hasRole",
      "outputs": [
        {
          "internalType": "bool",
          "name": "",
          "type": "bool"
        }
      ],
      "stateMutability": "view",
      "type": "function"
    },
    {
      "inputs": [
        {
          "internalType": "address",
          "name": "target",
          "type": "address"
        },
        {
          "internalType": "uint256",
          "name": "value",
          "type": "uint256"
        },
        {
          "internalType": "bytes",
          "name": "data",
          "type": "bytes"
        },
        {
          "internalType": "bytes32",
          "name": "predecessor",
          "type": "bytes32"
        },
        {
          "internalType": "bytes32",
          "name": "salt",
          "type": "bytes32"
        }
      ],
      "name": "hashOperation",
      "outputs": [
        {
          "internalType": "bytes32",
          "name": "",
          "type": "bytes32"
        }
      ],
      "stateMutability": "pure",
      "type": "function"
    },
    {
      "inputs": [
        {
          "internalType": "address[]",
          "name": "targets",
          "type": "address[]"
        },
        {
          "internalType": "uint256[]",
          "name": "values",
          "type": "uint256[]"
        },
        {
          "internalType": "bytes[]",
          "name": "payloads",
          "type": "bytes[]"
        },
        {
          "internalType": "bytes32",
          "name": "predecessor",
          "type": "bytes32"
        },
        {
          "internalType": "bytes32",
          "name": "salt",
          "type": "bytes32"
        }
      ],
      "name": "hashOperationBatch",
      "outputs": [
        {
          "internalType": "bytes32",
          "name": "",
          "type": "bytes32"
        }
      ],
      "stateMutability": "pure",
      "type": "function"
    },
    {
      "inputs": [
        {
          "internalType": "bytes32",
          "name": "id",
          "type": "bytes32"
        }
      ],
      "name": "isOperation",
      "outputs": [
        {
          "internalType": "bool",
          "name": "",
          "type": "bool"
        }
      ],
      "stateMutability": "view",
      "type": "function"
    },
    {
      "inputs": [
        {
          "internalType": "bytes32",
          "name": "id",
          "type": "bytes32"
        }
      ],
      "name": "isOperationDone",
      "outputs": [
        {
          "internalType": "bool",
          "name": "",
          "type": "bool"
        }
      ],
      "stateMutability": "view",
      "type": "function"
    },
    {
      "inputs": [
        {
          "internalType": "bytes32",
          "name": "id",
          "type": "bytes32"
        }
      ],
      "name": "isOperationPending",
      "outputs": [
        {
          "internalType": "bool",
          "name": "",
          "type": "bool"
        }
      ],
      "stateMutability": "view",
      "type": "function"
    },
    {
      "inputs": [
        {
          "internalType": "bytes32",
          "name": "id",
          "type": "bytes32"
        }
      ],
      "name": "isOperationReady",
      "outputs": [
        {
          "internalType": "bool",
          "name": "",
          "type": "bool"
        }
      ],
      "stateMutability": "view",
      "type": "function"
    },
    {
      "inputs": [
        {
          "internalType": "address",
          "name": "",
          "type": "address"
        },
        {
          "internalType": "address",
          "name": "",
          "type": "address"
        },
        {
          "internalType": "uint256[]",
          "name": "",
          "type": "uint256[]"
        },
        {
          "internalType": "uint256[]",
          "name": "",
          "type": "uint256[]"
        },
        {
          "internalType": "bytes",
          "name": "",
          "type": "bytes"
        }
      ],
      "name": "onERC1155BatchReceived",
      "outputs": [
        {
          "internalType": "bytes4",
          "name": "",
          "type": "bytes4"
        }
      ],
      "stateMutability": "nonpayable",
      "type": "function"
    },
    {
      "inputs": [
        {
          "internalType": "address",
          "name": "",
          "type": "address"
        },
        {
          "internalType": "address",
          "name": "",
          "type": "address"
        },
        {
          "internalType": "uint256",
          "name": "",
          "type": "uint256"
        },
        {
          "internalType": "uint256",
          "name": "",
          "type": "uint256"
        },
        {
          "internalType": "bytes",
          "name": "",
          "type": "bytes"
        }
      ],
      "name": "onERC1155Received",
      "outputs": [
        {
          "internalType": "bytes4",
          "name": "",
          "type": "bytes4"
        }
      ],
      "stateMutability": "nonpayable",
      "type": "function"
    },
    {
      "inputs": [
        {
          "internalType": "address",
          "name": "",
          "type": "address"
        },
        {
          "internalType": "address",
          "name": "",
          "type": "address"
        },
        {
          "internalType": "uint256",
          "name": "",
          "type": "uint256"
        },
        {
          "internalType": "bytes",
          "name": "",
          "type": "bytes"
        }
      ],
      "name": "onERC721Received",
      "outputs": [
        {
          "internalType": "bytes4",
          "name": "",
          "type": "bytes4"
        }
      ],
      "stateMutability": "nonpayable",
      "type": "function"
    },
    {
      "inputs": [
        {
          "internalType": "bytes32",
          "name": "role",
          "type": "bytes32"
        },
        {
          "internalType": "address",
          "name": "callerConfirmation",
          "type": "address"
        }
      ],
      "name": "renounceRole",
      "outputs": [],
      "stateMutability": "nonpayable",
      "type": "function"
    },
    {
      "inputs": [
        {
          "internalType": "bytes32",
          "name": "role",
          "type": "bytes32"
        },
        {
          "internalType": "address",
          "name": "account",
          "type": "address"
        }
      ],
      "name": "revokeRole",
      "outputs": [],
      "stateMutability": "nonpayable",
      "type": "function"
    },
    {
      "inputs": [],
      "name": "salt",
      "outputs": [
        {
          "internalType": "uint256",
          "name": "",
          "type": "uint256"
        }
      ],
      "stateMutability": "view",
      "type": "function"
    },
    {
      "inputs": [
        {
          "internalType": "address",
          "name": "target",
          "type": "address"
        },
        {
          "internalType": "uint256",
          "name": "value",
          "type": "uint256"
        },
        {
          "internalType": "bytes",
          "name": "data",
          "type": "bytes"
        },
        {
          "internalType": "bytes32",
          "name": "predecessor",
          "type": "bytes32"
        },
        {
          "internalType": "bytes32",
          "name": "salt",
          "type": "bytes32"
        },
        {
          "internalType": "uint256",
          "name": "delay",
          "type": "uint256"
        }
      ],
      "name": "schedule",
      "outputs": [],
      "stateMutability": "nonpayable",
      "type": "function"
    },
    {
      "inputs": [
        {
          "internalType": "address[]",
          "name": "targets",
          "type": "address[]"
        },
        {
          "internalType": "uint256[]",
          "name": "values",
          "type": "uint256[]"
        },
        {
          "internalType": "bytes[]",
          "name": "payloads",
          "type": "bytes[]"
        },
        {
          "internalType": "bytes32",
          "name": "predecessor",
          "type": "bytes32"
        },
        {
          "internalType": "bytes32",
          "name": "salt",
          "type": "bytes32"
        },
        {
          "internalType": "uint256",
          "name": "delay",
          "type": "uint256"
        }
      ],
      "name": "scheduleBatch",
      "outputs": [],
      "stateMutability": "nonpayable",
      "type": "function"
    },
    {
      "inputs": [
        {
          "internalType": "address",
          "name": "target",
          "type": "address"
        },
        {
          "internalType": "string",
          "name": "functionSignature",
          "type": "string"
        },
        {
          "internalType": "bytes",
          "name": "data",
          "type": "bytes"
        }
      ],
      "name": "scheduleTask",
      "outputs": [],
      "stateMutability": "nonpayable",
      "type": "function"
    },
    {
      "inputs": [
        {
          "internalType": "uint256",
          "name": "maxDelay",
          "type": "uint256"
        }
      ],
      "name": "setMaxDelay",
      "outputs": [],
      "stateMutability": "nonpayable",
      "type": "function"
    },
    {
      "inputs": [
        {
          "internalType": "bytes4",
          "name": "interfaceId",
          "type": "bytes4"
        }
      ],
      "name": "supportsInterface",
      "outputs": [
        {
          "internalType": "bool",
          "name": "",
          "type": "bool"
        }
      ],
      "stateMutability": "view",
      "type": "function"
    },
    {
      "inputs": [
        {
          "internalType": "uint256",
          "name": "newDelay",
          "type": "uint256"
        }
      ],
      "name": "updateDelay",
      "outputs": [],
      "stateMutability": "nonpayable",
      "type": "function"
    },
    {
      "stateMutability": "payable",
      "type": "receive"
    }
  ],
  "transactionHash": "0x933cb475a8d70bd0725a9baa4bc6349dc1152da9a15f2a12bf22e0f138229262",
  "args": [
    5,
    31536000,
    [
      "0x70997970C51812dc3A010C7d01b50e0d17dc79C8"
    ],
    [
      "0x70997970C51812dc3A010C7d01b50e0d17dc79C8"
    ]
  ],
  "numDeployments": 1,
  "solcInputHash": "a6430f4098dae21aa1a7289deef3e0fa",
  "bytecode": "0x604060808152346102b8576125b08038038061001a816102bd565b92833981016080828203126102b8578151926020918284015193828101519160018060401b03928381116102b857816100549184016102f8565b9260608301519081116102b85761006b92016102f8565b9361007530610394565b61029d575b60005b8251811015610122576001906001600160a01b038061009c838761036a565b51166100a781610412565b6100f8575b506100b7828661036a565b51166100c281610529565b6100ce575b500161007d565b6100f19060008051602061259083398151915260005260038852866000206105b2565b50386100c7565b61011b9060008051602061255083398151915260005260038952876000206105b2565b50386100ac565b5093905060005b8151811015610188576001906001600160a01b03610147828561036a565b5116610152816104a0565b61015e575b5001610129565b6101819060008051602061257083398151915260005260038752856000206105b2565b5038610157565b50509183806002557f11c24f4ead16507c69ac467fbd5e4eed5fb5c699626d2cc6d66421df253886d5848051600081528386820152a1610e10810180911161028757811115610251576004556101dd30610412565b610228575b6101eb306104a0565b6101fe575b5051611ef3908161063d8239f35b6003906000805160206125708339815191526000525261022130826000206105b2565b50816101f0565b6000805160206125508339815191526000526003815261024b30836000206105b2565b506101e2565b50606491519062461bcd60e51b82526004820152601060248201526f696c6c6567616c206d617844656c617960801b6044820152fd5b634e487b7160e01b600052601160045260246000fd5b60008052600384526102b230846000206105b2565b5061007a565b600080fd5b6040519190601f01601f191682016001600160401b038111838210176102e257604052565b634e487b7160e01b600052604160045260246000fd5b81601f820112156102b8578051916020916001600160401b0384116102e2578360051b9083806103298185016102bd565b8097815201928201019283116102b8578301905b82821061034b575050505090565b81516001600160a01b03811681036102b857815290830190830161033d565b805182101561037e5760209160051b010190565b634e487b7160e01b600052603260045260246000fd5b6001600160a01b031660008181527fad3228b676f7d3cd4284a5443f17f1962b36e491b30a40b2405849e597ba5fb5602052604081205490919060ff1661040e57818052816020526040822081835260205260408220600160ff1982541617905533916000805160206125308339815191528180a4600190565b5090565b6001600160a01b031660008181527f3412d5605ac6cd444957cedb533e5dacad6378b4bc819ebe3652188a665066d560205260408120549091906000805160206125508339815191529060ff1661049b57808352826020526040832082845260205260408320600160ff19825416179055600080516020612530833981519152339380a4600190565b505090565b6001600160a01b031660008181527fdae2aa361dfd1ca020a396615627d436107c35eff9fe7738a3512819782d706960205260408120549091906000805160206125708339815191529060ff1661049b57808352826020526040832082845260205260408320600160ff19825416179055600080516020612530833981519152339380a4600190565b6001600160a01b031660008181527fc3ad33e20b0c56a223ad5104fff154aa010f8715b9c981fd38fdc60a4d1a52fb60205260408120549091906000805160206125908339815191529060ff1661049b57808352826020526040832082845260205260408320600160ff19825416179055600080516020612530833981519152339380a4600190565b919060018301600090828252806020526040822054156000146106365784549468010000000000000000861015610622576001860180825586101561060e57836040949596828552602085200155549382526020522055600190565b634e487b7160e01b83526032600452602483fd5b634e487b7160e01b83526041600452602483fd5b5092505056fe60406080815260049081361015610020575b5050361561001e57600080fd5b005b600091823560e01c806301d5062a1461117157806301ffc9a71461107957806307bd02651461103e578063106ca3c314610f5157838163134008d314610e955750806313bc9f2014610e75578063150b7a0214610e06578063248a9ca314610ddd5780632ab0f52914610dbd5780632f2ff15d14610d5357806331d5075014610d3357806336568abe14610cd35780634125ff9014610cb6578063584b153e14610c8d57806364d6235314610c225780637958004c14610bde5780638065657f14610bbc5780638f2a0bb014610a0a5780638f61f4f5146109cf5780639010d07c1461098e57806391d148541461094a578063a217fddf1461092f578063a3246ad314610888578063b08e51c01461084d578063b1c5f42714610828578063bc197c8114610788578063bfa0b13314610769578063c4d252f51461069b578063ca15c87314610674578063d45c44351461064d578063d547741f1461060d578063e38335e5146104ab578063f1eccc4c14610393578063f23a6e6114610324578063f27a0c92146103015763f4b6fc13146101bb5750610011565b8291346102fd576001600160e01b031961022a61024f6102416101dd366114b4565b949397929096917fd8aa0f3194971a2a116679f7c2090f6939c8d4e01a2a8d7e41d55e5351469e638c528b602052898c206000805260205260ff8a6000205416156102ef575b3691611365565b6020815191012016918651948593602085016118c1565b03601f198101835282611327565b60055491303b156102eb5785926102ae6001600160a01b0393865197889586957f134008d3000000000000000000000000000000000000000000000000000000008752169085015285602485015260a0604485015260a48401906118e1565b908460648401526084830152038183305af19081156102e257506102cf5750f35b6102d8906112fd565b6102df5780f35b80fd5b513d84823e3d90fd5b8580fd5b6102f833611a2e565b610223565b5050fd5b5050346103205781600319360112610320576020906002549051908152f35b5080fd5b5091346102df5760a03660031901126102df5761033f61124f565b5061034861126a565b506084359067ffffffffffffffff82116102df575060209261036c9136910161139c565b50517ff23a6e61000000000000000000000000000000000000000000000000000000008152f35b5090346104a7576103c56001600160e01b03196103ea6103dc6103b5366114b4565b94939692909791610223336119ab565b6020815191012016918651958693602085016118c1565b03601f198101845283611327565b6005546000198114610494579060018693920180600555600254303b156104905761045d6001600160a01b0394875198899687967f01d5062a000000000000000000000000000000000000000000000000000000008852169086015286602486015260c0604486015260c48501906118e1565b91856064850152608484015260a4830152038183305af19081156102e25750610484575080f35b61048d906112fd565b80f35b8480fd5b602486601187634e487b7160e01b835252fd5b8280fd5b506104b5366113eb565b9098949591939296977fd8aa0f3194971a2a116679f7c2090f6939c8d4e01a2a8d7e41d55e5351469e638b528a602052858b208b805260205260ff868c205416156105ff575b8383148015906105f5575b6105b1575061051e610525918a868a878b888f611741565b9889611ac5565b885b818110610538578961048d8a611b99565b80808a7fc2617efa69bab66782fa219543714338489c4e9e178271560a91b82c3f612b588a8a6105a86105908f988c610589828e6105838f60019f61057e9185916116c5565b6116eb565b976116c5565b35956116ff565b9061059d82828787611b44565b8d5194859485611591565b0390a301610527565b85517fffb032110000000000000000000000000000000000000000000000000000000081529081019283526020830185905260408301849052918291506060010390fd5b5084831415610506565b61060833611a2e565b6104fb565b5090346104a757806003193601126104a7576106499135610644600161063161126a565b9383875286602052862001543390611a93565b611bfc565b5080f35b5091346102df5760203660031901126102df575061066d6020923561189a565b9051908152f35b50346104a75760203660031901126104a75760209282913581526003845220549051908152f35b5090346104a75760203660031901126104a7578135917ffd643c72710c63c0180259aba6b2d05451e3591a24e58b62239378085726f7838085528460205282852033865260205260ff83862054161561074e57506106f883611613565b156107325750829082825260016020528120557fbaa1eb22f2a492ba1a5fea61b8df4d27c6c8b5f3971e63bb58fa14ff72eedb708280a280f35b826044925191635ead8eb560e01b835282015260066024820152fd5b604492519163e2517d3f60e01b835233908301526024820152fd5b5050346103205781600319360112610320576020906005549051908152f35b5091346102df5760a03660031901126102df576107a361124f565b506107ac61126a565b5067ffffffffffffffff90604435828111610320576107ce903690860161144d565b50606435828111610320576107e6903690860161144d565b506084359182116102df57506020926108019136910161139c565b50517fbc197c81000000000000000000000000000000000000000000000000000000008152f35b5050346103205760209061066d61083e366113eb565b96959095949194939293611741565b505034610320578160031936011261032057602090517ffd643c72710c63c0180259aba6b2d05451e3591a24e58b62239378085726f7838152f35b5082346102df57602091826003193601126103205792919235815260038352818120908251808584549182815201908194845286842090845b81811061091b57505050816108d7910382611327565b83519485948186019282875251809352850193925b8281106108fb57505050500390f35b83516001600160a01b0316855286955093810193928101926001016108ec565b8254845292880192600192830192016108c1565b50503461032057816003193601126103205751908152602090f35b50346104a757816003193601126104a7578160209360ff9261096a61126a565b903582528186526001600160a01b0383832091168252855220541690519015158152f35b50346104a757816003193601126104a7576109c06020936001600160a01b039235815260038552836024359120611c36565b90549060031b1c169051908152f35b505034610320578160031936011261032057602090517fb09aa5aeb3702cfd50b6b62bc4532604938f21248a27a1d5ca736082b6819cc18152f35b5090346104a75760c03660031901126104a75767ffffffffffffffff90823582811161049057610a3d90369085016113ba565b93602435848111610bb857610a5590369083016113ba565b94604435908111610bb457610a6d90369084016113ba565b606493919335906084359760a43593610a85336119ab565b818b14801590610baa575b610b665750610aa689848489858f8b908e611741565b99610ab1858c611921565b8a8c5b8a838210610afa578e838e8381610ac9578380f35b7f20fda5fd27a1ea7bf5b9567f143ac5470bb059374a27e8f67cb44f946f6d03879160209151908152a28180808380f35b6001927f4cf4410cc57040e44862ef0f45f3dd5a5e02db8eb8add648d4b0e236f1d07dca8b8b610b5b8f8c88978f92898f8f8f610b4991610b4361057e868094610b50996116c5565b9a6116c5565b35986116ff565b915196879687611535565b0390a3018b90610ab4565b88517fffb032110000000000000000000000000000000000000000000000000000000081529081018b81526020810184905260408101929092529081906060010390fd5b50828b1415610a90565b8780fd5b8680fd5b5050346103205760209061066d610bd2366112ae565b9493909392919261166f565b5091903461032057602036600319011261032057610bfc833561163c565b90519183821015610c0f57602083838152f35b80602185634e487b7160e01b6024945252fd5b5090346104a75760203660031901126104a757813591303303610c7757507f11c24f4ead16507c69ac467fbd5e4eed5fb5c699626d2cc6d66421df253886d5906002548151908152836020820152a160025580f35b602491519063e2850c5960e01b82523390820152fd5b5091346102df5760203660031901126102df5750610cad60209235611613565b90519015158152f35b50346104a757826003193601126104a75760209250549051908152f35b50919034610320578060031936011261032057610cee61126a565b90336001600160a01b03831603610d0b5750610649919235611bfc565b8390517f6697b232000000000000000000000000000000000000000000000000000000008152fd5b5091346102df5760203660031901126102df5750610cad602092356115fc565b50346104a757816003193601126104a75735610d6d61126a565b9080845283602052610d86600184862001543390611a93565b610d908282611c4e565b610d98578380f35b83526003602052908220610db5916001600160a01b031690611d43565b503880808380f35b5091346102df5760203660031901126102df5750610cad602092356115e4565b50346104a75760203660031901126104a757816020936001923581528085522001549051908152f35b5091346102df5760803660031901126102df57610e2161124f565b50610e2a61126a565b506064359067ffffffffffffffff82116102df5750602092610e4e9136910161139c565b50517f150b7a02000000000000000000000000000000000000000000000000000000008152f35b5091346102df5760203660031901126102df5750610cad602092356115b6565b61048d610f2582610f3b7fc2617efa69bab66782fa219543714338489c4e9e178271560a91b82c3f612b58610f1c89610ecd366112ae565b7fd8aa0f3194971a2a116679f7c2090f6939c8d4e01a2a8d7e41d55e5351469e638b9a9697939598929a528a602052828b208b805260205260ff838c20541615610f43575b8985858a8a61166f565b998a9889611ac5565b610f3183838888611b44565b5194859485611591565b0390a3611b99565b610f4c33611a2e565b610f12565b50346104a75760203660031901126104a757803591600254610e10810180911161102b57831115610fce57303303610fb7577f8494f77d4a61d84f47d72ac087b427d85a3c3783e2b970f0a142019b5d5e1b7e9082548151908152846020820152a15580f35b60249250519063e2850c5960e01b82523390820152fd5b90602060649251917f08c379a0000000000000000000000000000000000000000000000000000000008352820152601060248201527f696c6c6567616c206d617844656c6179000000000000000000000000000000006044820152fd5b602485601185634e487b7160e01b835252fd5b505034610320578160031936011261032057602090517fd8aa0f3194971a2a116679f7c2090f6939c8d4e01a2a8d7e41d55e5351469e638152f35b50346104a75760203660031901126104a75735906001600160e01b031982168092036104a757602092507f4e2312e0000000000000000000000000000000000000000000000000000000008214801561111f575b809281156110e0575b5050519015158152f35b7f5a05180f000000000000000000000000000000000000000000000000000000009192935014908115611117575b509038806110d6565b90503861110e565b507f7965db0b000000000000000000000000000000000000000000000000000000008214806110cd57507f01ffc9a70000000000000000000000000000000000000000000000000000000082146110cd565b5090346104a75760c03660031901126104a75761118c61124f565b908360243560443567ffffffffffffffff81116104a7577f4cf4410cc57040e44862ef0f45f3dd5a5e02db8eb8add648d4b0e236f1d07dca956111d191369101611280565b959091606435956112126084359760a435906111ec336119ab565b6111fa8a828d8a898961166f565b9a8b97611207848a611921565b8a5196879687611535565b0390a38161121e578380f35b7f20fda5fd27a1ea7bf5b9567f143ac5470bb059374a27e8f67cb44f946f6d03879160209151908152a23880808380f35b600435906001600160a01b038216820361126557565b600080fd5b602435906001600160a01b038216820361126557565b9181601f840112156112655782359167ffffffffffffffff8311611265576020838186019501011161126557565b60a0600319820112611265576004356001600160a01b03811681036112655791602435916044359067ffffffffffffffff8211611265576112f191600401611280565b90916064359060843590565b67ffffffffffffffff811161131157604052565b634e487b7160e01b600052604160045260246000fd5b90601f8019910116810190811067ffffffffffffffff82111761131157604052565b67ffffffffffffffff811161131157601f01601f191660200190565b92919261137182611349565b9161137f6040519384611327565b829481845281830111611265578281602093846000960137010152565b9080601f83011215611265578160206113b793359101611365565b90565b9181601f840112156112655782359167ffffffffffffffff8311611265576020808501948460051b01011161126557565b9060a06003198301126112655767ffffffffffffffff6004358181116112655783611418916004016113ba565b939093926024358381116112655782611433916004016113ba565b93909392604435918211611265576112f1916004016113ba565b81601f820112156112655780359160209167ffffffffffffffff8411611311578360051b906040519461148285840187611327565b85528380860192820101928311611265578301905b8282106114a5575050505090565b81358152908301908301611497565b906060600319830112611265576004356001600160a01b0381168103611265579167ffffffffffffffff9160243583811161126557826114f691600401611280565b939093926044359182116112655761151091600401611280565b9091565b908060209392818452848401376000828201840152601f01601f1916010190565b929093611564926001600160a01b0360809699989799168552602085015260a0604085015260a0840191611514565b9460608201520152565b9190820180921161157b57565b634e487b7160e01b600052601160045260246000fd5b6113b794926001600160a01b0360609316825260208201528160408201520191611514565b6115bf9061163c565b60048110156115ce5760021490565b634e487b7160e01b600052602160045260246000fd5b6115ed9061163c565b60048110156115ce5760031490565b6116059061163c565b60048110156115ce57151590565b61161c9061163c565b60048110156115ce5760018114908115611634575090565b600291501490565b6116459061189a565b806116505750600090565b6001810361165e5750600390565b42101561166a57600190565b600290565b946116a66116bf949592936040519687956001600160a01b03602088019a168a52604087015260a0606087015260c0860191611514565b91608084015260a083015203601f198101835282611327565b51902090565b91908110156116d55760051b0190565b634e487b7160e01b600052603260045260246000fd5b356001600160a01b03811681036112655790565b91908110156116d55760051b81013590601e198136030182121561126557019081359167ffffffffffffffff8311611265576020018236038113611265579190565b969294909695919560405196602091828901998060c08b0160a08d525260e08a01919060005b81811061187157505050601f1997888a83030160408b01528082527f07ffffffffffffffffffffffffffffffffffffffffffffffffffffffffffffff8111611265579089969495939897929160051b80928a830137019380888601878703606089015252604085019460408260051b82010195836000925b848410611807575050505050506116bf9550608084015260a083015203908101835282611327565b9193969850919398999496603f198282030184528935601e198436030181121561126557830186810191903567ffffffffffffffff81116112655780360383136112655761185a88928392600195611514565b9b0194019401918b98969394919a9997959a6117df565b9091928335906001600160a01b0382168092036112655790815285019285019190600101611767565b60005260016020526040600020546118b46004548261156e565b4211156113b75750600090565b909280926001600160e01b03196004951683528483013701016000815290565b919082519283825260005b84811061190d575050826000602080949584010152601f8019910116010190565b6020818301810151848301820152016118ec565b9061192b826115fc565b61198c576002548082106119555750611944904261156e565b906000526001602052604060002055565b60449250604051917f5433660900000000000000000000000000000000000000000000000000000000835260048301526024820152fd5b60448260405190635ead8eb560e01b8252600482015260016024820152fd5b6001600160a01b031660008181527f3412d5605ac6cd444957cedb533e5dacad6378b4bc819ebe3652188a665066d560205260409020547fb09aa5aeb3702cfd50b6b62bc4532604938f21248a27a1d5ca736082b6819cc19060ff1615611a10575050565b604492506040519163e2517d3f60e01b835260048301526024820152fd5b6001600160a01b031660008181527fdae2aa361dfd1ca020a396615627d436107c35eff9fe7738a3512819782d706960205260409020547fd8aa0f3194971a2a116679f7c2090f6939c8d4e01a2a8d7e41d55e5351469e639060ff1615611a10575050565b8060005260006020526001600160a01b0360406000209216918260005260205260ff6040600020541615611a10575050565b611ace816115b6565b15611b25575080151580611b15575b611ae45750565b602490604051907f90a9a6180000000000000000000000000000000000000000000000000000000082526004820152fd5b50611b1f816115e4565b15611add565b60449060405190635ead8eb560e01b8252600482015260046024820152fd5b611b8e93600093928493826040519384928337810185815203925af13d15611b91573d90611b7182611349565b91611b7f6040519384611327565b82523d6000602084013e611bb9565b50565b606090611bb9565b611ba2816115b6565b15611b255760005260016020526001604060002055565b909190611bfa5750805115611bd057805190602001fd5b60046040517fd6bda275000000000000000000000000000000000000000000000000000000008152fd5b565b611c068282611ccd565b9182611c1157505090565b611c329160005260036020526001600160a01b036040600020911690611dcd565b5090565b80548210156116d55760005260206000200190600090565b90600091808352826020526001600160a01b036040842092169182845260205260ff60408420541615600014611cc857808352826020526040832082845260205260408320600160ff198254161790557f2f8788117e7eff1d82e926ec794901d17c78024a50270940304540a733656f0d339380a4600190565b505090565b90600091808352826020526001600160a01b036040842092169182845260205260ff604084205416600014611cc85780835282602052604083208284526020526040832060ff1981541690557ff6391f5c32d9c69d2a47ea670b442974b53935d1edc7fd64eb21e047a839171b339380a4600190565b91906001830160009082825280602052604082205415600014611dc75784549468010000000000000000861015611db35783611da3611d8c886001604098999a01855584611c36565b819391549060031b91821b91600019901b19161790565b9055549382526020522055600190565b602483634e487b7160e01b81526041600452fd5b50925050565b90600182019060009281845282602052604084205490811515600014611eb65760001991808301818111611ea257825490848201918211611e8e57818103611e59575b50505080548015611e4557820191611e288383611c36565b909182549160031b1b191690555582526020526040812055600190565b602486634e487b7160e01b81526031600452fd5b611e79611e69611d8c9386611c36565b90549060031b1c92839286611c36565b90558652846020526040862055388080611e10565b602488634e487b7160e01b81526011600452fd5b602487634e487b7160e01b81526011600452fd5b505050509056fea26469706673582212200e86721a56550d167dbacf68961000c8208b7aeec6f6e9a14eed528eeb4785c564736f6c634300081900332f8788117e7eff1d82e926ec794901d17c78024a50270940304540a733656f0db09aa5aeb3702cfd50b6b62bc4532604938f21248a27a1d5ca736082b6819cc1d8aa0f3194971a2a116679f7c2090f6939c8d4e01a2a8d7e41d55e5351469e63fd643c72710c63c0180259aba6b2d05451e3591a24e58b62239378085726f783",
  "devdoc": {
    "errors": {
      "AccessControlBadConfirmation()": [
        {
          "details": "The caller of a function is not the expected one. NOTE: Don't confuse with {AccessControlUnauthorizedAccount}."
        }
      ],
      "AccessControlUnauthorizedAccount(address,bytes32)": [
        {
          "details": "The `account` is missing a role."
        }
      ],
      "FailedCall()": [
        {
          "details": "A call to an address target failed. The target may have reverted."
        }
      ],
      "TimelockInsufficientDelay(uint256,uint256)": [
        {
          "details": "The schedule operation doesn't meet the minimum delay."
        }
      ],
      "TimelockInvalidOperationLength(uint256,uint256,uint256)": [
        {
          "details": "Mismatch between the parameters length for an operation call."
        }
      ],
      "TimelockUnauthorizedCaller(address)": [
        {
          "details": "The caller account is not authorized."
        }
      ],
      "TimelockUnexecutedPredecessor(bytes32)": [
        {
          "details": "The predecessor to an operation not yet done."
        }
      ],
      "TimelockUnexpectedOperationState(bytes32,bytes32)": [
        {
          "details": "The current state of an operation is not as required. The `expectedStates` is a bitmap with the bits enabled for each OperationState enum position counting from right to left. See {_encodeStateBitmap}."
        }
      ]
    },
    "events": {
      "CallExecuted(bytes32,uint256,address,uint256,bytes)": {
        "details": "Emitted when a call is performed as part of operation `id`."
      },
      "CallSalt(bytes32,bytes32)": {
        "details": "Emitted when new proposal is scheduled with non-zero salt."
      },
      "CallScheduled(bytes32,uint256,address,uint256,bytes,bytes32,uint256)": {
        "details": "Emitted when a call is scheduled as part of operation `id`."
      },
      "Cancelled(bytes32)": {
        "details": "Emitted when operation `id` is cancelled."
      },
      "MinDelayChange(uint256,uint256)": {
        "details": "Emitted when the minimum delay for future operations is modified."
      },
      "RoleAdminChanged(bytes32,bytes32,bytes32)": {
        "details": "Emitted when `newAdminRole` is set as ``role``'s admin role, replacing `previousAdminRole` `DEFAULT_ADMIN_ROLE` is the starting admin for all roles, despite {RoleAdminChanged} not being emitted signaling this."
      },
      "RoleGranted(bytes32,address,address)": {
        "details": "Emitted when `account` is granted `role`. `sender` is the account that originated the contract call. This account bears the admin role (for the granted role). Expected in cases where the role was granted using the internal {AccessControl-_grantRole}."
      },
      "RoleRevoked(bytes32,address,address)": {
        "details": "Emitted when `account` is revoked `role`. `sender` is the account that originated the contract call:   - if using `revokeRole`, it is the admin role bearer   - if using `renounceRole`, it is the role bearer (i.e. `account`)"
      }
    },
    "kind": "dev",
    "methods": {
      "cancel(bytes32)": {
        "details": "Cancel an operation. Requirements: - the caller must have the 'canceller' role."
      },
      "execute(address,uint256,bytes,bytes32,bytes32)": {
        "details": "Execute an (ready) operation containing a single transaction. Emits a {CallExecuted} event. Requirements: - the caller must have the 'executor' role."
      },
      "executeBatch(address[],uint256[],bytes[],bytes32,bytes32)": {
        "details": "Execute an (ready) operation containing a batch of transactions. Emits one {CallExecuted} event per transaction in the batch. Requirements: - the caller must have the 'executor' role."
      },
      "getMinDelay()": {
        "details": "Returns the minimum delay in seconds for an operation to become valid. This value can be changed by executing an operation that calls `updateDelay`."
      },
      "getOperationState(bytes32)": {
        "details": "Returns operation state."
      },
      "getRoleAdmin(bytes32)": {
        "details": "Returns the admin role that controls `role`. See {grantRole} and {revokeRole}. To change a role's admin, use {_setRoleAdmin}."
      },
      "getRoleMember(bytes32,uint256)": {
        "details": "Returns one of the accounts that have `role`. `index` must be a value between 0 and {getRoleMemberCount}, non-inclusive. Role bearers are not sorted in any particular way, and their ordering may change at any point. WARNING: When using {getRoleMember} and {getRoleMemberCount}, make sure you perform all queries on the same block. See the following https://forum.openzeppelin.com/t/iterating-over-elements-on-enumerableset-in-openzeppelin-contracts/2296[forum post] for more information."
      },
      "getRoleMemberCount(bytes32)": {
        "details": "Returns the number of accounts that have `role`. Can be used together with {getRoleMember} to enumerate all bearers of a role."
      },
      "getRoleMembers(bytes32)": {
        "details": "Return all accounts that have `role` WARNING: This operation will copy the entire storage to memory, which can be quite expensive. This is designed to mostly be used by view accessors that are queried without any gas fees. Developers should keep in mind that this function has an unbounded cost, and using it as part of a state-changing function may render the function uncallable if the set grows to a point where copying to memory consumes too much gas to fit in a block."
      },
      "getTimestamp(bytes32)": {
        "details": "Returns the timestamp at which an operation becomes ready (0 for unset operations, 1 for done operations)."
      },
      "grantRole(bytes32,address)": {
        "details": "Grants `role` to `account`. If `account` had not been already granted `role`, emits a {RoleGranted} event. Requirements: - the caller must have ``role``'s admin role. May emit a {RoleGranted} event."
      },
      "hasRole(bytes32,address)": {
        "details": "Returns `true` if `account` has been granted `role`."
      },
      "hashOperation(address,uint256,bytes,bytes32,bytes32)": {
        "details": "Returns the identifier of an operation containing a single transaction."
      },
      "hashOperationBatch(address[],uint256[],bytes[],bytes32,bytes32)": {
        "details": "Returns the identifier of an operation containing a batch of transactions."
      },
      "isOperation(bytes32)": {
        "details": "Returns whether an id corresponds to a registered operation. This includes both Waiting, Ready, and Done operations."
      },
      "isOperationDone(bytes32)": {
        "details": "Returns whether an operation is done or not."
      },
      "isOperationPending(bytes32)": {
        "details": "Returns whether an operation is pending or not. Note that a \"pending\" operation may also be \"ready\"."
      },
      "isOperationReady(bytes32)": {
        "details": "Returns whether an operation is ready for execution. Note that a \"ready\" operation is also \"pending\"."
      },
      "onERC721Received(address,address,uint256,bytes)": {
        "details": "See {IERC721Receiver-onERC721Received}. Always returns `IERC721Receiver.onERC721Received.selector`."
      },
      "renounceRole(bytes32,address)": {
        "details": "Revokes `role` from the calling account. Roles are often managed via {grantRole} and {revokeRole}: this function's purpose is to provide a mechanism for accounts to lose their privileges if they are compromised (such as when a trusted device is misplaced). If the calling account had been revoked `role`, emits a {RoleRevoked} event. Requirements: - the caller must be `callerConfirmation`. May emit a {RoleRevoked} event."
      },
      "revokeRole(bytes32,address)": {
        "details": "Revokes `role` from `account`. If `account` had been granted `role`, emits a {RoleRevoked} event. Requirements: - the caller must have ``role``'s admin role. May emit a {RoleRevoked} event."
      },
      "schedule(address,uint256,bytes,bytes32,bytes32,uint256)": {
        "details": "Schedule an operation containing a single transaction. Emits {CallSalt} if salt is nonzero, and {CallScheduled}. Requirements: - the caller must have the 'proposer' role."
      },
      "scheduleBatch(address[],uint256[],bytes[],bytes32,bytes32,uint256)": {
        "details": "Schedule an operation containing a batch of transactions. Emits {CallSalt} if salt is nonzero, and one {CallScheduled} event per transaction in the batch. Requirements: - the caller must have the 'proposer' role."
      },
      "updateDelay(uint256)": {
        "details": "Changes the minimum timelock duration for future operations. Emits a {MinDelayChange} event. Requirements: - the caller must be the timelock itself. This can only be achieved by scheduling and later executing an operation where the timelock is the target and the data is the ABI-encoded call to this function."
      }
    },
    "version": 1
  },
  "userdoc": {
    "kind": "user",
    "methods": {},
    "version": 1
  },
  "storageLayout": {
    "storage": [
      {
        "astId": 5244,
        "contract": "contracts/Timelock.sol:Timelock",
        "label": "_roles",
        "offset": 0,
        "slot": "0",
        "type": "t_mapping(t_bytes32,t_struct(RoleData)5239_storage)"
      },
      {
        "astId": 5970,
        "contract": "contracts/Timelock.sol:Timelock",
        "label": "_timestamps",
        "offset": 0,
        "slot": "1",
        "type": "t_mapping(t_bytes32,t_uint256)"
      },
      {
        "astId": 5972,
        "contract": "contracts/Timelock.sol:Timelock",
        "label": "_minDelay",
        "offset": 0,
        "slot": "2",
        "type": "t_uint256"
      },
      {
        "astId": 5766,
        "contract": "contracts/Timelock.sol:Timelock",
        "label": "_roleMembers",
        "offset": 0,
        "slot": "3",
        "type": "t_mapping(t_bytes32,t_struct(AddressSet)14860_storage)"
      },
      {
        "astId": 15423,
        "contract": "contracts/Timelock.sol:Timelock",
        "label": "MAX_DELAY",
        "offset": 0,
        "slot": "4",
        "type": "t_uint256"
      },
      {
        "astId": 15425,
        "contract": "contracts/Timelock.sol:Timelock",
        "label": "salt",
        "offset": 0,
        "slot": "5",
        "type": "t_uint256"
      }
    ],
    "types": {
      "t_address": {
        "encoding": "inplace",
        "label": "address",
        "numberOfBytes": "20"
      },
      "t_array(t_bytes32)dyn_storage": {
        "base": "t_bytes32",
        "encoding": "dynamic_array",
        "label": "bytes32[]",
        "numberOfBytes": "32"
      },
      "t_bool": {
        "encoding": "inplace",
        "label": "bool",
        "numberOfBytes": "1"
      },
      "t_bytes32": {
        "encoding": "inplace",
        "label": "bytes32",
        "numberOfBytes": "32"
      },
      "t_mapping(t_address,t_bool)": {
        "encoding": "mapping",
        "key": "t_address",
        "label": "mapping(address => bool)",
        "numberOfBytes": "32",
        "value": "t_bool"
      },
      "t_mapping(t_bytes32,t_struct(AddressSet)14860_storage)": {
        "encoding": "mapping",
        "key": "t_bytes32",
        "label": "mapping(bytes32 => struct EnumerableSet.AddressSet)",
        "numberOfBytes": "32",
        "value": "t_struct(AddressSet)14860_storage"
      },
      "t_mapping(t_bytes32,t_struct(RoleData)5239_storage)": {
        "encoding": "mapping",
        "key": "t_bytes32",
        "label": "mapping(bytes32 => struct AccessControl.RoleData)",
        "numberOfBytes": "32",
        "value": "t_struct(RoleData)5239_storage"
      },
      "t_mapping(t_bytes32,t_uint256)": {
        "encoding": "mapping",
        "key": "t_bytes32",
        "label": "mapping(bytes32 => uint256)",
        "numberOfBytes": "32",
        "value": "t_uint256"
      },
      "t_struct(AddressSet)14860_storage": {
        "encoding": "inplace",
        "label": "struct EnumerableSet.AddressSet",
        "members": [
          {
            "astId": 14859,
            "contract": "contracts/Timelock.sol:Timelock",
            "label": "_inner",
            "offset": 0,
            "slot": "0",
            "type": "t_struct(Set)14545_storage"
          }
        ],
        "numberOfBytes": "64"
      },
      "t_struct(RoleData)5239_storage": {
        "encoding": "inplace",
        "label": "struct AccessControl.RoleData",
        "members": [
          {
            "astId": 5236,
            "contract": "contracts/Timelock.sol:Timelock",
            "label": "hasRole",
            "offset": 0,
            "slot": "0",
            "type": "t_mapping(t_address,t_bool)"
          },
          {
            "astId": 5238,
            "contract": "contracts/Timelock.sol:Timelock",
            "label": "adminRole",
            "offset": 0,
            "slot": "1",
            "type": "t_bytes32"
          }
        ],
        "numberOfBytes": "64"
      },
      "t_struct(Set)14545_storage": {
        "encoding": "inplace",
        "label": "struct EnumerableSet.Set",
        "members": [
          {
            "astId": 14540,
            "contract": "contracts/Timelock.sol:Timelock",
            "label": "_values",
            "offset": 0,
            "slot": "0",
            "type": "t_array(t_bytes32)dyn_storage"
          },
          {
            "astId": 14544,
            "contract": "contracts/Timelock.sol:Timelock",
            "label": "_positions",
            "offset": 0,
            "slot": "1",
            "type": "t_mapping(t_bytes32,t_uint256)"
          }
        ],
        "numberOfBytes": "64"
      },
      "t_uint256": {
        "encoding": "inplace",
        "label": "uint256",
        "numberOfBytes": "32"
      }
    }
  }
}